:020000040800F2
:1000000000000420258C0008D1160008D516000831
:10001000111700081317000815170008000000004A
:10002000000000000000000000000000171700089A
:1000300019170008000000001B1700081D17000812
:10004000758C0008758C0008758C0008758C00088C
:10005000758C0008758C0008758C0008758C00087C
:10006000758C0008758C0008758C00082517000831
:10007000758C0008758C0008758C0008758C00085C
:10008000758C000835170008758C0008758C000801
:10009000758C0008758C0008758C0008758C00083C
:1000A000758C000845170008758C00085517000866
:1000B000758C0008758C0008758C000865170008A1
:1000C00075170008758C0008758C0008758C000881
:1000D000758C0008758C0008758C0008758C0008FC
:1000E000758C0008758C0008758C0008758C0008EC
:1000F000758C0008758C000885170008758C000841
:10010000758C0008758C0008758C0008758C0008CB
:10011000758C0008758C000895170008C117000839
:10012000758C0008758C0008758C0008758C0008AB
:10013000758C0008000000000000000000000000B6
:10014000000000000000000000000000758C0008A6
:10015000758C0008758C0008758C0008758C00087B
:10016000758C0008758C0008758C0008758C00086B
:10017000758C0008D1170008000000000000000086
:10018000758C0008758C0008758C0008758C00084B
:10019000758C0008758C000800000000758C000844
:1001A000000000000000000000000000758C000846
:1001B000758C0008758C000800000000000000002D
:1001C000000000000000000000000000000000002F
:1001D000000000000000000000000000758C000816
:1001E00010B5054C237833B9044B13B10448AFF371
:1001F00000800123237010BDC8040020000000000F
:10020000BCC0000808B5034B1BB103490348AFF35A
:10021000008008BD00000000CC040020BCC0000825
:10022000034613F8012B002AFBD1181A0138704736
:1002300001F0FF01102A2BDB10F0070F08D010F897
:10024000013B013A8B422DD010F0070F42B3F6D19B
:10025000F0B441EA012141EA014122F007047FF0B4
:1002600000070023F0E80256083C85EA010586EA0B
:10027000010685FA47F5A3FA87F586FA47F6A5FA47
:1002800087F68EB9EED1F0BC01F0FF0102F0070253
:1002900032B110F8013B013A83EA010313B1F8D1FE
:1002A0000020704701387047002D06BF35460338DF
:1002B000073815F0010F07D1013015F4807F02BF18
:1002C000013015F4C03F0130F0BC0138704700BF69
:1002D00081F0004102E000BF83F0004330B54FEAF7
:1002E00041044FEA430594EA050F08BF90EA020F64
:1002F0001FBF54EA000C55EA020C7FEA645C7FEAF7
:10030000655C00F0E2804FEA5454D4EB5555B8BF19
:100310006D420CDD2C4480EA020281EA030382EA8A
:10032000000083EA010180EA020281EA0303362D1C
:1003300088BF30BD11F0004F4FEA01314FF4801CEF
:100340004CEA113102D0404261EB410113F0004F01
:100350004FEA03334CEA133302D0524263EB4303B8
:1003600094EA050F00F0A780A4F10104D5F1200E56
:100370000DDB02FA0EFC22FA05F2801841F10001B1
:1003800003FA0EF2801843FA05F359410EE0A5F185
:1003900020050EF1200E012A03FA0EFC28BF4CF0B6
:1003A000020C43FA05F3C01851EBE37101F000456C
:1003B00007D54FF0000EDCF1000C7EEB00006EEB79
:1003C0000101B1F5801F1BD3B1F5001F0CD3490803
:1003D0005FEA30004FEA3C0C04F101044FEA44525A
:1003E00012F5800F80F09A80BCF1004F08BF5FEAE1
:1003F000500C50F1000041EB045141EA050130BDC1
:100400005FEA4C0C404141EB0101013C28BFB1F5D2
:10041000801FE9D291F0000F04BF01460020B1FA1D
:1004200081F308BF2033A3F10B03B3F120020CDAF0
:100430000C3208DD02F1140CC2F10C0201FA0CF0CE
:1004400021FA02F10CE002F11402D8BFC2F1200C33
:1004500001FA02F120FA0CFCDCBF41EA0C019040E9
:10046000E41AA2BF01EB0451294330BD6FEA040432
:100470001F3C1CDA0C340EDC04F11404C4F120021D
:1004800020FA04F001FA02F340EA030021FA04F32F
:1004900045EA030130BDC4F10C04C4F1200220FA86
:1004A00002F001FA04F340EA0300294630BD21FAC4
:1004B00004F0294630BD94F0000F83F4801306BF8A
:1004C00081F480110134013D4EE77FEA645C18BF7E
:1004D0007FEA655C29D094EA050F08BF90EA020F15
:1004E00005D054EA000C04BF1946104630BD91EA0D
:1004F000030F1EBF0021002030BD5FEA545C05D110
:100500004000494128BF41F0004130BD14F580044E
:100510003CBF01F5801130BD01F0004545F0FE41C2
:1005200041F470014FF0000030BD7FEA645C1ABFF7
:10053000194610467FEA655C1CBF0B46024650EA2E
:10054000013406BF52EA033591EA030F41F400215A
:1005500030BD00BF90F0000F04BF0021704730B5E0
:100560004FF4806404F132044FF000054FF00001B5
:1005700050E700BF90F0000F04BF0021704730B576
:100580004FF4806404F1320410F0004548BF40424B
:100590004FF000013EE700BF42004FEAE2014FEAA0
:1005A00031014FEA02701FBF12F07F4393F07F4F7B
:1005B00081F06051704732F07F4208BF704793F07E
:1005C0007F4F04BF41F40021704730B54FF4607491
:1005D00001F0004521F000411CE700BF50EA010294
:1005E00008BF704730B54FF000050AE050EA01023D
:1005F00008BF704730B511F0004502D5404261EBAD
:1006000041014FF4806404F132045FEA915C3FF4ED
:10061000D8AE4FF003025FEADC0C18BF03325FEA8A
:10062000DC0C18BF033202EBDC02C2F1200300FA3B
:1006300003FC20FA02F001FA03FE40EA0E0021FA60
:1006400002F11444BDE600BF70B54FF0FF0C4CF44E
:10065000E06C1CEA11541DBF1CEA135594EA0C0F00
:1006600095EA0C0F00F0DEF82C4481EA030621EA3B
:100670004C5123EA4C5350EA013518BF52EA033576
:1006800041F4801143F4801338D0A0FB02CE4FF028
:100690000005E1FB02E506F00042E0FB03E54FF058
:1006A0000006E1FB03569CF0000F18BF4EF0010E50
:1006B000A4F1FF04B6F5007F64F5407404D25FEA4C
:1006C0004E0E6D4146EB060642EAC62141EA5551FF
:1006D0004FEAC52040EA5E504FEACE2EB4F1FD0C41
:1006E00088BFBCF5E06F1ED8BEF1004F08BF5FEABF
:1006F000500E50F1000041EB045170BD06F0004671
:1007000046EA010140EA020081EA0301B4EB5C041D
:10071000C2BFD4EB0C0541EA045170BD41F4801115
:100720004FF0000E013C00F3AB8014F1360FDEBF3A
:10073000002001F0004170BDC4F10004203C35DA16
:100740000C341BDC04F11404C4F1200500FA05F399
:1007500020FA04F001FA05F240EA020001F000423A
:1007600021F0004110EBD37021FA04F642EB0601B0
:100770005EEA430E08BF20EAD37070BDC4F10C04DA
:10078000C4F1200500FA04F320FA05F001FA04F29E
:1007900040EA020001F0004110EBD37041F100018A
:1007A0005EEA430E08BF20EAD37070BDC4F1200595
:1007B00000FA05F24EEA020E20FA04F301FA05F2FD
:1007C00043EA020321FA04F001F0004121FA04F2A5
:1007D00020EA020000EBD3705EEA430E08BF20EA75
:1007E000D37070BD94F0000F0FD101F000464000AF
:1007F00041EB010111F4801F08BF013CF7D041EA31
:10080000060195F0000F18BF704703F00046520034
:1008100043EB030313F4801F08BF013DF7D043EA05
:100820000603704794EA0C0F0CEA135518BF95EABB
:100830000C0F0CD050EA410618BF52EA4306D1D142
:1008400081EA030101F000414FF0000070BD50EA61
:10085000410606BF1046194652EA430619D094EAEB
:100860000C0F02D150EA013613D195EA0C0F05D1D5
:1008700052EA03361CBF104619460AD181EA030129
:1008800001F0004141F0FE4141F470014FF00000E1
:1008900070BD41F0FE4141F4780170BD70B54FF07C
:1008A000FF0C4CF4E06C1CEA11541DBF1CEA1355FC
:1008B00094EA0C0F95EA0C0F00F0A7F8A4EB0504DE
:1008C00081EA030E52EA03354FEA013100F08880D5
:1008D0004FEA03334FF0805545EA131343EA12639E
:1008E0004FEA022245EA111545EA10654FEA002653
:1008F0000EF000419D4208BF964244F1FD0404F50C
:10090000407402D25B084FEA3202B61A65EB030567
:100910005B084FEA32024FF480104FF4002CB6EB24
:10092000020E75EB030E22BFB61A754640EA0C00A4
:100930005B084FEA3202B6EB020E75EB030E22BFE4
:10094000B61A754640EA5C005B084FEA3202B6EB25
:10095000020E75EB030E22BFB61A754640EA9C00E4
:100960005B084FEA3202B6EB020E75EB030E22BFB4
:10097000B61A754640EADC0055EA060E18D04FEA72
:10098000051545EA16754FEA06164FEAC30343EA12
:1009900052734FEAC2025FEA1C1CC0D111F4801FDF
:1009A0000BD141EA00014FF000004FF0004CB6E7D8
:1009B00011F4801F04BF01430020B4F1FD0C88BF77
:1009C000BCF5E06F3FF6AFAEB5EB030C04BFB6EB82
:1009D000020C5FEA500C50F1000041EB045170BD75
:1009E0000EF0004E4EEA113114EB5C04C2BFD4EBA2
:1009F0000C0541EA045170BD41F480114FF0000E26
:100A0000013C90E645EA060E8DE60CEA135594EAA1
:100A10000C0F08BF95EA0C0F3FF43BAF94EA0C0FA4
:100A20000AD150EA01347FF434AF95EA0C0F7FF419
:100A300025AF104619462CE795EA0C0F06D152EA6D
:100A400003353FF4FDAE1046194622E750EA410651
:100A500018BF52EA43067FF4C5AE50EA41047FF462
:100A60000DAF52EA43057FF4EBAE12E74FF0FF3CC7
:100A700006E000BF4FF0010C02E000BF4FF0010C98
:100A80004DF804CD4FEA410C7FEA6C5C4FEA430C11
:100A900018BF7FEA6C5C1BD001B050EA410C0CBF60
:100AA00052EA430C91EA030F02BF90EA020F0020C2
:100AB000704710F1000F91EA030F58BF994208BF29
:100AC00090422CBFD8176FEAE37040F001007047E6
:100AD0004FEA410C7FEA6C5C02D150EA013C07D13D
:100AE0004FEA430C7FEA6C5CD6D152EA033CD3D088
:100AF0005DF8040B704700BF8446104662468C4682
:100B00001946634600E000BF01B5FFF7B7FF0028B4
:100B100048BF10F1000F01BD4DF808EDFFF7F4FFDD
:100B20000CBF012000205DF808FB00BF4DF808ED68
:100B3000FFF7EAFF34BF012000205DF808FB00BF8B
:100B40004DF808EDFFF7E0FF94BF012000205DF8AD
:100B500008FB00BF4DF808EDFFF7CEFF94BF012062
:100B600000205DF808FB00BF4DF808EDFFF7C4FF5B
:100B700034BF012000205DF808FB00BF4FEA410CA4
:100B80007FEA6C5C02D150EA013C0AD14FEA430C87
:100B90007FEA6C5C02D152EA033C02D14FF00000C4
:100BA00070474FF0010070474A0011D212F5001251
:100BB00011D20DD56FF47873B3EB62520ED44FEAB5
:100BC000C12343F0004343EA505323FA02F0704735
:100BD0004FF00000704750EA013002D14FF0FF3073
:100BE00070474FF0000070474FEA4102B2F1E04316
:100BF00024BFB3F5001CDCF1FE5C0DD901F0004C04
:100C00004FEAC0024CEA5070B2F1004F40EB830053
:100C100008BF20F00100704711F0804F21D113F17F
:100C20003872BCBF01F00040704741F480114FEAB8
:100C30005252C2F11802C2F1200C10FA0CF320FA41
:100C400002F018BF40F001004FEAC1234FEAD3235E
:100C500003FA0CFC40EA0C0023FA02F34FEA4303C8
:100C6000CCE77FEA625307D150EA01331EBF4FF051
:100C7000FE4040F44000704701F0004040F0FE406C
:100C800040F40000704700BF53B94AB9002908BFBB
:100C900000281CBF4FF0FF314FF0FF3000F074B957
:100CA000ADF1080C6DE904CE00F006F8DDF804E0C3
:100CB000DDE9022304B070472DE9F047089D0446A2
:100CC0008E46002B4DD18A42944669D9B2FA82F2FF
:100CD00052B101FA02F3C2F1200120FA01F10CFA3B
:100CE00002FC41EA030E94404FEA1C48210CBEFB73
:100CF000F8F61FFA8CF708FB16E341EA034306FBFC
:100D000007F199420AD91CEB030306F1FF3080F08A
:100D10001F81994240F21C81023E63445B1AA4B2D7
:100D2000B3FBF8F008FB103344EA034400FB07F779
:100D3000A7420AD91CEB040400F1FF3380F00A81BA
:100D4000A74240F207816444023840EA0640E41BAF
:100D500000261DB1D4400023C5E900433146BDE85B
:100D6000F0878B4209D9002D00F0EF800026C5E9FD
:100D7000000130463146BDE8F087B3FA83F6002E15
:100D80004AD18B4202D3824200F2F980841A61EB8D
:100D9000030301209E46002DE0D0C5E9004EDDE7AB
:100DA00002B9FFDEB2FA82F2002A40F09280A1EB93
:100DB0000C014FEA1C471FFA8CFE0126200CB1FBE8
:100DC000F7F307FB131140EA01410EFB03F08842E1
:100DD00008D91CEB010103F1FF3802D2884200F26E
:100DE000CB804346091AA4B2B1FBF7F007FB101100
:100DF00044EA01440EFB00FEA64508D91CEB04049E
:100E000000F1FF3102D2A64500F2BB800846A4EBF8
:100E10000E0440EA03409CE7C6F12007B34022FAE3
:100E200007FC4CEA030C20FA07F401FA06F31C4312
:100E3000F9404FEA1C4900FA06F3B1FBF9F8200C1F
:100E40001FFA8CFE09FB181140EA014108FB0EF065
:100E5000884202FA06F20BD91CEB010108F1FF3AB5
:100E600080F08880884240F28580A8F102086144C1
:100E7000091AA4B2B1FBF9F009FB101144EA0141CF
:100E800000FB0EFE8E4508D91CEB010100F1FF347A
:100E90006CD28E456AD90238614440EA0840A0FB12
:100EA0000294A1EB0E01A142C846A64656D353D0E8
:100EB0005DB1B3EB080261EB0E0101FA07F722FA0C
:100EC00006F3F1401F43C5E9007100263146BDE835
:100ED000F087C2F12003D8400CFA02FC21FA03F398
:100EE000914001434FEA1C471FFA8CFEB3FBF7F019
:100EF00007FB10360B0C43EA064300FB0EF69E423E
:100F000004FA02F408D91CEB030300F1FF382FD2D6
:100F10009E422DD9023863449B1B89B2B3FBF7F67E
:100F200007FB163341EA034106FB0EF38B4208D957
:100F30001CEB010106F1FF3816D28B4214D9023E98
:100F40006144C91A46EA004638E72E46284605E7B6
:100F50000646E3E61846F8E64B45A9D2B9EB020887
:100F600064EB0C0E0138A3E74646EAE7204694E717
:100F70004046D1E7D0467BE7023B614432E730464A
:100F800009E76444023842E7704700BF014B002282
:100F90009A707047E4040020014B0022DA70704719
:100FA000E404002008B50268044B9A4200D008BD52
:100FB00001221021024801F0BBFAF8E700000140CD
:100FC000000C024010B504460268254B9A4204D03A
:100FD0002268244B9A420DD010BD002210212248D5
:100FE00001F0A6FA214B93ED000B05F035FA2368CA
:100FF0005863EDE71E4BD3F8BC30BBB11C4B93F8E4
:10100000BB30CBB11A4B9B79DBB2042B1FD0184BF2
:101010009B79DBB2042B03D0154B93F8BB30D3B1D3
:1010200000220821104801F083FAD5E7104BD3F8CD
:10103000C030002BE6D0E1E70D4B93F8BA00D3F8AF
:10104000BC10D3F8C02092B207F0A8FDDAE7084838
:1010500005F070FADBE7064805F0D6FBE0E700BFD5
:101060000000014000040140000C0240400A002042
:101070006809002008B572B60D4C012211462046C1
:1010800001F056FA01220221204601F051FA012214
:101090000421204601F04CFA01220821204601F0EB
:1010A00047FA01221021204601F042FAE4E700BF8E
:1010B000000C024000B595B03022002108A807F0CE
:1010C00031FE002303930493059306930793234B68
:1010D0001A6C42F080521A641B6C03F08053019327
:1010E000019B1F4B1A6842F440421A601B6803F4CC
:1010F00040430293029B012308934FF4A0230993DA
:1011000002230E934FF480020F92192210924FF493
:10111000D872119212930923139308A800F078FB58
:10112000B0B901F031FCA8B90F2303930223049353
:10113000002305934FF4A05306934FF48053079375
:10114000072103A800F0D2FD30B915B05DF804FB0B
:10115000FFF790FFFFF78EFFFFF78CFF003802408C
:101160000070004008B501F0E9FC1F4B0020002191
:10117000C3E900011D4C01221146204605F0E4FCA4
:1011800021461B4805F03DFCFFF794FF00F040F8B6
:1011900007F026FD00F090F900F0B4F900F0D8F95E
:1011A00000F08CF805F0D8FD05F0AEFD05F048FD27
:1011B00005F0F0FE00F048F905F0F8FD0D4C204672
:1011C00002F076FF0C4802F073FF0C4802F070FF4B
:1011D0000021204603F07EFA0021094803F07AFA44
:1011E00006F040FFFEE700BF400A0020E4040020B4
:1011F00068090020800D0020E80C0020340D00203C
:101200009C0C002008B502F051FDFFF733FF0000F1
:1012100010B58CB000220792089209920A920B92A4
:10122000244B196B41F010011963196B01F0100187
:1012300001910199196B41F080011963196B01F05B
:10124000800102910299196B41F004011963196B35
:1012500001F0040103910399196B41F00101196335
:10126000196B01F0010104910499196B41F002011D
:101270001963196B01F0020105910599196B41F091
:10128000080119631B6B03F008030693069B0A4CC5
:101290001F21204601F04CF91F23079301230893D7
:1012A0000223099303230A9307A9204601F04CF86F
:1012B0000CB010BD00380240000C024008B51448C4
:1012C000144B0360A3F1FE53A3F69843436000233D
:1012D00083600122C260036143618361C361036271
:1012E00001F00AFD50B90021094802F0E1FC40B9C3
:1012F0000021074802F00AFD30B908BDFFF7BAFE29
:10130000F1E7FFF7B7FEF3E7FFF7B4FEF5E700BF3D
:10131000080B00200054004070B5A8B0044600211E
:1013200023912491259126912791802203A807F0EB
:10133000F9FC22683D4B9A4201D028B070BD4FF4B1
:101340008043039303A800F08DFD002864D1384E3C
:10135000336B43F002033363336B03F002030193F7
:10136000019BC02323931223249300252595032357
:1013700026930423279323A92E4800F0E5FF336C1E
:1013800043F400133364336C03F400130293029BA1
:1013900029482A4B03604FF0007343608560C560A5
:1013A0004FF48063036145618561C5614FF480330B
:1013B0000362456201F040F9002830D11E4BE3631F
:1013C0009C631F481F4B03604FF000734360402332
:1013D00083600023C3604FF48062026143618361D4
:1013E000C3614FF480320262436201F025F9C8B94B
:1013F000134BA3639C63002202211F2001F046FBD4
:101400001F2001F053FB00220221202001F03EFBAF
:10141000202001F04BFB90E7FFF72CFE97E7FFF74A
:1014200029FECBE7FFF726FEE2E700BF00540040AD
:101430000038024000040240A80A00201060024068
:10144000480A0020A060024008B50548054B03602B
:1014500002F088FC00B908BDFFF70CFEFBE700BFF7
:101460005C0B00200008065010B5A2B00446802294
:10147000002102A807F056FC22680D4B9A4201D0C9
:1014800022B010BD4FF40013029302A800F0EAFC52
:1014900050B9084B5A6B42F040025A635B6B03F041
:1014A00040030193019BEBE7FFF7E4FDF1E700BF89
:1014B000000806500038024008B51048104B036081
:1014C0004FF482734360002383604FF4E062C26094
:1014D000036143614FF400728261C361036243623E
:1014E00083620722C26203630823436302F051FC54
:1014F00000B908BDFFF7BEFDFBE700BF340C0020BC
:101500000030014008B51048104B03604FF482735F
:101510004360002383604FF44072C2600361436103
:101520004FF400728261C3610362436283620722E7
:10153000C26203630823436302F02BFC00B908BDB9
:10154000FFF798FDFBE700BFD00B002000380040FC
:1015500008B51048104B03604FF4827343600023BA
:1015600083604FF44072C260036143614FF40072C4
:101570008261C3610362436283620722C2620363C2
:101580000823436302F005FC00B908BDFFF772FDB4
:10159000FBE700BF6C0B00200034014070B58CB03D
:1015A00000230793089309930A930B930368404A17
:1015B000934207D03F4A934224D03F4A934256D0A9
:1015C0000CB070BD3D4B5A6C42F480525A645A6C58
:1015D00002F480520092009A1A6B42F001021A63E0
:1015E0001B6B03F001030193019BE023079302238C
:1015F000089303230A9305230B9307A9304800F0AF
:10160000A3FEDDE72D4B1A6C42F480421A641A6C7B
:1016100002F480420292029A1A6B42F004021A63A8
:101620001A6B02F004020392039A1A6B42F0020250
:101630001A631B6B03F002030493049B06230793B6
:101640000226089603250A9505240B9407A91D4830
:1016500000F07AFE4FF48063079308960023099305
:101660000A950B9407A9184800F06EFEA8E7134BE3
:101670005A6C42F400525A645A6C02F400520592B9
:10168000059A1A6B42F010021A631B6B03F01003E9
:101690000693069B642307930223089303230A936C
:1016A00005230B9307A9094800F04EFE88E700BF09
:1016B0000030014000380040003401400038024052
:1016C00000000240000802400004024000100240F6
:1016D000FEE7000008B50D4C01221146204600F03F
:1016E00027FF01220221204600F022FF01220421CF
:1016F000204600F01DFF01220821204600F018FFBF
:1017000001221021204600F013FFE4E7000C024004
:10171000FEE7FEE7FEE770477047704708B501F047
:101720001FFA08BD08B5024801F03AF808BD00BF2D
:10173000A80A002008B5024801F032F808BD00BF31
:10174000480A002008B5024802F0FDFC08BD00BFB1
:10175000800D002008B5024802F0F5FC08BD00BF6E
:10176000800D002008B5024801F058FC08BD00BFFC
:10177000080B002008B5024802F056FA08BD00BF69
:10178000080B002008B5024802F0DDFC08BD00BFD0
:101790009C0C002010B5074802F0D5FC064C074B06
:1017A000D3E90023D4E90001FEF798FDC4E9000164
:1017B00010BD00BF340D0020400A0020F0C000081A
:1017C00008B5024802F0BFFC08BD00BFE80C0020CD
:1017D00008B5024803F05EFC08BD00BFCC0D002038
:1017E00082B00A4B1A6C42F080521A641A6C02F0F2
:1017F00080520092009A5A6C42F480425A645B6CA8
:1018000003F480430193019B02B07047003802400B
:10181000002800F0FF8170B582B00446036813F021
:10182000010F29D0954B9B6803F00C03042B1AD0B1
:10183000924B9B6803F00C03082B0FD06368B3F541
:10184000803F40D0002B54D18C4B1A6822F4803258
:101850001A601A6822F480221A6039E0874B5B68AC
:1018600013F4800FEAD0854B1B6813F4003F03D0BC
:101870006368002B00F0D081236813F0020F74D04E
:101880007E4B9B6813F00C0F5ED07C4B9B6803F083
:101890000C03082B53D0E368002B00F08980774AB3
:1018A000136843F00103136001F066F90546734BBA
:1018B0001B6813F0020F72D101F05EF9401B022881
:1018C000F5D90320ADE16D4A136843F4803313600A
:1018D00063682BB301F050F90546684B1B6813F49D
:1018E000003FC9D101F048F9401B6428F5D9032015
:1018F00097E1B3F5A02F09D0604B1A6822F480322B
:101900001A601A6822F480221A60E1E75B4B1A68B9
:1019100042F480221A601A6842F480321A60D7E7D3
:1019200001F02AF90546554B1B6813F4003FA3D07C
:1019300001F022F9401B6428F5D9032071E14F4BD7
:101940005B6813F4800FA6D14C4B1B6813F0020F99
:1019500003D0E368012B40F06181484A136823F00B
:10196000F803216943EAC1031360236813F0080FE9
:1019700046D0636983B3414A536F43F00103536711
:1019800001F0FAF805463D4B5B6F13F0020F37D1BB
:1019900001F0F2F8401B0228F5D9032041E1374A53
:1019A000136823F0F803216943EAC1031360DCE7FD
:1019B000324A136823F00103136001F0DDF8054695
:1019C0002E4B1B6813F0020FCFD001F0D5F8401B4F
:1019D0000228F5D9032024E1284A536F23F001039C
:1019E000536701F0C9F80546244B5B6F13F0020FF3
:1019F00006D001F0C1F8401B0228F5D9032010E100
:101A0000236813F0040F7DD01C4B1B6C13F0805F18
:101A10001ED11A4B1A6C42F080521A641B6C03F0F0
:101A200080530193019B0125154B1B6813F4807FA4
:101A300010D0A368012B25D0002B3BD10F4B1A6F80
:101A400022F001021A671A6F22F004021A671EE0E0
:101A50000025E9E70A4A136843F48073136001F034
:101A60008BF80646064B1B6813F4807FE1D101F02A
:101A700083F8801B6428F5D90320D2E000380240A7
:101A8000007000406E4A136F43F001031367A368B0
:101A900033B301F071F80646694B1B6F13F0020F68
:101AA0002FD101F069F8801B41F288339842F3D9B5
:101AB0000320B6E0052B09D0614B1A6F22F001021A
:101AC0001A671A6F22F004021A67E0E75C4B1A6F7C
:101AD00042F004021A671A6F42F001021A67D6E751
:101AE00001F04AF80646564B1B6F13F0020F08D060
:101AF00001F042F8801B41F288339842F3D9032069
:101B00008FE0FDB9A369002B00F08A804C4A9268EF
:101B100002F00C02082A58D0022B19D0484A136848
:101B200023F08073136001F027F80446444B1B68D0
:101B300013F0007F47D001F01FF8001B0228F5D9F1
:101B400003206EE03E4A136C23F080531364D9E700
:101B50003B4A136823F08073136001F00DF80546CB
:101B6000374B1B6813F0007F06D001F005F8401BCF
:101B70000228F5D9032054E0E369226A1343626A1C
:101B800043EA8213A26A5208013A43EA0243E26A34
:101B900043EA026343F00053294A5360136843F059
:101BA0008073136000F0E8FF0446254B1B6813F0B8
:101BB000007F06D100F0E0FF001B0228F5D90320CA
:101BC0002FE000202DE000202BE01D4A5268012B61
:101BD00029D002F48003E1698B4226D102F03F0351
:101BE000216A8B4223D1616A47F6C0731340B3EB7D
:101BF000811F1ED102F44031A36A5B08013BB1EBA7
:101C0000034F18D102F07062E36AB2EB036F14D194
:101C1000002006E001207047012002E0012000E0E2
:101C2000002002B070BD0120FBE70120F9E7012090
:101C3000F7E70120F5E70120F3E70120F1E700BF16
:101C40000038024008B5264B9B6803F00C03042BB8
:101C500041D0082B41D1224B5A6802F03F025B6809
:101C600013F4800F12D01E4B5968C1F388111D4820
:101C70000023A1FB0001FFF707F8194B5B68C3F3D2
:101C8000014301335B00B0FBF3F027E0144B5868CD
:101C9000C0F388104FEA401CBCEB000C6EEB0E0E3C
:101CA0004FEA8E1343EA9C634FEA8C11B1EB0C01AF
:101CB00063EB0E03DB0043EA5173C90011EB000C28
:101CC00043F10003990200234FEA8C2041EA9C5122
:101CD000FEF7DAFFD1E7034800E0034808BD00BF84
:101CE0000038024040787D010024F400002800F014
:101CF000A08070B50D460446524B1B6803F00F03DD
:101D00008B420BD24F4A136823F00F030B4313602F
:101D1000136803F00F038B4240F08D80236813F0AB
:101D2000020F17D013F0040F04D0474A936843F40E
:101D3000E0539360236813F0080F04D0424A93687D
:101D400043F460439360404A936823F0F003A16832
:101D50000B439360236813F0010F31D06368012BAC
:101D600020D0022B25D0384A126812F0020F64D01E
:101D700035498A6822F0030213438B6000F0FCFEB1
:101D80000646314B9B6803F00C036268B3EB820F8D
:101D900016D000F0F1FE801B41F288339842F0D952
:101DA000032045E0284A126812F4003FE0D10120E8
:101DB0003EE0254A126812F0007FD9D1012037E0B9
:101DC000204B1B6803F00F03AB420AD91D4A13686E
:101DD00023F00F032B431360136803F00F03AB4290
:101DE0002DD1236813F0040F06D0174A936823F40B
:101DF000E053E1680B439360236813F0080F07D0AA
:101E0000114A936823F46043216943EAC103936054
:101E1000FFF718FF0C4B9B68C3F303130B4AD35C0B
:101E2000D8400B4B18600B4B186800F061FE002087
:101E300070BD012070470120FAE70120F8E701207A
:101E4000F6E700BF003C024000380240E0C0000856
:101E50000800002004000020014B1868704700BFF4
:101E600008000020F0B583B00446066816F00106AD
:101E70000DD0AB4B9A6822F400029A609A68C16A4E
:101E80000A439A60C36A002B00F02381002625686C
:101E900015F4002511D0A24AD2F88C3023F4401357
:101EA000616B0B43C2F88C30636BB3F5801F00F09D
:101EB0001281002B00F011810025236813F4801F8C
:101EC0000FD0974AD2F88C3023F44003A16B0B4318
:101ED000C2F88C30A36BB3F5800F00F0008103B91A
:101EE0000125236813F0200F40F0FB80236813F0D6
:101EF000100F0CD08A4BD3F88C2022F08072C3F8DC
:101F00008C20D3F88C20216B0A43C3F88C202368E3
:101F100013F4804F08D0824AD2F8903023F4403333
:101F2000E16D0B43C2F89030236813F4004F08D0E2
:101F30007B4AD2F8903023F44023216E0B43C2F841
:101F40009030236813F4803F08D0754AD2F890305F
:101F500023F44013616E0B43C2F89030236813F0F2
:101F6000400F08D06E4AD2F8903023F00303E16BA3
:101F70000B43C2F89030236813F0800F08D0684AF2
:101F8000D2F8903023F00C03216C0B43C2F8903050
:101F9000236813F4807F08D0614AD2F8903023F090
:101FA0003003616C0B43C2F89030236813F4007F58
:101FB00008D05B4AD2F8903023F0C003A16C0B43E9
:101FC000C2F89030236813F4806F08D0544AD2F8D6
:101FD000903023F44073E16C0B43C2F890302368D7
:101FE00013F4006F08D04E4AD2F8903023F44063C7
:101FF000216D0B43C2F89030236813F4805F08D042
:10200000474AD2F8903023F44053616D0B43C2F835
:102010009030236813F4005F08D0414AD2F8903022
:1020200023F44043A16D0B43C2F89030236813F4AE
:10203000001F0DD03A4AD2F8903023F00063616F50
:102040000B43C2F89030636FB3F1006F00F0B480BF
:10205000236813F4802F08D0314AD2F8903023F04F
:102060004073E16E0B43C2F89030236813F4000F05
:1020700008D02B4AD2F8903023F08053A16F0B4345
:10208000C2F89030236813F0806F08D0244AD2F849
:10209000903023F00053E16F0B43C2F8903026B923
:1020A000236813F0007F00F0E4801D4A136823F0DA
:1020B0008063136000F060FD0646194B1B6813F047
:1020C000006F7BD000F058FD801B6428F5D90320F9
:1020D000D2E00126DBE60126EBE60125EDE601264E
:1020E000FDE60F4B1A6C42F080521A641B6C03F031
:1020F00080530193019B0B4A136843F48073136070
:1021000000F03AFD0746074B1B6813F4807F0BD1A4
:1021100000F032FDC01B6428F5D90320ACE000BFFD
:102120000038024000700040854B1B6F13F4407371
:1021300015D0A26A02F440729A4210D0804B1A6FF6
:1021400022F44072196F41F480311967196F21F43C
:10215000803119671A671B6F13F0010F12D1A36A40
:1021600003F44072B2F5407F1DD0754A936823F4A2
:10217000F813936072490B6FA26AC2F30B02134308
:102180000B67B3E600F0F8FC07466D4B1B6F13F0CE
:10219000020FE4D100F0F0FCC01B41F288339842FA
:1021A000F3D9032068E06648826822F4F812654992
:1021B00019400A438260DDE7012549E7236813F0EF
:1021C000010F0ED0E36A63B95D4AD2F884306168CA
:1021D00003F0706343EA8113A16843EA0173C2F814
:1021E0008430236813F4002F03D0626BB2F5801F94
:1021F00006D013F4801F19D0A36BB3F5800F15D14F
:102200004F4AD2F884106068E3681B0643EA8013E3
:1022100001F0E0410B43C2F88430D2F88C3023F057
:102220001F03E16901390B43C2F88C30236813F0B6
:10223000007F0AD06268E3681B0643EA8213A26843
:1022400043EA02733E4AC2F884303D4A136843F0C1
:102250008063136000F090FC0646394B1B6813F056
:10226000006F06D100F088FC801B6428F5D903209C
:1022700002E0012D02D0002003B0F0BD304A136807
:1022800023F08053136000F077FC05462C4B1B684D
:1022900013F0005F06D000F06FFC401B6428F5D9F6
:1022A0000320E9E7236813F4002F01D0626B22B109
:1022B00013F4801F18D0A36BB3B9214AD2F8883029
:1022C000216903F4403343EA8113616943EA0163FE
:1022D000C2F88830D2F88C3023F4F853216A0139DF
:1022E00043EA0123C2F88C30236813F4001F03D0A3
:1022F000636FB3F1006F13D0114A136843F080533A
:10230000136000F039FC04460D4B1B6813F0005FAE
:1023100014D100F031FC001B6428F5D90320ABE791
:102320000749D1F888202069A3691B0443EA801378
:1023300002F070621343C1F88830DDE700209BE7AC
:1023400000380240FFFCFF0F00230F2B00F2E78054
:1023500070B582B065E085684FEA430E032404FA45
:102360000EF425EA0405CC6804FA0EF42C438460CC
:10237000446824EA02044A68C2F300129A402243E5
:1023800042605CE0DC08083450F8242003F00705C4
:10239000AD004FF00F0E0EFA05FE22EA0E0E0A698E
:1023A000AA4042EA0E0240F824205CE0072200E046
:1023B000002202FA0EF22A430234594D45F8242035
:1023C000584A94686FEA0C0224EA0C054E6816F429
:1023D000801F01D04CEA0405524CA560E46802EA73
:1023E00004054E6816F4001F01D04CEA04054D4C5C
:1023F000E560646802EA04054E6816F4003F01D007
:102400004CEA0405474C6560246822404D6815F489
:10241000803F01D04CEA0402424C226001330F2B72
:102420007BD801229A400C6804EA020C32EA0404C8
:10243000F4D14C6804F00304013C012C8BD94A68A8
:1024400002F00302032A09D0C4685D000322AA40F7
:1024500024EA02048A68AA402243C2604A6802F061
:102460000302022A8ED004684FEA430E032202FAC6
:102470000EF224EA02044A6802F0030202FA0EF2A3
:10248000224302604A6812F4403FC7D0264A546C87
:1024900044F480445464526C02F480420192019AE4
:1024A0009C08A51C1E4A52F8255003F0030E4FEA63
:1024B0008E0E0F2202FA0EF225EA02051B4A904206
:1024C0003FF476AF02F5806290421AD002F5806246
:1024D000904218D002F58062904216D002F58062D8
:1024E000904214D002F58062904212D002F58062D0
:1024F000904210D002F5806290423FF457AF08221C
:1025000057E7012255E7022253E7032251E704224D
:102510004FE705224DE706224BE702B070BD70473A
:1025200000380140003C01400038024000000240F9
:102530000AB18161704709048161704730B4056850
:102540002C6824F480242C60046863608368402B2A
:1025500005D0036899600368DA6030BC704703688F
:102560009A600368D960F8E710B40168CAB2103AFB
:102570000A4BA3FB02431B09094CE35CC3655F2ABA
:1025800007D9084B0B4004338365806D5DF8044B1D
:102590007047044B0B408365F7E700BFABAAAAAABC
:1025A000D8C0000800FCFFFF836A826992B9012B42
:1025B0000AD0022B02D00BB100207047C36A13F07F
:1025C000807F28D100207047C36AB3F1C07F24D038
:1025D00000207047B2F5005F09D0022B25D9032BEC
:1025E00025D1C36A13F0807F23D100207047032BCD
:1025F00003D8DFE803F01404140A00207047C36A0C
:1026000013F0807F0DD100207047C36AB3F1C07F03
:1026100009D0002070470120704701207047012039
:10262000704701207047012070470120704700204B
:10263000704701207047000070B5044600F09CFA16
:10264000002C5BD00546022384F83530002384F843
:1026500034302268136823F00103136023681A687A
:1026600012F0010F0AD000F087FA431B052BF5D9B1
:1026700020236365032084F8350070BD1A68204963
:1026800011406268A0680243E06802432069024387
:1026900060690243A0690243E0690243206A024381
:1026A0000A43616A04291ED01A602668756925F0FC
:1026B0000705636A1D43042B07D1A36A1D43E36A20
:1026C0001BB12046FFF770FF90B975612046FFF7F8
:1026D0004BFFE26D3F239340836000206065012340
:1026E00084F83530C9E7E16A206B01430A43DBE730
:1026F00040236365012084F83500BEE70120BCE774
:102700003F8010E038B50446856D90F8340001280C
:1027100030D0012084F8340094F83500C0B201288C
:1027200004D0002384F83430022038BD022084F81D
:102730003500002060652046FFF700FFE26D3F2373
:102740009340AB602268136843F01603136022685D
:10275000536943F080035361236C23B122681368EB
:1027600043F0080313602268136843F00103136009
:102770000020DAE70220D8E790F83530DBB2022BF0
:1027800003D08023436501207047052380F835304E
:102790000268136823F001031360002070470000F3
:1027A000F0B583B0044600230193724B1D68724B51
:1027B000A3FB0535AD0A876D3E68C26D08239340C3
:1027C000334210D003681A6812F0040F0BD01A6855
:1027D00022F004021A60C26D08239340BB60436D6F
:1027E00043F001034365E26D01239340334209D076
:1027F0002268526912F0800F04D0BB60636D43F011
:1028000002036365E26D04239340334209D02268DA
:10281000126812F0020F04D0BB60636D43F0040332
:102820006365E26D10239340334224D0226812681E
:1028300012F0080F1FD0BB6023681A6812F4802FB3
:102840000DD01B6813F4002F04D1236C9BB12046DC
:10285000984710E0A36C73B1204698470BE01A68C4
:1028600012F4807F03D11A6822F008021A60236CE8
:102870000BB120469847E26D20239340334255D058
:102880002268126812F0100F50D0BB6094F83530F7
:10289000DBB2052B0ED023681A6812F4802F33D0D8
:1028A0001B6813F4002F2AD1636C002B3ED0204606
:1028B00098473BE02268136823F0160313602268F0
:1028C000536923F080035361236CA3B1226813681A
:1028D00023F008031360E26D3F239340BB600123A4
:1028E00084F83530002384F83430236D002B3FD03A
:1028F000204698473CE0A36C002BE7D1EBE7E36B65
:10290000A3B12046984711E01A6812F4807F09D1DC
:102910001A6822F010021A60012384F8353000236F
:1029200084F83430E36B0BB120469847636DFBB1FC
:10293000636D13F0010F17D0052384F8353022683A
:10294000136823F001031360019B01330193AB4231
:1029500004D823681B6813F0010FF5D1012384F814
:102960003530002384F83430E36C0BB120469847AF
:1029700003B0F0BD08000020B5814E1B90F8350073
:102980007047406D7047000010B582B01B4B1A6C49
:1029900042F080521A641B6C03F080530193019B38
:1029A000174A136843F48033136000F0E5F80446D7
:1029B000134B5B6813F4803F08D100F0DDF8001B77
:1029C000B0F57A7FF4D9032002B010BD0C4A136829
:1029D00043F40033136000F0CFF80446084B5B6803
:1029E00013F4003F07D100F0C7F8001BB0F57A7F61
:1029F000F4D90320E8E70020E6E700BF00380240F2
:102A000000700040002804DB0901C9B2044B1954CE
:102A1000704700F00F000901C9B2024B195470470A
:102A200000E400E014ED00E000B500F00700C0F1A4
:102A3000070CBCF1040F28BF4FF0040C031D062B3C
:102A40000FD9C31E4FF0FF3E0EFA0CF021EA000131
:102A500099400EFA03FE22EA0E0241EA02005DF8F6
:102A600004FB0023EEE700000649CB6823F4E06393
:102A70001B041B0C000200F4E0600343024A1A43EB
:102A8000CA60704700ED00E00000FA0510B504468A
:102A9000054BD868C0F30220FFF7C6FF0146204669
:102AA000FFF7B0FF10BD00BF00ED00E0002807DB1E
:102AB00000F01F02400901239340024A42F82030EF
:102AC000704700BF00E100E00138B0F1807F0BD219
:102AD0004FF0E0235861054AF02182F823100020CE
:102AE000986107221A6170470120704700ED00E0ED
:102AF00010B504460E4B1A784FF47A73B3FBF2F319
:102B00000C4A1068B0FBF3F0FFF7DEFF68B90F2C3A
:102B100001D901200AE0002221464FF0FF30FFF7E3
:102B2000B5FF054B1C60002000E0012010BD00BF78
:102B300000000020080000200400002008B5074A1B
:102B4000136843F4807313600320FFF78DFF0F2099
:102B5000FFF7CEFFFEF744FE002008BD003C024018
:102B6000034A1168034B1B780B441360704700BF86
:102B7000980C002000000020014B1868704700BF2F
:102B8000980C002038B50446FFF7F6FF0546B4F16F
:102B9000FF3F02D0044B1B781C44FFF7EDFF401BA6
:102BA000A042FAD338BD00BF0000002003689A6934
:102BB00012F0020F01D000229A6203689A6912F0A3
:102BC000010F03D19A6942F001029A61704710B473
:102BD000019CC1F3090141EA02411943214321F05B
:102BE000004102685368640D04F4806444F07F740B
:102BF00044F4583444F47F7444F0030423EA040397
:102C00000B4353605DF8044B70470000436B1C4A54
:102C1000934217D01B4A934214D011F4004F2AD18B
:102C2000002311F0010F01D043F0F20311F0020F65
:102C300001D043F0F40310291FD020290ED143F016
:102C400020030BE011F4004F03D110290BD0002317
:102C500000E0B823202908D0402909D001680A687B
:102C600013430B6070479023F4E743F06003F3E7EE
:102C700043F04003F2E7B823D3E743F09003DCE7E7
:102C8000593800083737000811F0010F09D090F8C3
:102C9000413003F02803282B01D0F22302E0422325
:102CA00000E0002311F0020F09D043F0440C90F82B
:102CB000412002F02802282A10D043F0F40311F436
:102CC000004F0DD110290ED020290FD0402910D04F
:102CD00001680A6822EA03030B6070476346EEE767
:102CE00043F0B803EEE743F09003EDE743F0200331
:102CF000ECE743F04003EBE7002857D010B504465B
:102D000090F84130002B41D0242384F841302268D0
:102D1000136823F0010313606368226823F0706373
:102D200013612268936823F400439360E368012BE6
:102D300031D0A368226843F404439360E368022B14
:102D40002FD0226851681A4B0B4353602268D36816
:102D500023F40043D360236962691343A1692268A5
:102D600043EA0123D360E369216A22680B431360BD
:102D70002268136843F0010313600020606420237D
:102D800084F84130206384F8420010BD80F8403060
:102D9000FEF7C2FAB8E7A368226843F400439360E1
:102DA000CCE723684FF400625A60CAE701207047FD
:102DB00000800002F0B583B004460E461F46089915
:102DC000BDF8243090F84100C0B220287AD1002B01
:102DD00018BF002949D02068856915F4004F75D1C6
:102DE00094F84050012D73D0012584F840502125DE
:102DF00084F84150402584F84250002565646162A2
:102E00006385344BE362344B6363E664638D9BB24A
:102E1000FF2B2FD9FF232385012F2ED0130A836286
:102E2000D2B22265A36B002B2DD02C4ADA63A36BA0
:102E30002B4ADA64A26B00231364A26B1365226829
:102E4000238D2832A06BFFF75DFC054648B3202395
:102E500084F84130002284F84220636C43F0100370
:102E6000636484F8402001252DE04FF4007363640F
:102E7000012528E0638D2385CEE7D2B282624FF030
:102E8000FF332365CEE7202384F84130002284F805
:102E90004220636C43F08003636484F84020012582
:102EA00011E0104B00934FF08073FAB23146204688
:102EB000FFF78DFE002384F8403001212046FFF704
:102EC000A5FE00E00225284603B0F0BD0225FAE782
:102ED0000225F8E70000FFFF953A0008DF390008F7
:102EE0009B39000800200080F0B583B004461F46DF
:102EF000089DBDF8243090F84100C0B220287BD155
:102F00000E46002B18BF002D4AD02168886910F4A6
:102F1000004F75D194F84000012873D0012084F847
:102F20004000222084F84100402084F84200002024
:102F3000606465626385344BE362344B6363E664CB
:102F4000638D9BB2FF2B30D9FF232385012F2FD018
:102F5000130A8B62D2B22265E36B002B2ED02C4A6F
:102F6000DA63E36B2B4ADA64E26B00231364E26BEF
:102F700013652168238D2A462431E06BFFF7C2FBDD
:102F8000054648B3202384F84130002284F84220CB
:102F9000636C43F01003636484F8402001252CE047
:102FA0004FF400736364012527E0638D2385CDE72B
:102FB000D2B28A624FF0FF332365CDE7202384F835
:102FC0004130002284F84220636C43F08003636444
:102FD00084F84020012510E00F4B00930023FAB243
:102FE00031462046FFF7F3FD002384F840300121ED
:102FF0002046FFF70BFE00E00225284603B0F0BD97
:103000000225FAE70225F8E70000FFFF953A0008DD
:10301000393A00089B3900080020008008B5036891
:1030200099691A68436B03B1984708BD70477047A8
:1030300038B50446002380F8423090F84130DBB2C6
:10304000212B0FD0202380F8413012230363002569
:1030500045630221FFF718FE84F840502046FFF731
:10306000E6FF38BD202380F841301123036300259B
:1030700045630121FFF708FE84F840502046FFF722
:10308000D5FFEEE77047704710B5044603681A682D
:10309000002180F8421012F4804F0ED01A6822F4FA
:1030A00080421A6094F84130DBB2292B0DD094F89D
:1030B0004130DBB22A2B18D010BD12F4004FF1D0F2
:1030C0001A6822F400421A60ECE7282384F84130A1
:1030D0002123236301212046FFF7D6FD002384F836
:1030E00040302046FFF7CEFFE6E7282384F8413042
:1030F0002223236302212046FFF7C6FD002384F824
:1031000040302046FFF7BFFFD6E77047F8B50446CA
:1031100090F8413003F02803282B06D003680822DA
:10312000DA61002380F84030F8BD03689E69C6F379
:1031300000469A69120C02F0FE059A68C2F3090271
:10314000DF6807F0FE07C168022922D185EAD2159F
:1031500015F0060F10D1816C01318164816C022958
:10316000E2D1002181640820D86184F84010314602
:103170002046FFF7CAFFD7E74FF40041FFF784FD71
:10318000002384F840303A4631462046FFF7BDFF21
:10319000CAE74FF40041FFF777FD002384F8403081
:1031A0002A4631462046FFF7B0FFBDE770470000D2
:1031B00010B50446174BC36200230363202280F836
:1031C000412080F84230436311F0040F13D00368AC
:1031D0005A6A436A1A70436A01334362038D53B1DA
:1031E000013B0385438D9BB2013B9BB24385436CFE
:1031F00043F00403436448F203012046FFF744FD13
:1032000023681022DA61002384F840302046FFF75B
:10321000CDFF10BD0000FFFF704708B590F84130AA
:10322000DBB2602B06D00023036380F84030FDF74B
:10323000E9FF08BD202380F841300023036380F8B4
:103240004030FFF7E9FFF4E710B5044690F841304D
:10325000002280F842203B48E0626285626C0A43AB
:103260006264283BDBB2022B2DD803212046FFF7F6
:103270000BFD282384F84130334B6363236BA26B2F
:10328000002A34D0212B18BF112B30D123681A68A3
:1032900012F4804F03D01A6822F480421A60A06BA7
:1032A000FFF76CFB01281ED0A36B284A1A65002388
:1032B00084F84030A06BFFF75FFA002840D0A06B85
:1032C000036D98473CE048F203012046FFF7DCFC21
:1032D00094F84130DBB2602B02D0202384F84130D7
:1032E00000236363CAE72046FFF797FF28E0E26BFD
:1032F0001AB3222B18BF122B1FD123681A6812F49D
:10330000004F03D01A6822F400421A60E06BFFF706
:1033100035FB01280DD0E36B0C4A1A65002384F8B5
:103320004030E06BFFF728FA50B1E06B036D98472F
:1033300006E02046FFF771FF02E02046FFF76DFF31
:1033400010BD00BF0000FFFFB9340008933C000827
:1033500070B504460D460268166890F84130DBB23D
:103360002021D161292B18BF212B5BD02A2B18BF1C
:10337000222B5ED02268536843F4004353602268D6
:10338000536823F0FF7323F48B3323F4FF7323F08C
:10339000010353602046FFF709FC16F4804F4FD01D
:1033A0002268136823F480431360A36B1BB11B686E
:1033B0005B689BB2638515F0040F11D025F00405FE
:1033C00023685A6A636A1A70636A01336362238DE1
:1033D00033B1013B2385638D9BB2013B9BB2638577
:1033E000638D9BB21BB1636C43F0040363640023E1
:1033F00084F842306363636C002B31D1E36A13F5C8
:10340000803F3BD194F84130DBB2222B46D02023C1
:1034100084F841300023236384F840302046FFF7CE
:1034200031FE3AE048F20101FFF72EFC212323632D
:10343000A0E748F20201FFF727FC2223236399E764
:1034400016F4004FB7D02268136823F400431360CA
:10345000E36B002BAFD01B685B689BB26385AAE768
:10346000616C2046FFF7F0FE94F84130DBB2282B68
:1034700013D129462046FFF79BFE0EE02046FFF7BA
:1034800003FE0C4BE362202384F8413000232363C6
:1034900084F840302046FFF789FE70BD202384F871
:1034A00041300023236384F840302046FFF7EBFDD2
:1034B000F3E700BF0000FFFFF8B5C76A90F840309F
:1034C000012B00F09F8004460D461646012380F82C
:1034D000403011F0200F02D012F0200F19D115F05A
:1034E000100F3FD016F0100F3CD0638D9BB243BB42
:1034F00094F84130DBB2282B0ED094F84130DBB287
:10350000292B11D023681022DA61002084F84000B2
:10351000F8BDFFF71DFFE2E7B7F1007FEDD12946C7
:103520002046FFF745FEF0E717F5803FEAD0236815
:103530001022DA612046FFF739FB2046FFF7A4FD91
:10354000E3E723681022DA61636C43F004036364E9
:10355000B7F1807F18BF002FD7D1616C2046FFF7ED
:1035600073FED2E715F0040F1FD016F0040F1CD025
:10357000638D9BB273B123685A6A636A1A70636A77
:1035800001336362238D013B2385638D9BB2013B35
:103590009BB26385638D9BB2002BB6D117F5803F3C
:1035A000B3D02046FFF770FDAFE715F0080F02D04B
:1035B00016F0080F18D115F0020FA6D016F0020F62
:1035C000A3D0638D9BB2A3B1626A236812789A621A
:1035D000636A01336362638D9BB2013B9BB2638577
:1035E000238D013B238590E729462046FFF78EFD7A
:1035F0008BE7002F18BFB7F1807F86D12046FFF7F9
:1036000043FD82E7022083E730B583B004460D46D0
:1036100003682022DA6190F84130DBB2212B33D0ED
:1036200090F84130DBB2222B34D02268536823F06B
:10363000FF7323F48B3323F4FF7323F001035360F0
:1036400000236363A3F58033E36215F0100F06D007
:1036500023681022DA61636C43F00403636494F816
:103660004130DBB2602B1BD02046FFF79FFA626C23
:1036700094F84130DBB2602B00D0D2B1616C2046AF
:10368000FFF7E2FD03B030BD0121FFF7FDFA112382
:103690002363CAE70221FFF7F7FA12232363C4E783
:1036A00015F0040FE0D023685B6ADBB20193019B45
:1036B000DAE794F84130DBB2212B17D094F841308F
:1036C000DBB2222BDED1202384F841300023236398
:1036D00094F84230DBB2402B24D0002384F84230EF
:1036E00084F840302046FFF7A2FCCBE7202384F883
:1036F00041300023236394F84230DBB2402B08D0E2
:10370000002384F8423084F840302046FFF78EFCD6
:10371000B8E7002384F8423084F840302046FDF7B3
:1037200035FCAFE7002384F8423084F8403020466F
:10373000FDF732FCA6E7F8B5C76A90F84030012BD8
:1037400000F0888004460D461646012380F840307C
:1037500011F0200F02D012F0200F12D115F0100F2F
:1037600069D016F0100F66D016F4404F5FD0E36BAF
:1037700053B116F4004208D01B685B6843B30022C3
:1037800003E0FFF7E5FDE9E70022A36B2BB116F498
:10379000804F02D01B685B68E3B1012A1AD023680E
:1037A0001022DA61636C43F00403636494F84130DF
:1037B000DBB2B7F1807F18BF002F42D1213B092B2C
:1037C0002DD8DFE803F02A312C2C2C2C2C2C2A317C
:1037D0000122DAE794F84130DBB2282B08D094F8C4
:1037E0004130DBB2292B0BD023681022DA6128E0AC
:1037F000B7F1007FF3D129462046FFF7D9FC20E03E
:1038000017F5803FF0D023681022DA612046FFF7D9
:10381000CDF92046FFF738FC13E021232363616CC8
:103820002046FFF711FD0CE022232363F7E723680E
:103830001022DA6105E015F0080F02D016F0080F2B
:1038400003D1002084F84000F8BD29462046FFF748
:103850005DFCF6E70220F7E790F84030012B00F01E
:103860009A8010B582B00446012380F8403011F0F0
:10387000100F02D012F0100F32D111F0800F60D073
:1038800012F0400F5DD02268136823F040031360EC
:10389000638D9BB2002B46D023685968C1F30901A0
:1038A000638D9BB2FF2B2DD9FF2323854FF08073AF
:1038B0000022009294F828202046FFF788F9638DB3
:1038C0009BB2228D9B1A9BB2638594F84130DBB288
:1038D000222B22D02268136843F4804313600CE04B
:1038E00003681022DA61436C43F00403436420212F
:1038F000FFF78CF92046FFF759F9002084F84000C3
:1039000002B010BD638D2385E36A13F5803F01D0BB
:10391000E36ACDE74FF00073CAE72268136843F407
:1039200000431360E9E723685B6813F0007F03D16D
:103930002046FFF77DFBE0E740212046FFF784FCAF
:10394000DBE711F0400F1CD012F0400F19D0638D4F
:103950009BB28BB923685A6812F0007FCDD1E26A1E
:1039600012F5803F04D15A6842F480425A60C4E79D
:103970002046FFF75DFBC0E740212046FFF764FCCF
:10398000BBE711F0200FB8D012F0200FB5D02046C1
:10399000FFF73AFEB1E70220704738B5846BA36B9E
:1039A0007BB11B685B6873B10025E36B1BB11B68BF
:1039B0005B6803B90125FEF7E4FF022800D025B9B2
:1039C00038BD0025F1E70125EFE72268536843F48D
:1039D0000043536010212046FFF736FCF0E710B596
:1039E000846B2268136823F480431360638D9BB259
:1039F000ABB1616A238D19446162638D9BB2FF2B69
:103A000012D9FF2323852268238D2832A06BFEF76D
:103A100079FE60B110212046FFF716FC10BD202171
:103A20002046FFF7F3F8F9E7638D2385EBE74021A4
:103A30002046FFF7EBF8F1E710B5846B22681368B6
:103A400023F400431360638D9BB2ABB1626A238D94
:103A50001A446262638D9BB2FF2B12D9FF23238528
:103A60002168238D2431E06BFEF74CFE60B11021FC
:103A70002046FFF7E9FB10BD20212046FFF7C6F8DE
:103A8000F9E7638D2385EBE740212046FFF7BEF879
:103A9000F1E7000090F84030012B00F0BE8010B537
:103AA00082B00446012380F8403011F0100F02D09C
:103AB00012F0100F10D111F0020F1BD012F0020FF4
:103AC00018D02368226D9A624FF0FF3323650020DF
:103AD00084F8400002B010BD03681022DA61436C24
:103AE00043F0040343642021FFF790F82046FFF7DA
:103AF0005DF8ECE711F0800F02D012F0400F2AD1F0
:103B000011F0400F7DD012F0400F7AD094F8413080
:103B1000DBB2222B60D04248638D9BB2FF2B5DD974
:103B2000FF222285E16C00904FF0807389B220461D
:103B3000FFF74DF8638D9BB2228D9B1A9BB2638574
:103B400094F84130DBB2222B55D02268136843F43D
:103B500080431360BBE710212046FFF757F8638DC1
:103B60009BB2002B33D0638D9BB2FF2B1BD9FF225E
:103B70002285E16C002300934FF0807389B22046C8
:103B8000FFF725F8638D9BB2228D9B1A9BB263854C
:103B900094F84130DBB2222B13D02268136843F42F
:103BA0008043136093E7628D92B22285E16C00231B
:103BB00000934FF00073D2B289B22046FFF707F8A6
:103BC000E0E72268136843F4004313607FE7402175
:103BD0002046FFF739FB7AE712489DE7628D92B2E3
:103BE0002285E16C00904FF00073D2B289B220467A
:103BF000FEF7EDFF9EE72268136843F4004313606D
:103C000065E711F0200F3FF462AF12F0200F3FF490
:103C10005EAF2046FFF7F8FC59E70220704700BF6F
:103C2000002000800024008010B5026893691168AC
:103C300013F4807F09D011F0800F06D0446C44F05B
:103C4000010444644FF48074D46113F4806F0AD08B
:103C500011F0800F07D0426C42F008024264026803
:103C60004FF48064D46113F4007F0AD011F0800F08
:103C700007D0436C43F00203436403684FF40072BF
:103C8000DA61416C11F00B0F00D110BDFFF7DCFAC7
:103C9000FBE708B5806B836B0BB100221A65C36B21
:103CA0000BB100221A65FFF7B8FA08BD406C7047E7
:103CB000034690F84120D2B2202A23D190F8402028
:103CC000012A21D0012280F84020242280F84120BE
:103CD0000068026822F0010202601868026822F49B
:103CE00080520260186802681143016019680A680E
:103CF00042F001020A60202283F84120002083F86C
:103D0000400070470220704702207047034690F839
:103D10004120D2B2202A21D190F84020012A1FD080
:103D2000012280F84020242280F8412000680268A7
:103D300022F0010202601868026822F4706242EA0E
:103D40000122026019680A6842F001020A6020221A
:103D500083F84120002083F840007047022070471C
:103D60000220704798B110B5044643795BB1022335
:103D700063712268136843F00403136001236371C5
:103D80000020A06010BD0371FDF76EFBEFE701207E
:103D9000704700286FD010B50446436A33B94368B2
:103DA000B3F5827F05D00023C36102E000230361E5
:103DB00043610023A36294F85D30002B52D00223AC
:103DC00084F85D302268136823F040031360E368D1
:103DD000B3F5E06F4CD90022B3F5706F18BFB3F59F
:103DE000E06F01D00023A362636803F48273A168CB
:103DF00001F404410B43216901F002010B436169A5
:103E000001F001010B43A16901F400710B43E16969
:103E100001F038010B43216A01F080010B43A16AD4
:103E200001F4005120680B430360638B03F004032B
:103E3000616A01F010010B43616B01F008010B4353
:103E4000E16801F470610B4321681A434A602268FB
:103E5000D36923F40063D36100202066012384F832
:103E60005D3010BD84F85C302046FDF797FBA6E777
:103E70004FF48052B0E701207047000070B4036A2D
:103E800023F001030362046A42688569124B2B40E8
:103E90000D681D4324F002048B6823430F4C104E21
:103EA000B04218BFA0420CBF0124002405D123F06A
:103EB0000803CE681E4326F004032CB122F440729E
:103EC0004C6914438A692243426085614A684263AF
:103ED000036270BC704700BF8CFFFEFF0000014012
:103EE0000004014070B4036A23F480730362036A20
:103EF0004268C569144C2C400E68264323F40073B5
:103F00008C6843EA0423114C114DA84218BFA0420B
:103F10000CBF0124002406D123F40063CD6843EADA
:103F2000052323F480633CB122F440524C6942EAF9
:103F300004128C6942EA04124260C6614A68C26394
:103F4000036270BC704700BF8CFFFEFF00000140A1
:103F50000004014070B4036A23F480530362036ACF
:103F60004468C5690D4A2A400D6842EA052223F4D7
:103F700000538D6843EA0533094E0A4DA84218BF25
:103F8000B04204D124F480444D6944EA851444606D
:103F9000C2614A680264036270BC7047FF8CFFFE16
:103FA000000001400004014070B4036A23F4803330
:103FB0000362036A4468426D0D4D15400A682A4346
:103FC00023F400338D6843EA05430A4E0A4DA842A4
:103FD00018BFB04204D124F480344D6944EA05246A
:103FE000446042654A688265036270BC704700BFE6
:103FF0008FFFFEFF000001400004014070B4036A1F
:1040000023F480130362036A4468456D0D4A2A4015
:104010000D6842EA052223F400138D6843EA055334
:10402000094E0A4DA84218BFB04204D124F480249E
:104030004D6944EA8524446042654A68C26503626A
:1040400070BC7047FF8FFFFE00000140000401407C
:1040500010B4036A046A24F001040462846924F041
:10406000F00C4CEA021223F00A030B438261036254
:104070005DF8044B704710B4036A23F01003036229
:104080008469036A24F4704C4CEA023223F0A003E2
:1040900043EA0113826103625DF8044B7047836851
:1040A00023F070030B4343F0070383607047000065
:1040B00090F83D30DBB2012B3AD1022380F83D303D
:1040C0000268D36843F00103D36003681A4AB3F16E
:1040D000804F18BF93421DD0A2F57C42934219D065
:1040E00002F58062934215D002F58062934211D0AE
:1040F00002F5784293420DD002F57052934209D0F6
:10410000A2F59432934205D01A6842F001021A6077
:10411000002070479968094A0A40062A18BFB2F57C
:10412000803F07D01A6842F001021A6000207047F1
:104130000120704700207047000001400700010087
:1041400070477047704710B5044603681A6912F04B
:10415000020F11D0DA6812F0020F0DD06FF00202D8
:104160001A610123037703689B6913F0030F79D069
:10417000FFF7E6FF0023237723681A6912F0040F84
:1041800012D0DA6812F0040F0ED06FF004021A6138
:104190000223237723689B6913F4407F68D020466D
:1041A000FFF7CEFF0023237723681A6912F0080F68
:1041B00012D0DA6812F0080F0ED06FF008021A6100
:1041C000042323772368DB6913F0030F57D02046BD
:1041D000FFF7B6FF0023237723681A6912F0100F48
:1041E00012D0DA6812F0100F0ED06FF010021A61C0
:1041F000082323772368DB6913F4407F46D02046E9
:10420000FFF79EFF0023237723681A6912F0010F3E
:1042100003D0DA6812F0010F3FD123681A6912F057
:10422000800F03D0DA6812F0800F3DD123681A693D
:1042300012F4807F03D0DA6812F0800F3BD123683C
:104240001A6912F0400F03D0DA6812F0400F39D12A
:1042500023681A6912F0200F03D0DA6812F0200FD9
:1042600037D110BDFCF7AEFE2046FFF76AFF81E7AD
:104270002046FCF7A7FE2046FFF763FF92E72046A3
:10428000FCF7A0FE2046FFF75CFFA3E72046FCF703
:1042900099FE2046FFF755FFB4E76FF001021A615F
:1042A0002046FCF77FFEB8E76FF080021A612046D7
:1042B00000F08BFBBAE76FF480721A61204600F0C1
:1042C00085FBBCE76FF040021A612046FFF73AFF1A
:1042D000BEE76FF020021A61204600F075FBC0E7D0
:1042E00030B503683B4A904214BF4FF0000E4FF0C8
:1042F000010EB0F1804F14BF72464EF00102AAB910
:10430000354CA04214BF00240124344DA8420DD0E6
:1043100064B904F1804404F58234A04214BF00243F
:10432000012405F50065A84200D01CB123F07003FC
:104330004C682343002A33D1274A904214BF0022FD
:104340000122264CA0422BD052BB02F1804202F542
:104350008232904214BF0022012204F50064A04280
:104360001ED0EAB91E4A904214BF0022012204F571
:104370009A34A04214D09AB91A4A904214BF00222B
:10438000012204F50064A0420AD04AB9164A9042BC
:1043900014BF00220122A4F59634A04200D022B11D
:1043A00023F4407CCB6843EA0C0323F080034A6982
:1043B000134303608A68C2620A6882620B4A9042B1
:1043C00014BF73464EF001030BB10B690363012365
:1043D000436130BD0000014000080040000400407F
:1043E000004401400018004000200040000401404B
:1043F00060B310B5044690F83D3013B3022384F83F
:104400003D30214651F8040BFFF76AFF012384F881
:10441000483084F83E3084F83F3084F8403084F8E7
:10442000413084F8423084F8433084F8443084F8D2
:10443000453084F8463084F8473084F83D30002019
:1044400010BD80F83C3002F055FDD7E701207047E1
:1044500060B310B5044690F83D3013B3022384F8DE
:104460003D30214651F8040BFFF73AFF012384F851
:10447000483084F83E3084F83F3084F8403084F887
:10448000413084F8423084F8433084F8443084F872
:10449000453084F8463084F8473084F83D300020B9
:1044A00010BD80F83C3002F0FDFCD7E701207047DA
:1044B00070B4036A23F010030362036A42688569DB
:1044C000144C2C400D6844EA052523F020038C6829
:1044D00043EA0413104C114EB04218BFA0420CBF67
:1044E0000124002406D123F08003CE6843EA06139A
:1044F00023F040033CB122F440624C6942EA84025A
:104500008C6942EA8402426085614A688263036280
:1045100070BC7047FF8CFFFE0000014000040140AA
:1045200090F83C30012B36D010B50446012380F8BA
:104530003C30142A2AD8DFE802F00B292929102957
:104540002929152929291A2929291F292929240036
:104550000068FFF793FC002019E00068FFF7A8FF50
:10456000002014E00068FFF7BDFC00200FE00068A9
:10457000FFF7F0FC00200AE00068FFF715FD0020BF
:1045800005E00068FFF73AFD002000E0012000236D
:1045900084F83C3010BD0220704710B4846824F4C5
:1045A0007F4C42EA03220A4342EA0C0282605DF831
:1045B000044B704790F83C30012B76D010B5044680
:1045C000012380F83C30022380F83D300268906877
:1045D000374B034093600B68602B4CD029D8402B9D
:1045E00054D00CD9502B22D1CA6849682068FFF7F3
:1045F0002FFD50212068FFF752FD002005E0202B01
:104600000DD009D9302B0AD00120012384F83D3088
:10461000002384F83C3010BD0BB1102B05D1194696
:104620002068FFF73CFD0020EFE70120EDE70120C7
:10463000EBE7B3F5805F34D0B3F5005F0CD1CB6806
:104640004A6889682068FFF7A8FF2268936843F4E6
:10465000804393600020D8E7702B24D1CB684A6850
:1046600089682068FFF799FF2268936843F0770311
:1046700093600020C9E7CA6849682068FFF7FBFC1F
:1046800060212068FFF70BFD0020BEE7CA6849687B
:104690002068FFF7DDFC40212068FFF700FD0020C7
:1046A000B3E70020B1E70120AFE70220704700BF69
:1046B0008800FEFF01F01F014FF0010C0CFA01FC15
:1046C000036A23EA0C030362036A8A40134303620A
:1046D0007047000010B5044610293DD8DFE801F00E
:1046E000093C3C3C203C3C3C273C3C3C2E3C3C3C7C
:1046F000350090F83E30DBB2013B18BF0123002BA0
:1047000040F0BE80102900F28A80DFE801F02C889A
:10471000888868888888718888887A8888888300EB
:1047200090F83F30DBB2013B18BF0123E7E790F878
:104730004030DBB2013B18BF0123E0E790F8413085
:10474000DBB2013B18BF0123D9E790F84230DBB25E
:10475000013B18BF0123D2E790F84330DBB2013BA5
:1047600018BF0123CBE7022384F83E302268D368C8
:1047700043F00203D36001222068FFF79BFF236808
:104780004249434A934218BF8B4203D15A6C42F4C8
:1047900000425A6423683D4AB3F1804F18BF9342E8
:1047A00060D0A2F57C4293425CD002F580629342D5
:1047B00058D002F58062934254D002F57842934279
:1047C00050D002F5705293424CD0A2F594329342ED
:1047D00048D01A6842F001021A60002051E002231A
:1047E00084F83F302268D36843F00403D360C2E703
:1047F000022384F840302268D36843F00803D36072
:10480000B9E7022384F841302268D36843F01003EB
:10481000D360B0E7022384F84230012031E0022364
:1048200084F843300C292DD801A353F821F000BFA0
:104830006D4700088548000885480008854800083D
:10484000E5470008854800088548000885480008B5
:10485000F747000885480008854800088548000893
:104860000948000899680B4A0A40062A18BFB2F5A1
:10487000803F09D01A6842F001021A60002000E06F
:10488000012010BD0120FCE70020FAE700000140F4
:10489000000401400700010090F83C20012A45D0A7
:1048A00070B40346012280F83C20022280F83D20AB
:1048B0000268506894681E4E1E4DAA4218BFB2424C
:1048C00003D120F470004D68284320F070000D687B
:1048D000284350601A681648B2F1804F18BF8242D0
:1048E00017D0A0F57C40824213D000F58060824250
:1048F0000FD000F5806082420BD000F578408242F4
:1049000007D000F57050824203D0A0F59430824267
:1049100004D124F08004896821439160012283F846
:104920003D20002083F83C0070BC70470220704797
:10493000000001400004014090F83C30012B3CD0C5
:1049400030B40246012380F83C30CB6823F4407336
:104950008868034323F480634868034323F40063B7
:104960000868034323F480530869034323F4005386
:104970004869034323F48043886A034323F4702384
:10498000886943EA004310680D4D0E4CA04218BFE1
:10499000A8420CD123F470034C6A43EA045323F079
:1049A0008073CC69234323F00073096A0B4343648B
:1049B000002082F83C0030BC70470220704700BFE6
:1049C000000001400004014070477047704700003C
:1049D000034AD2F8883043F47003C2F88830704735
:1049E00000ED00E02DE9F04383B0D0F8008001EB4A
:1049F000C10300EB8303DA6D5B6D9A4254D807461E
:104A00000C469B1A01EBC10200EB8202926C9A42A7
:104A100000D31A4602F103094FEA990915E006F19D
:104A200003094FEA990904EBC40507EB8505E96C16
:104A30003B7C0093B3B2E2B2404601F090FAEB6CDB
:104A40003344EB64EB6D3344EB6508EB441303F53F
:104A500010639B699BB24B4512D304EBC40307EB75
:104A60008303DA6D5B6D9A420AD24BB19B1A04EB59
:104A7000C40207EB8202966C9E42D0D31E46CEE75C
:104A800004EBC40307EB83077A6DFB6D9A420FD8E2
:104A900004F00F040122A240D8F8343823EA0203BC
:104AA000C8F83438002000E0012003B0BDE8F083EE
:104AB0000020FAE770B58AB0002800F0978005461C
:104AC000046890F8BD343BB3032385F8BD34E36B31
:104AD00013F4807F01D100232B61286800F056FF7A
:104AE0002C4654F8106BEC460FCCACE80F000FCC02
:104AF000ACE80F0094E803008CE803002B1D0ECBFC
:104B0000304600F061FE044658B1022385F8BD34FA
:104B1000012420460AB070BD80F8BC3402F056FA79
:104B2000D2E70021286801F026FC234616E003EBBB
:104B3000C30205EB8202012182F83D1082F83C306D
:104B4000A2F84430002182F840109164D16403EB54
:104B5000C30205EB820251650133DBB269688B4207
:104B6000E5D316E004EBC40305EB8303002283F8CE
:104B70007D2283F87C4283F88022C3F88822C3F820
:104B80008C2204EBC40305EB8303C3F894220134A5
:104B9000E4B2A142E6D82C4654F8106BEC460FCC98
:104BA000ACE80F000FCCACE80F0094E803008CE8F1
:104BB00003002B1D0ECB304600F044FF044660B9C5
:104BC000002385F83830012385F8BD346B6A012B4A
:104BD00008D0286801F08EFB9BE7022385F8BD34DE
:104BE000012496E7284600F083FDF2E7012490E7D0
:104BF00090F8BC34012B0ED010B50446012380F888
:104C0000BC34006800F0BCFE206801F065FB0020A9
:104C100084F8BC0410BD02207047000070B5044643
:104C20000D460068066C00EB411303F530639A688B
:104C30002169012911D038498E4256D03DB905EB82
:104C4000C50304EB8303D3F89432002B5ED0E9B2A2
:104C5000204603F0DFFA002070BD12F0080F09D0E3
:104C60002E498E42F7D912F4004FF4D04FF400428F
:104C70009A60F0E712F0200F02D020229A60EAE753
:104C800012F0280FE7D125498E4206D912F4004FC1
:104C900003D04FF400429A60DDE705EBC50204EB58
:104CA0008202D2F898121B69C3F31203CB1AC2F81E
:104CB0009C327DB905EBC50204EB8202D2F8942246
:104CC0006AB105EBC50204EB8202D2F88C121944DA
:104CD000C2F88C12E9B2204603F09CFABBE704F25A
:104CE000C442012101F088FBF4E712F4004F03D025
:104CF0004FF400429A60AEE712F0200F01D020225C
:104D00009A60E9B2204603F085FAA4E704F2C442AF
:104D1000002101F071FB9AE70A31544F0A30544FD9
:104D200038B5044603681D6C03EB4113D3F8081B28
:104D30000E4A954207D903F5306311F4004F02D0B3
:104D40004FF400429A60204603F05CFA074B9D4204
:104D500002D92369012B01D0002038BD04F2C442DE
:104D60000121206801F048FBF6E700BF0A30544FEC
:104D700090F8BC34012B0DD010B50446012380F807
:104D8000BC3480F83810006801F096FA002084F8EE
:104D9000BC0410BD0220704738B505468C4611F0A2
:104DA000800F29D101F00F0E0EEBCE04A40004F504
:104DB0001E740444211D0EEBCE0E00EB8E0E00205F
:104DC0008EF87D020CF00F0C81F800C0CA600B71E8
:104DD0004A780AB1A1F808C0022B1DD095F8BC345E
:104DE000012B1CD0012385F8BC34286800F00CFF8F
:104DF000002085F8BC0438BD01F00F0000EBC001B5
:104E0000890038312944043100EBC00005EB8000F3
:104E1000012480F83D40D5E700234B71DEE70220F6
:104E2000E9E710B504460A4611F0800F20D101F0E1
:104E30000F0000EBC0039B0003F51E732344191DF4
:104E400000EBC00004EB8000002380F87D3202F00C
:104E50000F020A7094F8BC34012B19D0012384F896
:104E6000BC34206800F01CFF002084F8BC0410BD96
:104E700001F00F0000EBC0039B0038332344191DE1
:104E800000EBC00004EB8000012380F83D30DEE73A
:104E90000220ECE710B501F00F0404EBC401890017
:104EA00001F51E710144043104EBC40C00EB8C0CC1
:104EB000CCF88C22CCF894320023CCF89C328CF8BD
:104EC0007D328CF87C420369012B06D064B9DAB2DA
:104ED000006800F055FF002010BD04EBC40C00EB8F
:104EE0008C0CCCF89022F1E7DAB2006801F04EF8B1
:104EF000F1E701F00F0101EBC10100EB8100D0F8F7
:104F00009C02704710B501F00F0404EBC401890046
:104F100038310144043104EBC40C00EB8C0CCCF8A8
:104F20004C20CCF854300023CCF85C3001238CF8B2
:104F30003D308CF83C400369012B06D064B9DAB2ED
:104F4000006800F01DFF002010BD04EBC40C00EB56
:104F50008C0CCCF85020F1E7DAB2006801F016F8BA
:104F6000F1E738B501F00F054268954239D804469B
:104F70000B4611F0800F1FD101EBC101890001F533
:104F80001E710144043103EBC30300EB83030022D1
:104F900083F87D2201238B700D7094F8BC34012BB3
:104FA00021D0012384F8BC34206801F02AF98DB1A6
:104FB000002084F8BC0438BD05EBC50189003831F8
:104FC0000144043105EBC50300EB8303012283F8A0
:104FD0003D20DFE704F2C442217C206801F00CFA96
:104FE000E6E70120E7E70220E5E701F00F0342686A
:104FF000934231D810B5044611F0800F1ED103EB57
:10500000C301890001F51E710144043103EBC302A1
:1050100000EB8202002082F87D0200228A700B7071
:1050200094F8BC34012B19D0012384F8BC342068D7
:1050300001F014F9002084F8BC0410BD03EBC30197
:10504000890038310144043103EBC30200EB8202D2
:10505000012082F83D00E0E7012070470220ECE7E4
:1050600008B511F0800F0CD101F00F0101EBC10167
:10507000890001F51E7101440431006800F010FF41
:1050800008BD01F00F0101EBC10189003831014475
:105090000431F2E72DE9F04F83B004460568284655
:1050A00001F065F910B103B0BDE8F08F0646206845
:1050B00001F02EF90028F6D005F50067BB68C3F3B0
:1050C0000D23C4F8FC34206801F022F910F0020F1F
:1050D00004D02268536903F002035361206801F091
:1050E00017F910F0100F14D02268936923F0100301
:1050F0009361D5F8208008F00F09C8F34343022BD1
:1051000069D0062B00F08D802268936943F010036C
:105110009361206801F0FCF810F4002F40F09380B8
:10512000206801F0F5F810F4802F40F0FC80206832
:1051300001F0EEF80028C0F27F81206801F0E8F865
:1051400010F4006F09D0BB6813F0010F40F08C81A0
:105150002268536903F400635361206801F0D8F8B2
:1051600010F0006F15D02268536903F0006353619B
:1051700094F8F434002B40F07B81012184F8F4147E
:1051800023685B6DC3F38303C4F8F834204600F052
:10519000C3FA206801F0BCF810F4805F40F06C8125
:1051A000206801F0B5F810F4005F40F0B881206885
:1051B00001F0AEF810F0080F40F0C981206801F04E
:1051C000A7F810F0800F00F0DC81AB6923F08003BA
:1051D000AB610126C5E147F6F07318EA030F93D0DF
:1051E0004FEA181A4FEAC903019309EBC90B04EB04
:1051F0008B0BC8F30A12DBF88C12284600F0DEFF96
:10520000DBF88C32CAF30A0A5344CBF88C32DBF851
:105210009C32019A4A4404EB82025344C2F89C3205
:1052200072E7082204F2C441284600F0C7FF09EBE8
:10523000C90304EB8303D3F89C22C8F30A18424441
:10524000C3F89C2260E7206801F066F88046B1460A
:1052500035E005EB49130122C3F8082B49462046E7
:10526000FFF7DCFC3CE005EB49130822C3F8082BF0
:1052700049462046FFF754FD35E009EBC90304EB2E
:10528000830393F87F32012B41D005EB49130222AF
:10529000C3F8082B1AF0200F04D005EB4913202285
:1052A000C3F8082B1AF4005F05D005EB49134FF43F
:1052B0000052C3F8082B09F101094FEA5808B8F168
:1052C000000F3FF42DAF18F0010FF4D05FFA89FB07
:1052D0005946206801F030F8824610F0010FB8D12D
:1052E0001AF0080FBFD11AF0100F04D005EB4913C4
:1052F0001022C3F8082B1AF0020FCBD06B6913F001
:10530000800FBAD07B6843F480637B60B5E709EB1C
:10531000C90304EB8303002283F87F225946204609
:1053200002F0CAFFB1E7206800F0FEFF8046B146F8
:1053300025E05946204602F079FF1AF0080F04D004
:1053400005EB49130822C3F808291AF0100F04D0FE
:1053500005EB49131022C3F808291AF0400F04D0B6
:1053600005EB49134022C3F808291AF0020F40D177
:105370001AF0800F5BD109F101094FEA5808B8F122
:10538000000F3FF4D4AE18F0010FF4D05FFA89FBA0
:105390005946206800F0D9FF824610F0010FCCD0AA
:1053A00009F00F02012101FA02F27B6B23EA0203EA
:1053B0007B6305EB4913C3F8081923698B42B8D105
:1053C00009EBC90304EB8303DA6C996C0A44DA64D1
:1053D000B9F1000FADD109EBC90304EB83035B6D99
:1053E000002BA6D104F2C4420121206801F004F888
:1053F0009FE74946284600F0CFFA09EBC90304EBC2
:10540000830393F83F30012B05D005EB49130222AB
:10541000C3F80829ACE709EBC90304EB83030022B6
:1054200083F83F205946204602F04CFFEDE74946FD
:105430002046FFF7D7FA9EE77B6823F001037B60E5
:1054400094F8F434012B08D0204602F02FFF226894
:10545000536903F0004353616FE6002184F8F414AC
:10546000204600F059F9F2E7204602F007FF6FE608
:10547000204602F003FF8CE67B6823F001037B608B
:105480001021206800F088FA1AE005EB46134FF669
:105490007F31C3F80819D3F8002922F40012C3F8A9
:1054A0000029C3F8081BD3F8002B22F40012C3F81C
:1054B000002BD3F8002B42F00062C3F8002B01361A
:1054C0006368B342E1D8FB6943F00113FB61236BCE
:1054D000DBB1D7F8843043F00B03C7F884307B6C22
:1054E00043F00B037B64D5F8003823F4FE63C5F862
:1054F000003804F2C442217C206800F07DFF22685D
:10550000536903F4805353614AE67A6942F22B03EC
:1055100013437B613B6943F00B033B61E3E7206886
:1055200000F05AFF206800F05FFBE0602668FCF79F
:1055300093FC0146227B304600F0B0F9204602F091
:1055400086FE2268536903F4005353612FE6204618
:1055500002F077FE2268536903F0080353612DE6D9
:1055600001366368B3420CD906EBC60304EB830330
:1055700093F87F32012BF3D1F1B22046FFF770FD93
:10558000EEE7206800F0C4FE10F4801F27D12068E9
:1055900000F0BEFE10F4001F5BD0012328E00136AE
:1055A0006368B3421DD905EB4613D3F8002906EB17
:1055B000C60304EB830393F84030012BEFD1002A9C
:1055C000EDDA06EBC60304EB8303012283F83F20E8
:1055D00066F07F01C9B22046FFF742FDDFE70126F2
:1055E000DEE72268536903F480135361CFE7013388
:1055F00062689A4228D905EB4312D2F8001B03EBEC
:10560000C30204EB820292F88022012AEFD1002922
:10561000EDDA01F48031D4F8FC2402F00102914269
:10562000E5D103EBC30204EB8202012182F87F1271
:10563000AA6942F08002AA616A6912F0800FD6D18D
:105640007B6843F400737B602268536903F40013A2
:105650005361206800F05CFE10F0804F10D120688C
:1056600000F056FE10F0040F3FF41DAD23685D6896
:1056700015F0040F0DD1226853682B43536012E5D7
:10568000204602F025FE2268536903F080435361EF
:10569000E5E7204602F022FEEDE710B40468606AF8
:1056A00031B940EA0240A06200205DF8044B704727
:1056B0008C46A36A00EB1340002308E003F140018D
:1056C00004EB8101496800EB11400133DBB20CF1BE
:1056D000FF318B42F2D340EA02400CF13F0104EB70
:1056E00081046060E0E703685962002070470000B1
:1056F000034602680121C0F80015002083F8F40475
:10570000936943F000639361516D024B0B43536502
:10571000704700BF030000107047000082B00023F4
:105720000193019B01330193019A0F4B9A4215D8C3
:105730000369002BF5DA00230193036943F00103A9
:105740000361019B01330193019A074B9A4208D8E8
:10575000036913F0010FF4D1002000E0032002B030
:1057600070470320FBE700BF400D030000B583B086
:1057700000230193124A936943F004039361104B91
:105780009B6913F0020F08D1019B01330193019A29
:105790000C4B9A42F3D903200FE0094B0A221A60FE
:1057A000D96840F613720A43DA601A6842F00102BF
:1057B0001A600220FDF7E6F9002003B05DF804FB53
:1057C000007C0140400D030084B010B5044603A8DE
:1057D00080E80E00089B012B13D0032B2DD0E3682B
:1057E00043F04003E3602046FFF798FFA36B43F4C8
:1057F0008033A363069B012B43D0BDE8104004B067
:105800007047A36B23F48033A363E268224B1340F9
:10581000E360E36843F01003E360E36823F44013BC
:10582000E3600F9B012B03D02046FFF777FFE1E7F2
:10583000E36843F48013E360F6E7A36B23F480335B
:10584000A363E268144B1340E360E36823F440135E
:10585000E360E36823F01003E360A36B43F4000309
:10586000A3632046FFF782FFA0B90F9B012B03D053
:105870002046FFF753FFBDE7E36843F48013E3607E
:10588000F6E7A36843F00603A360A36843F0200390
:10589000A360B2E70120B0E7BFFFBDFF022A0AD034
:1058A0000922C36823F47053C360C36843EA8223A8
:1058B000C36000207047204B0B44204A934229D9F3
:1058C0001F4B0B441F4A934226D91F4B0B441F4AC0
:1058D000934223D91E4B0B441E4A934220D31E4BA6
:1058E0000B441E4A93421DD91D4B0B441D4A934243
:1058F0001AD31D4B0B441D4A934217D31C4B0B4428
:105900001C4A934214D31C4B0B441C4A934211D2A1
:105910000722C6E70F22C4E70E22C2E70D22C0E726
:105920000C22BEE70B22BCE70A22BAE70922B8E73D
:105930000822B6E70622B4E7405327FFFF340C00E5
:10594000401E1BFF3F420F0000DC0BFF7F4F120089
:10595000808CF9FE20D6130060B6E5FE5FE31600EA
:1059600000D3CEFE40771B00C05BB3FEC091210088
:1059700000CA91FE20753800E05459FEE09C4100B9
:10598000836843F00103836000207047836823F03D
:10599000010383600020704782B000230193019BC4
:1059A00001330193019A0F4B9A4215D80369002BDA
:1059B000F5DA00230193890141F020010161019B87
:1059C00001330193019A074B9A4208D8036913F0F7
:1059D000200FF4D1002000E0032002B07047032024
:1059E000FBE700BF400D030082B000230193019B41
:1059F00001330193019A0E4B9A4213D80369002B8D
:105A0000F5DA0023019310230361019B0133019315
:105A1000019A074B9A4208D8036913F0100FF4D18A
:105A2000002000E0032002B070470320FBE700BF26
:105A3000400D0300D0F800381943C0F800180020CA
:105A40007047000084B02DE9F041044607A880E8C3
:105A50000E00002306E003F1400204EB8202002165
:105A6000516001330E2BF6D9119F37BBD4F804389F
:105A700043F00203C4F80438A36B23F40013A363B8
:105A8000236843F040032360236843F080032360CE
:105A90000023C4F8003E04F50065D4F80038C4F8CB
:105AA00000380C9B012B0DD0032B1CD1099BABB9EB
:105AB00000212046FFF7BEFF19E0A36B43F400135B
:105AC000A363E5E7099B23B900212046FFF7B2FF56
:105AD0000DE001212046FFF7ADFF08E0012120463F
