:020000040800F2
:1000000000000420119B0008311800083518000872
:100010007118000873180008751800080000000027
:100020000000000000000000000000007718000839
:1000300079180008000000007B1800087D180008EF
:10004000619B0008619B0008619B0008619B0008A0
:10005000619B0008619B0008619B0008619B000890
:10006000619B0008619B0008619B000885180008DF
:10007000619B0008619B0008619B0008619B000870
:10008000619B000895180008619B0008619B0008AF
:10009000619B0008619B0008619B0008619B000850
:1000A000619B0008A5180008619B0008B5180008AE
:1000B000619B0008619B0008619B0008C51800084F
:1000C000D5180008619B0008619B0008619B00082F
:1000D000619B0008619B0008619B0008619B000810
:1000E000619B0008619B0008619B0008619B000800
:1000F000619B0008619B0008E5180008619B0008EF
:10010000619B0008619B0008619B0008619B0008DF
:10011000619B0008619B0008F5180008051900089C
:10012000619B0008619B0008619B0008619B0008BF
:10013000619B0008000000000000000000000000BB
:10014000000000000000000000000000619B0008AB
:10015000619B0008619B0008619B0008619B00088F
:10016000619B0008619B0008619B0008619B00087F
:10017000619B000815190008000000000000000045
:10018000619B0008619B0008619B0008619B00085F
:10019000619B0008619B000800000000619B000853
:1001A000000000000000000000000000619B00084B
:1001B000619B0008619B0008000000000000000037
:1001C000000000000000000000000000000000002F
:1001D000000000000000000000000000619B00081B
:1001E00010B5054C237833B9044B13B10448AFF371
:1001F00000800123237010BDB8040020000000001F
:100200003CD5000808B5034B1BB103490348AFF3C5
:10021000008008BD00000000BC0400203CD50008A0
:1002200001F0FF01102A2BDB10F0070F08D010F8A7
:10023000013B013A8B422DD010F0070F42B3F6D1AB
:10024000F0B441EA012141EA014122F007047FF0C4
:1002500000070023F0E80256083C85EA010586EA1B
:10026000010685FA47F5A3FA87F586FA47F6A5FA57
:1002700087F68EB9EED1F0BC01F0FF0102F0070263
:1002800032B110F8013B013A83EA010313B1F8D10E
:100290000020704701387047002D06BF35460338EF
:1002A000073815F0010F07D1013015F4807F02BF28
:1002B000013015F4C03F0130F0BC0138704700BF79
:1002C000034613F8012B002AFBD1181A0138704796
:1002D00081F0004102E000BF83F0004330B54FEAF7
:1002E00041044FEA430594EA050F08BF90EA020F64
:1002F0001FBF54EA000C55EA020C7FEA645C7FEAF7
:10030000655C00F0E2804FEA5454D4EB5555B8BF19
:100310006D420CDD2C4480EA020281EA030382EA8A
:10032000000083EA010180EA020281EA0303362D1C
:1003300088BF30BD11F0004F4FEA01314FF4801CEF
:100340004CEA113102D0404261EB410113F0004F01
:100350004FEA03334CEA133302D0524263EB4303B8
:1003600094EA050F00F0A780A4F10104D5F1200E56
:100370000DDB02FA0EFC22FA05F2801841F10001B1
:1003800003FA0EF2801843FA05F359410EE0A5F185
:1003900020050EF1200E012A03FA0EFC28BF4CF0B6
:1003A000020C43FA05F3C01851EBE37101F000456C
:1003B00007D54FF0000EDCF1000C7EEB00006EEB79
:1003C0000101B1F5801F1BD3B1F5001F0CD3490803
:1003D0005FEA30004FEA3C0C04F101044FEA44525A
:1003E00012F5800F80F09A80BCF1004F08BF5FEAE1
:1003F000500C50F1000041EB045141EA050130BDC1
:100400005FEA4C0C404141EB0101013C28BFB1F5D2
:10041000801FE9D291F0000F04BF01460020B1FA1D
:1004200081F308BF2033A3F10B03B3F120020CDAF0
:100430000C3208DD02F1140CC2F10C0201FA0CF0CE
:1004400021FA02F10CE002F11402D8BFC2F1200C33
:1004500001FA02F120FA0CFCDCBF41EA0C019040E9
:10046000E41AA2BF01EB0451294330BD6FEA040432
:100470001F3C1CDA0C340EDC04F11404C4F120021D
:1004800020FA04F001FA02F340EA030021FA04F32F
:1004900045EA030130BDC4F10C04C4F1200220FA86
:1004A00002F001FA04F340EA0300294630BD21FAC4
:1004B00004F0294630BD94F0000F83F4801306BF8A
:1004C00081F480110134013D4EE77FEA645C18BF7E
:1004D0007FEA655C29D094EA050F08BF90EA020F15
:1004E00005D054EA000C04BF1946104630BD91EA0D
:1004F000030F1EBF0021002030BD5FEA545C05D110
:100500004000494128BF41F0004130BD14F580044E
:100510003CBF01F5801130BD01F0004545F0FE41C2
:1005200041F470014FF0000030BD7FEA645C1ABFF7
:10053000194610467FEA655C1CBF0B46024650EA2E
:10054000013406BF52EA033591EA030F41F400215A
:1005500030BD00BF90F0000F04BF0021704730B5E0
:100560004FF4806404F132044FF000054FF00001B5
:1005700050E700BF90F0000F04BF0021704730B576
:100580004FF4806404F1320410F0004548BF40424B
:100590004FF000013EE700BF42004FEAE2014FEAA0
:1005A00031014FEA02701FBF12F07F4393F07F4F7B
:1005B00081F06051704732F07F4208BF704793F07E
:1005C0007F4F04BF41F40021704730B54FF4607491
:1005D00001F0004521F000411CE700BF50EA010294
:1005E00008BF704730B54FF000050AE050EA01023D
:1005F00008BF704730B511F0004502D5404261EBAD
:1006000041014FF4806404F132045FEA915C3FF4ED
:10061000D8AE4FF003025FEADC0C18BF03325FEA8A
:10062000DC0C18BF033202EBDC02C2F1200300FA3B
:1006300003FC20FA02F001FA03FE40EA0E0021FA60
:1006400002F11444BDE600BF70B54FF0FF0C4CF44E
:10065000E06C1CEA11541DBF1CEA135594EA0C0F00
:1006600095EA0C0F00F0DEF82C4481EA030621EA3B
:100670004C5123EA4C5350EA013518BF52EA033576
:1006800041F4801143F4801338D0A0FB02CE4FF028
:100690000005E1FB02E506F00042E0FB03E54FF058
:1006A0000006E1FB03569CF0000F18BF4EF0010E50
:1006B000A4F1FF04B6F5007F64F5407404D25FEA4C
:1006C0004E0E6D4146EB060642EAC62141EA5551FF
:1006D0004FEAC52040EA5E504FEACE2EB4F1FD0C41
:1006E00088BFBCF5E06F1ED8BEF1004F08BF5FEABF
:1006F000500E50F1000041EB045170BD06F0004671
:1007000046EA010140EA020081EA0301B4EB5C041D
:10071000C2BFD4EB0C0541EA045170BD41F4801115
:100720004FF0000E013C00F3AB8014F1360FDEBF3A
:10073000002001F0004170BDC4F10004203C35DA16
:100740000C341BDC04F11404C4F1200500FA05F399
:1007500020FA04F001FA05F240EA020001F000423A
:1007600021F0004110EBD37021FA04F642EB0601B0
:100770005EEA430E08BF20EAD37070BDC4F10C04DA
:10078000C4F1200500FA04F320FA05F001FA04F29E
:1007900040EA020001F0004110EBD37041F100018A
:1007A0005EEA430E08BF20EAD37070BDC4F1200595
:1007B00000FA05F24EEA020E20FA04F301FA05F2FD
:1007C00043EA020321FA04F001F0004121FA04F2A5
:1007D00020EA020000EBD3705EEA430E08BF20EA75
:1007E000D37070BD94F0000F0FD101F000464000AF
:1007F00041EB010111F4801F08BF013CF7D041EA31
:10080000060195F0000F18BF704703F00046520034
:1008100043EB030313F4801F08BF013DF7D043EA05
:100820000603704794EA0C0F0CEA135518BF95EABB
:100830000C0F0CD050EA410618BF52EA4306D1D142
:1008400081EA030101F000414FF0000070BD50EA61
:10085000410606BF1046194652EA430619D094EAEB
:100860000C0F02D150EA013613D195EA0C0F05D1D5
:1008700052EA03361CBF104619460AD181EA030129
:1008800001F0004141F0FE4141F470014FF00000E1
:1008900070BD41F0FE4141F4780170BD70B54FF07C
:1008A000FF0C4CF4E06C1CEA11541DBF1CEA1355FC
:1008B00094EA0C0F95EA0C0F00F0A7F8A4EB0504DE
:1008C00081EA030E52EA03354FEA013100F08880D5
:1008D0004FEA03334FF0805545EA131343EA12639E
:1008E0004FEA022245EA111545EA10654FEA002653
:1008F0000EF000419D4208BF964244F1FD0404F50C
:10090000407402D25B084FEA3202B61A65EB030567
:100910005B084FEA32024FF480104FF4002CB6EB24
:10092000020E75EB030E22BFB61A754640EA0C00A4
:100930005B084FEA3202B6EB020E75EB030E22BFE4
:10094000B61A754640EA5C005B084FEA3202B6EB25
:10095000020E75EB030E22BFB61A754640EA9C00E4
:100960005B084FEA3202B6EB020E75EB030E22BFB4
:10097000B61A754640EADC0055EA060E18D04FEA72
:10098000051545EA16754FEA06164FEAC30343EA12
:1009900052734FEAC2025FEA1C1CC0D111F4801FDF
:1009A0000BD141EA00014FF000004FF0004CB6E7D8
:1009B00011F4801F04BF01430020B4F1FD0C88BF77
:1009C000BCF5E06F3FF6AFAEB5EB030C04BFB6EB82
:1009D000020C5FEA500C50F1000041EB045170BD75
:1009E0000EF0004E4EEA113114EB5C04C2BFD4EBA2
:1009F0000C0541EA045170BD41F480114FF0000E26
:100A0000013C90E645EA060E8DE60CEA135594EAA1
:100A10000C0F08BF95EA0C0F3FF43BAF94EA0C0FA4
:100A20000AD150EA01347FF434AF95EA0C0F7FF419
:100A300025AF104619462CE795EA0C0F06D152EA6D
:100A400003353FF4FDAE1046194622E750EA410651
:100A500018BF52EA43067FF4C5AE50EA41047FF462
:100A60000DAF52EA43057FF4EBAE12E74FF0FF3CC7
:100A700006E000BF4FF0010C02E000BF4FF0010C98
:100A80004DF804CD4FEA410C7FEA6C5C4FEA430C11
:100A900018BF7FEA6C5C1BD001B050EA410C0CBF60
:100AA00052EA430C91EA030F02BF90EA020F0020C2
:100AB000704710F1000F91EA030F58BF994208BF29
:100AC00090422CBFD8176FEAE37040F001007047E6
:100AD0004FEA410C7FEA6C5C02D150EA013C07D13D
:100AE0004FEA430C7FEA6C5CD6D152EA033CD3D088
:100AF0005DF8040B704700BF8446104662468C4682
:100B00001946634600E000BF01B5FFF7B7FF0028B4
:100B100048BF10F1000F01BD4DF808EDFFF7F4FFDD
:100B20000CBF012000205DF808FB00BF4DF808ED68
:100B3000FFF7EAFF34BF012000205DF808FB00BF8B
:100B40004DF808EDFFF7E0FF94BF012000205DF8AD
:100B500008FB00BF4DF808EDFFF7CEFF94BF012062
:100B600000205DF808FB00BF4DF808EDFFF7C4FF5B
:100B700034BF012000205DF808FB00BF4FEA410CA4
:100B80007FEA6C5C02D150EA013C0AD14FEA430C87
:100B90007FEA6C5C02D152EA033C02D14FF00000C4
:100BA00070474FF0010070474A0011D212F5001251
:100BB00011D20DD56FF47873B3EB62520ED44FEAB5
:100BC000C12343F0004343EA505323FA02F0704735
:100BD0004FF00000704750EA013002D14FF0FF3073
:100BE00070474FF0000070474FEA4102B2F1E04316
:100BF00024BFB3F5001CDCF1FE5C0DD901F0004C04
:100C00004FEAC0024CEA5070B2F1004F40EB830053
:100C100008BF20F00100704711F0804F21D113F17F
:100C20003872BCBF01F00040704741F480114FEAB8
:100C30005252C2F11802C2F1200C10FA0CF320FA41
:100C400002F018BF40F001004FEAC1234FEAD3235E
:100C500003FA0CFC40EA0C0023FA02F34FEA4303C8
:100C6000CCE77FEA625307D150EA01331EBF4FF051
:100C7000FE4040F44000704701F0004040F0FE406C
:100C800040F40000704700BF53B94AB9002908BFBB
:100C900000281CBF4FF0FF314FF0FF3000F074B957
:100CA000ADF1080C6DE904CE00F006F8DDF804E0C3
:100CB000DDE9022304B070472DE9F047089D0446A2
:100CC0008E46002B4DD18A42944669D9B2FA82F2FF
:100CD00052B101FA02F3C2F1200120FA01F10CFA3B
:100CE00002FC41EA030E94404FEA1C48210CBEFB73
:100CF000F8F61FFA8CF708FB16E341EA034306FBFC
:100D000007F199420AD91CEB030306F1FF3080F08A
:100D10001F81994240F21C81023E63445B1AA4B2D7
:100D2000B3FBF8F008FB103344EA034400FB07F779
:100D3000A7420AD91CEB040400F1FF3380F00A81BA
:100D4000A74240F207816444023840EA0640E41BAF
:100D500000261DB1D4400023C5E900433146BDE85B
:100D6000F0878B4209D9002D00F0EF800026C5E9FD
:100D7000000130463146BDE8F087B3FA83F6002E15
:100D80004AD18B4202D3824200F2F980841A61EB8D
:100D9000030301209E46002DE0D0C5E9004EDDE7AB
:100DA00002B9FFDEB2FA82F2002A40F09280A1EB93
:100DB0000C014FEA1C471FFA8CFE0126200CB1FBE8
:100DC000F7F307FB131140EA01410EFB03F08842E1
:100DD00008D91CEB010103F1FF3802D2884200F26E
:100DE000CB804346091AA4B2B1FBF7F007FB101100
:100DF00044EA01440EFB00FEA64508D91CEB04049E
:100E000000F1FF3102D2A64500F2BB800846A4EBF8
:100E10000E0440EA03409CE7C6F12007B34022FAE3
:100E200007FC4CEA030C20FA07F401FA06F31C4312
:100E3000F9404FEA1C4900FA06F3B1FBF9F8200C1F
:100E40001FFA8CFE09FB181140EA014108FB0EF065
:100E5000884202FA06F20BD91CEB010108F1FF3AB5
:100E600080F08880884240F28580A8F102086144C1
:100E7000091AA4B2B1FBF9F009FB101144EA0141CF
:100E800000FB0EFE8E4508D91CEB010100F1FF347A
:100E90006CD28E456AD90238614440EA0840A0FB12
:100EA0000294A1EB0E01A142C846A64656D353D0E8
:100EB0005DB1B3EB080261EB0E0101FA07F722FA0C
:100EC00006F3F1401F43C5E9007100263146BDE835
:100ED000F087C2F12003D8400CFA02FC21FA03F398
:100EE000914001434FEA1C471FFA8CFEB3FBF7F019
:100EF00007FB10360B0C43EA064300FB0EF69E423E
:100F000004FA02F408D91CEB030300F1FF382FD2D6
:100F10009E422DD9023863449B1B89B2B3FBF7F67E
:100F200007FB163341EA034106FB0EF38B4208D957
:100F30001CEB010106F1FF3816D28B4214D9023E98
:100F40006144C91A46EA004638E72E46284605E7B6
:100F50000646E3E61846F8E64B45A9D2B9EB020887
:100F600064EB0C0E0138A3E74646EAE7204694E717
:100F70004046D1E7D0467BE7023B614432E730464A
:100F800009E76444023842E7704700BF014B002282
:100F90009A707047CC070020014B00221A717047ED
:100FA000CC07002038B5044602681E4B9A4208D090
:100FB00022681D4B9A421BD022681C4B9A4222D0B9
:100FC00038BD012210211A4801F055FB4FF40051A1
:100FD000184801F049FB28B101221146144801F0DC
:100FE0004AFBE5E700220121114801F044FBDFE75D
:100FF000114D124BD3E90023D5E90001FFF76EF93B
:10100000C5E90001D8E70E4B5B78002BD8D00C4A1D
:1010100053780133DBB253701E2BD1D91346002213
:101020005A70CDE70000014000100040001400405D
:10103000000C024000080240600C002070D500083F
:10104000F404002010B504460268214B9A4204D0F3
:101050002268204B9A4219D010BD037F012B08D083
:10106000237F022BF4D1002201211B4801F003FB56
:10107000EEE700221021184801F0FDFA174B93ED1E
:10108000000B05F02DFD23685863E9E7144C20465A
:1010900005F0C4FD637ADBB2042B11D0104B5B7AF0
:1010A000DBB2042B06D00E4B93F88F3013B90C4BE8
:1010B0009B7A4BB100220821074801F0DCFACBE70C
:1010C000204605F08DFDE9E7054805F0B5FFF1E79D
:1010D0000000014000040140000C0240600C0020B0
:1010E000F404002008B572B60D4C012211462046CA
:1010F00001F0C1FA01220221204601F0BCFA0122CE
:101100000421204601F0B7FA01220821204601F00F
:10111000B2FA01221021204601F0ADFAE4E700BF47
:10112000000C024000B595B03022002108A809F05B
:101130000DF8002303930493059306930793234B21
:101140001A6C42F080521A641B6C03F080530193B6
:10115000019B1F4B1A6842F440421A601B6803F45B
:1011600040430293029B012308934FF4A023099369
:1011700002230E934FF480020F92192210924FF423
:10118000D872119212930923139308A800F0E2FB7E
:10119000B0B901F09DFCA8B90F2303930223049377
:1011A000002305934FF4A05306934FF48053079305
:1011B000072103A800F03AFE30B915B05DF804FB32
:1011C000FFF790FFFFF78EFFFFF78CFF003802401C
:1011D0000070004008B5BFF34F8FBFF36F8F3E4BD9
:1011E0000021C3F85012BFF34F8FBFF36F8F5A69BE
:1011F00042F400325A61BFF34F8FBFF36F8FC3F8D1
:101200008410BFF34F8FD3F88040C4F34E3000E01A
:101210001846C4F3C90243F6E07303EA401343EAF5
:1012200082732D49C1F860321346013A002BF2D186
:10123000431E0028ECD1BFF34F8F4B6943F480333A
:101240004B61BFF34F8FBFF36F8F01F00FFD234B47
:1012500000200021C3E90001214C01221146204653
:1012600006F0CAFB21461F4805F0F5FFFFF75AFFBD
:1012700000F052F808F02AFC00F0CEF900F0F2F984
:1012800000F016FA00F0CCF806F0C8FC06F09EFC60
:1012900006F02CFC06F0DEFD00F086F906F0E8FC16
:1012A000114C204603F0D4F9104803F0D1F910484E
:1012B00003F0CEF90021204603F0DCFC0421204697
:1012C00003F0D8FC00210B4803F0D4FC07F03AFEF1
:1012D000094806F04BFBFEE700ED00E0600C002043
:1012E000CC070020F4040020BC0E0020540F002086
:1012F000080F0020A00F0020540C002008B502F0B9
:1013000071FDC0B2042803D1024B0122DA7008BD7E
:10131000FFF7E8FECC0700202DE9F0418CB0002457
:101320000794089409940A940B94394B1A6B42F071
:1013300010021A631A6B02F010020192019A1A6BE2
:1013400042F004021A631A6B02F004020292029A3B
:101350001A6B42F080021A631A6B02F08002039249
:10136000039A1A6B42F001021A631A6B02F001022F
:101370000492049A1A6B42F002021A631A6B02F08A
:1013800002020592059A1A6B42F008021A631B6B5F
:1013900003F008030693069B1E4F22460821384699
:1013A00001F069F901221021384601F064F9DFF8F3
:1013B0006C8022461F21404601F05DF90823079307
:1013C00001250895022609960A9607A9384601F0D4
:1013D0005BF810230793089509950A9507A93846E5
:1013E00001F052F84FF4005307930894099607A9A7
:1013F000094801F049F81F2307930895099603232C
:101400000A9307A9404601F03FF80CB0BDE8F0810F
:10141000003802400010024000080240000C024068
:1014200008B51248124B0360124B436000238360DF
:101430000122C260036143618361C361036201F001
:10144000F5FC50B90021094802F0CEFC40B900215A
:10145000064802F0F7FC30B908BDFFF743FEF1E79C
:10146000FFF740FEF3E7FFF73DFEF5E7280D00200C
:1014700000540040E41F500070B5A8B0044600219D
:1014800023912491259126912791802203A808F089
:101490005DFE22683D4B9A4201D028B070BD4FF4EA
:1014A0008043039303A800F07DFD002864D1384EEB
:1014B000336B43F002033363336B03F00203019396
:1014C000019BC023239312232493002525950323F6
:1014D00026930423279323A92E4800F0D5FF336CCD
:1014E00043F400133364336C03F400130293029B40
:1014F00029482A4B03604FF0007343608560C56044
:101500004FF48063036145618561C5614FF48033A9
:101510000362456201F034F9002830D11E4BE363C9
:101520009C631F481F4B03604FF0007343604023D0
:1015300083600023C3604FF4806202614361836172
:10154000C3614FF480320262436201F019F9C8B9F5
:10155000134BA3639C63002202211F2001F008FBB0
:101560001F2001F03BFB00220221202001F000FBA4
:10157000202001F033FB90E7FFF7B4FD97E7FFF77A
:10158000B1FDCBE7FFF7AEFDE2E700BF005400403E
:101590000038024000040240680C00201060024045
:1015A000C80C0020A060024008B50548054B036048
:1015B00002F074FC00B908BDFFF794FDFBE700BF23
:1015C0007C0D00200008065010B5A2B00446802211
:1015D000002102A808F0BAFD22680D4B9A4201D002
:1015E00022B010BD4FF40013029302A800F0DAFC01
:1015F00050B9084B5A6B42F040025A635B6B03F0E0
:1016000040030193019BEBE7FFF76CFDF1E700BF9F
:10161000000806500038024008B51048104B03601F
:101620004FF482734360002383604FF4E062C26032
:10163000036143614FF400728261C36103624362DC
:1016400083620722C26203630823436302F072FDD0
:1016500000B908BDFFF746FDFBE700BF8C0D002079
:101660000030014008B51048104B03604FF48273FE
:101670004360002383604FF44072C26003614361A2
:101680004FF400728261C361036243628362072286
:10169000C26203630823436302F04CFD00B908BD36
:1016A000FFF720FDFBE700BFF00D002000380040F1
:1016B00008B51048104B03604FF482734360002359
:1016C00083604FF4E062C260036143614FF40072D3
:1016D00082611822C2610362436283620722C2628E
:1016E00003630823436302F025FD00B908BDFFF73B
:1016F000F9FCFBE7540E00200034014070B58CB0BB
:1017000000230793089309930A930B930368404AB5
:10171000934207D03F4A934224D03F4A934256D047
:101720000CB070BD3D4B5A6C42F480525A645A6CF6
:1017300002F480520092009A1A6B42F001021A637E
:101740001B6B03F001030193019BE023079302232A
:10175000089303230A9305230B9307A9304800F04D
:1017600093FEDDE72D4B1A6C42F480421A641A6C2A
:1017700002F480420292029A1A6B42F004021A6347
:101780001A6B02F004020392039A1A6B42F00202EF
:101790001A631B6B03F002030493049B0623079355
:1017A0000226089603250A9505240B9407A91D48CF
:1017B00000F06AFE4FF480630793089600230993B4
:1017C0000A950B9407A9184800F05EFEA8E7134B92
:1017D0005A6C42F400525A645A6C02F40052059258
:1017E000059A1A6B42F010021A631B6B03F0100388
:1017F0000693069B642307930223089303230A930B
:1018000005230B9307A9094800F03EFE88E700BFB7
:1018100000300140003800400034014000380240F0
:101820000000024000080240000402400010024094
:10183000FEE7000008B50D4C01221146204600F0DD
:101840001AFF01220221204600F015FF0122042187
:10185000204600F010FF01220821204600F00BFF77
:1018600001221021204600F006FFE4E7000C0240B0
:10187000FEE7FEE7FEE770477047704708B501F0E6
:1018800007FA08BD08B5024801F02EF808BD00BFF0
:10189000680C002008B5024801F026F808BD00BF1A
:1018A000C80C002008B5024802F01DFF08BD00BFAB
:1018B000BC0E002008B5024802F015FF08BD00BFAD
:1018C000BC0E002008B5024801F042FC08BD00BF74
:1018D000280D002008B5024802F042FA08BD00BFFA
:1018E000280D002008B5024802F0FDFE08BD00BF2B
:1018F000A00F002008B5024802F0F5FE08BD00BFA9
:10190000080F002008B5024802F0EDFE08BD00BF38
:10191000540F002008B5024803F0F2FE08BD00BFD6
:10192000EC0F002082B00A4B1A6C42F080521A640D
:101930001A6C02F080520092009A5A6C42F4804273
:101940005A645B6C03F480430193019B02B07047BF
:1019500000380240002800F0FF8170B582B00446D4
:10196000036813F0010F29D0954B9B6803F00C031B
:10197000042B1AD0924B9B6803F00C03082B0FD05A
:101980006368B3F5803F40D0002B54D18C4B1A686C
:1019900022F480321A601A6822F480221A6039E038
:1019A000874B5B6813F4800FEAD0854B1B6813F4F8
:1019B000003F03D06368002B00F0D081236813F050
:1019C000020F74D07E4B9B6813F00C0F5ED07C4BE3
:1019D0009B6803F00C03082B53D0E368002B00F046
:1019E0008980774A136843F00103136001F05CF9C2
:1019F0000546734B1B6813F0020F72D101F054F9C6
:101A0000401B0228F5D90320ADE16D4A136843F469
:101A10008033136063682BB301F046F90546684BC9
:101A20001B6813F4003FC9D101F03EF9401B642844
:101A3000F5D9032097E1B3F5A02F09D0604B1A68C0
:101A400022F480321A601A6822F480221A60E1E7D8
:101A50005B4B1A6842F480221A601A6842F48032A2
:101A60001A60D7E701F020F90546554B1B6813F4BF
:101A7000003FA3D001F018F9401B6428F5D90320DA
:101A800071E14F4B5B6813F4800FA6D14C4B1B6880
:101A900013F0020F03D0E368012B40F06181484A44
:101AA000136823F0F803216943EAC1031360236834
:101AB00013F0080F46D0636983B3414A536F43F074
:101AC0000103536701F0F0F805463D4B5B6F13F0DF
:101AD000020F37D101F0E8F8401B0228F5D90320A6
:101AE00041E1374A136823F0F803216943EAC1034F
:101AF0001360DCE7324A136823F00103136001F03E
:101B0000D3F805462E4B1B6813F0020FCFD001F01F
:101B1000CBF8401B0228F5D9032024E1284A536F53
:101B200023F00103536701F0BFF80546244B5B6FB8
:101B300013F0020F06D001F0B7F8401B0228F5D9C8
:101B4000032010E1236813F0040F7DD01C4B1B6CA5
:101B500013F0805F1ED11A4B1A6C42F080521A6447
:101B60001B6C03F080530193019B0125154B1B68EF
:101B700013F4807F10D0A368012B25D0002B3BD11C
:101B80000F4B1A6F22F001021A671A6F22F004023B
:101B90001A671EE00025E9E70A4A136843F48073D8
:101BA000136001F081F80646064B1B6813F4807F32
:101BB000E1D101F079F8801B6428F5D90320D2E047
:101BC00000380240007000406E4A136F43F001037A
:101BD0001367A36833B301F067F80646694B1B6FC0
:101BE00013F0020F2FD101F05FF8801B41F2883310
:101BF0009842F3D90320B6E0052B09D0614B1A6F48
:101C000022F001021A671A6F22F004021A67E0E755
:101C10005C4B1A6F42F004021A671A6F42F001021D
:101C20001A67D6E701F040F80646564B1B6F13F0D3
:101C3000020F08D001F038F8801B41F28833984237
:101C4000F3D903208FE0FDB9A369002B00F08A804F
:101C50004C4A926802F00C02082A58D0022B19D084
:101C6000484A136823F08073136001F01DF804469E
:101C7000444B1B6813F0007F47D001F015F8001BA0
:101C80000228F5D903206EE03E4A136C23F08053FE
:101C90001364D9E73B4A136823F08073136001F0A3
:101CA00003F80546374B1B6813F0007F06D000F0A1
:101CB000FBFF401B0228F5D9032054E0E369226AA8
:101CC0001343626A43EA8213A26A5208013A43EA62
:101CD0000243E26A43EA026343F00053294A536035
:101CE000136843F08073136000F0DEFF0446254B59
:101CF0001B6813F0007F06D100F0D6FF001B0228FE
:101D0000F5D903202FE000202DE000202BE01D4A14
:101D10005268012B29D002F48003E1698B4226D15D
:101D200002F03F03216A8B4223D1616A47F6C073F8
:101D30001340B3EB811F1ED102F44031A36A5B084C
:101D4000013BB1EB034F18D102F07062E36AB2EBD2
:101D5000036F14D1002006E001207047012002E04B
:101D6000012000E0002002B070BD0120FBE701204F
:101D7000F9E70120F7E70120F5E70120F3E701206B
:101D8000F1E700BF0038024008B5254B9B6803F01F
:101D90000C03042B3FD0082B3FD1214B5A6802F093
:101DA0003F025B6813F4800F12D01D4B5968C1F3DA
:101DB00088111C480023A1FB0001FEF765FF184BAA
:101DC0005B68C3F3014301335B00B0FBF3F025E034
:101DD000134B5968C1F3881C4FEA4C11B1EB0C004E
:101DE0006EEB0E0E4FEA8E1343EA90638101091ADF
:101DF00063EB0E03DB0043EA5173C90011EB0C0CDB
:101E000043F10003990200234FEA8C2041EA9C51E0
:101E1000FEF73AFFD3E7034800E0034808BD00BFE0
:101E20000038024040787D010024F400002800F0D2
:101E3000A08070B50D460446524B1B6803F00F039B
:101E40008B420BD24F4A136823F00F030B431360EE
:101E5000136803F00F038B4240F08D80236813F06A
:101E6000020F17D013F0040F04D0474A936843F4CD
:101E7000E0539360236813F0080F04D0424A93683C
:101E800043F460439360404A936823F0F003A168F1
:101E90000B439360236813F0010F31D06368012B6B
:101EA00020D0022B25D0384A126812F0020F64D0DD
:101EB00035498A6822F0030213438B6000F0F4FE78
:101EC0000646314B9B6803F00C036268B3EB820F4C
:101ED00016D000F0E9FE801B41F288339842F0D919
:101EE000032045E0284A126812F4003FE0D10120A7
:101EF0003EE0254A126812F0007FD9D1012037E078
:101F0000204B1B6803F00F03AB420AD91D4A13682C
:101F100023F00F032B431360136803F00F03AB424E
:101F20002DD1236813F0040F06D0174A936823F4C9
:101F3000E053E1680B439360236813F0080F07D068
:101F4000114A936823F46043216943EAC103936013
:101F5000FFF71AFF0C4B9B68C3F303130B4AD35CC8
:101F6000D8400B4B18600B4B186800F059FE00204E
:101F700070BD012070470120FAE70120F8E7012039
:101F8000F6E700BF003C02400038024060D5000880
:101F90000800002004000020014B1868704700BFB3
:101FA00008000020F0B583B00446066816F001066C
:101FB0000DD0AB4B9A6822F400029A609A68C16A0D
:101FC0000A439A60C36A002B00F02381002625682B
:101FD00015F4002511D0A24AD2F88C3023F4401316
:101FE000616B0B43C2F88C30636BB3F5801F00F05C
:101FF0001281002B00F011810025236813F4801F4B
:102000000FD0974AD2F88C3023F44003A16B0B43D6
:10201000C2F88C30A36BB3F5800F00F0008103B9D8
:102020000125236813F0200F40F0FB80236813F094
:10203000100F0CD08A4BD3F88C2022F08072C3F89A
:102040008C20D3F88C20216B0A43C3F88C202368A2
:1020500013F4804F08D0824AD2F8903023F44033F2
:10206000E16D0B43C2F89030236813F4004F08D0A1
:102070007B4AD2F8903023F44023216E0B43C2F800
:102080009030236813F4803F08D0754AD2F890301E
:1020900023F44013616E0B43C2F89030236813F0B1
:1020A000400F08D06E4AD2F8903023F00303E16B62
:1020B0000B43C2F89030236813F0800F08D0684AB1
:1020C000D2F8903023F00C03216C0B43C2F890300F
:1020D000236813F4807F08D0614AD2F8903023F04F
:1020E0003003616C0B43C2F89030236813F4007F17
:1020F00008D05B4AD2F8903023F0C003A16C0B43A8
:10210000C2F89030236813F4806F08D0544AD2F894
:10211000903023F44073E16C0B43C2F89030236895
:1021200013F4006F08D04E4AD2F8903023F4406385
:10213000216D0B43C2F89030236813F4805F08D000
:10214000474AD2F8903023F44053616D0B43C2F8F4
:102150009030236813F4005F08D0414AD2F89030E1
:1021600023F44043A16D0B43C2F89030236813F46D
:10217000001F0DD03A4AD2F8903023F00063616F0F
:102180000B43C2F89030636FB3F1006F00F0B4807E
:10219000236813F4802F08D0314AD2F8903023F00E
:1021A0004073E16E0B43C2F89030236813F4000FC4
:1021B00008D02B4AD2F8903023F08053A16F0B4304
:1021C000C2F89030236813F0806F08D0244AD2F808
:1021D000903023F00053E16F0B43C2F8903026B9E2
:1021E000236813F0007F00F0E4801D4A136823F099
:1021F0008063136000F058FD0646194B1B6813F00E
:10220000006F7BD000F050FD801B6428F5D90320BF
:10221000D2E00126DBE60126EBE60125EDE601260C
:10222000FDE60F4B1A6C42F080521A641B6C03F0EF
:1022300080530193019B0B4A136843F4807313602E
:1022400000F032FD0746074B1B6813F4807F0BD16B
:1022500000F02AFDC01B6428F5D90320ACE000BFC4
:102260000038024000700040854B1B6F13F4407330
:1022700015D0A26A02F440729A4210D0804B1A6FB5
:1022800022F44072196F41F480311967196F21F4FB
:10229000803119671A671B6F13F0010F12D1A36AFF
:1022A00003F44072B2F5407F1DD0754A936823F461
:1022B000F813936072490B6FA26AC2F30B021343C7
:1022C0000B67B3E600F0F0FC07466D4B1B6F13F095
:1022D000020FE4D100F0E8FCC01B41F288339842C1
:1022E000F3D9032068E06648826822F4F812654951
:1022F00019400A438260DDE7012549E7236813F0AE
:10230000010F0ED0E36A63B95D4AD2F88430616888
:1023100003F0706343EA8113A16843EA0173C2F8D2
:102320008430236813F4002F03D0626BB2F5801F52
:1023300006D013F4801F19D0A36BB3F5800F15D10D
:102340004F4AD2F884106068E3681B0643EA8013A2
:1023500001F0E0410B43C2F88430D2F88C3023F016
:102360001F03E16901390B43C2F88C30236813F075
:10237000007F0AD06268E3681B0643EA8213A26802
:1023800043EA02733E4AC2F884303D4A136843F080
:102390008063136000F088FC0646394B1B6813F01D
:1023A000006F06D100F080FC801B6428F5D9032063
:1023B00002E0012D02D0002003B0F0BD304A1368C6
:1023C00023F08053136000F06FFC05462C4B1B6814
:1023D00013F0005F06D000F067FC401B6428F5D9BD
:1023E0000320E9E7236813F4002F01D0626B22B1C8
:1023F00013F4801F18D0A36BB3B9214AD2F88830E8
:10240000216903F4403343EA8113616943EA0163BC
:10241000C2F88830D2F88C3023F4F853216A01399D
:1024200043EA0123C2F88C30236813F4001F03D061
:10243000636FB3F1006F13D0114A136843F08053F8
:10244000136000F031FC04460D4B1B6813F0005F75
:1024500014D100F029FC001B6428F5D90320ABE758
:102460000749D1F888202069A3691B0443EA801337
:1024700002F070621343C1F88830DDE700209BE76B
:1024800000380240FFFCFF0F00230F2B00F2E28018
:1024900070B582B060E085685E000324B44025EA30
:1024A0000405CC68B4402C438460456825EA0205E5
:1024B0004C68C4F300129A402A4342605AE0DC0898
:1024C000083450F8246003F0070295000F22AA4058
:1024D00026EA020E0A69AA4042EA0E0240F82420C7
:1024E0005CE0072200E0002202FA0EF22A430234E6
:1024F000594D45F82420594A94686FEA0C0224EAA1
:102500000C054E6816F4801F01D04CEA0405534CAC
:10251000A560E46802EA04054E6816F4001F01D0C5
:102520004CEA04054D4CE560646802EA04054E6817
:1025300016F4003F01D04CEA0405484C656024685D
:1025400022404D6815F4803F01D04CEA0402434C10
:10255000226001330F2B7BD801229A400C6804EAD9
:10256000020C32EA0404F4D14C6804F00304013C88
:10257000012C90D94A6802F00302032A09D0C468EA
:102580005D000322AA4024EA02048A68AA4022438A
:10259000C2604A6802F00302022A90D004684FEA3F
:1025A000430E032202FA0EF224EA02044A6802F001
:1025B000030202FA0EF2224302604A6812F4403F1C
:1025C000C7D0274A546C44F480445464526C02F4DB
:1025D00080420192019A9C08A51C1F4A52F825507E
:1025E00003F003024FEA820E0F2202FA0EF225EAEE
:1025F00002051C4A90423FF476AF02F58062904299
:102600001AD002F58062904218D002F580629042A2
:1026100016D002F58062904214D002F5806290429A
:1026200012D002F58062904210D002F58062904292
:102630003FF457AF082257E7012255E7022253E73C
:10264000032251E704224FE705224DE706224BE71C
:1026500002B070BD704700BF00380140003C01402F
:1026600000380240000002400369194201D00120F5
:102670007047002070470AB1816170470904816189
:10268000704730B405682C6824F480242C600468FA
:1026900063608368402B05D0036899600368DA6043
:1026A00030BC704703689A600368D960F8E700009F
:1026B00010B40168CAB2103A0A4BA3FB02431B09CB
:1026C000094CE35CC3655F2A07D9084B0B40043310
:1026D0008365806D5DF8044B7047044B0B40836548
:1026E000F7E700BFABAAAAAA58D5000800FCFFFF75
:1026F000836A826992B9012B0AD0022B02D00BB1F6
:1027000000207047C36A13F0807F28D100207047F3
:10271000C36AB3F1C07F24D000207047B2F5005FD8
:1027200009D0022B25D9032B25D1C36A13F0807F52
:1027300023D100207047032B03D8DFE803F01404F3
:10274000140A00207047C36A13F0807F0DD1002067
:102750007047C36AB3F1C07F09D0002070470120E1
:102760007047012070470120704701207047012009
:10277000704701207047002070470120704700001B
:1027800070B5044600F090FA002C5BD00546022399
:1027900084F83530002384F834302268136823F03D
:1027A0000103136023681A6812F0010F0AD000F0C9
:1027B0007BFA431B052BF5D920236365032084F89E
:1027C000350070BD1A68204810406168A2680A434D
:1027D000E1680A4321690A4361690A43A1690A431E
:1027E000E1690A43216A0A430243616A04291ED04F
:1027F0001A602668756925F00705636A1D43042B76
:1028000007D1A36A1D43E36A1BB12046FFF770FF9F
:1028100090B975612046FFF74BFFE26D3F2393406F
:10282000836000206065012384F83530C9E7E16AE0
:10283000206B01430A43DBE740236365012084F8F2
:102840003500BEE70120BCE73F8010E038B5044604
:10285000856D90F83400012830D0012084F83400D0
:1028600094F83500C0B2012804D0002384F8343035
:10287000022038BD022084F8350000206065204623
:10288000FFF7FFFEE26D3F239340AB6022681368C1
:1028900043F0160313602268536943F080035361C9
:1028A000236C23B12268136843F008031360226885
:1028B000136843F0010313600020DAE70220D8E731
:1028C00090F83530DBB2022B03D080234365012022
:1028D0007047052380F835300268136823F0010340
:1028E0001360002070470000F0B583B00446002359
:1028F0000193724B1D68724BA3FB0535AD0A876DC2
:102900003E68C26D08239340334210D003681A68B2
:1029100012F0040F0BD01A6822F004021A60C26D84
:1029200008239340BB60436D43F001034365E26DB0
:1029300001239340334209D02268526912F0800F7C
:1029400004D0BB60636D43F002036365E26D042352
:102950009340334209D02268126812F0020F04D06B
:10296000BB60636D43F004036365E26D1023934025
:10297000334224D02268126812F0080F1FD0BB60C7
:1029800023681A6812F4802F0DD01B6813F4002FEF
:1029900004D1236C9BB12046984710E0A36C73B11F
:1029A000204698470BE01A6812F4807F03D11A681A
:1029B00022F008021A60236C0BB120469847E26DA2
:1029C00020239340334255D02268126812F0100F32
:1029D00050D0BB6094F83530DBB2052B0ED02368A5
:1029E0001A6812F4802F33D01B6813F4002F2AD1F9
:1029F000636C002B3ED0204698473BE0226813686A
:102A000023F0160313602268536923F08003536197
:102A1000236CA3B12268136823F008031360E26DEE
:102A20003F239340BB60012384F83530002384F8B2
:102A30003430236D002B3FD0204698473CE0A36CF8
:102A4000002BE7D1EBE7E36BA3B12046984711E0F9
:102A50001A6812F4807F09D11A6822F010021A60F5
:102A6000012384F83530002384F83430E36B0BB154
:102A700020469847636DFBB1636D13F0010F17D0CB
:102A8000052384F835302268136823F001031360AE
:102A9000019B01330193AB4204D823681B6813F0F8
:102AA000010FF5D1012384F83530002384F8343048
:102AB000E36C0BB12046984703B0F0BD080000203E
:102AC000B5814E1B90F835007047406D704700008F
:102AD00010B582B01B4B1A6C42F080521A641B6C0A
:102AE00003F080530193019B174A136843F480332A
:102AF000136000F0D9F80446134B5B6813F4803F71
:102B000008D100F0D1F8001BB0F57A7FF4D903208A
:102B100002B010BD0C4A136843F40033136000F098
:102B2000C3F80446084B5B6813F4003F07D100F07C
:102B3000BBF8001BB0F57A7FF4D90320E8E700204A
:102B4000E6E700BF00380240007000400649CB684D
:102B500023F4E0631B041B0C000200F4E060034359
:102B6000024A1A43CA60704700ED00E00000FA050F
:102B700000B5174BDB68C3F30223C3F1070CBCF1AC
:102B8000040F28BF4FF0040C03F1040EBEF1060F32
:102B900014D9033B4FF0FF3E0EFA0CFC21EA0C0166
:102BA00099400EFA03F322EA03031943002807DBD6
:102BB0000901C9B2074B19545DF804FB0023E9E78A
:102BC00000F00F000901C9B2034B1954F4E700BF2C
:102BD00000ED00E000E400E014ED00E0002807DB79
:102BE00000F01F02400901239340024A42F82030BE
:102BF000704700BF00E100E00138B0F1807F0BD2E8
:102C00004FF0E0235861054AF02182F8231000209C
:102C1000986107221A6170470120704700ED00E0BB
:102C200010B504460E4B18784FF47A73B3FBF0F3EB
:102C30000C4A1068B0FBF3F0FFF7DEFF68B90F2C09
:102C400001D901200AE0002221464FF0FF30FFF7B2
:102C50008FFF054B1C60002000E0012010BD00BF6D
:102C600000000020080000200400002008B5074AEA
:102C7000136843F4807313600320FFF767FF0F208E
:102C8000FFF7CEFFFEF74EFE002008BD003C0240DD
:102C9000034A1168034B1B780B441360704700BF55
:102CA000B80E002000000020014B1868704700BFDC
:102CB000B80E002038B50446FFF7F6FF0546B4F11C
:102CC000FF3F02D0044B1B781C44FFF7EDFF401B75
:102CD000A042FAD338BD00BF0000002003689A6903
:102CE00012F0020F01D000229A6203689A6912F072
:102CF000010F03D19A6942F001029A61704710B442
:102D0000019CC1F3090141EA02411943214321F029
:102D1000004102685368640D04F4806444F07F74D9
:102D200044F4583444F47F7444F0030423EA040464
:102D3000214351605DF8044B70470000436B1D4A0E
:102D4000934217D01C4A934214D011F4004F2BD158
:102D5000002311F0010F01D043F0F20311F0020F34
:102D600001D043F0F403102920D020290CD143F0E6
:102D7000200309E011F4004F0BD1002310290AD0E1
:102D800020290BD040290CD001680A6813430B603E
:102D90007047B823F2E743F09003F1E743F0600394
:102DA000F0E743F04003EFE7B823D2E743F09003A6
:102DB000DBE700BF913900086B38000811F0010F04
:102DC00009D090F8413003F02803282B01D0F223DA
:102DD00002E0422300E0002311F0020F09D043F08B
:102DE000440C90F8412002F02802282A10D043F029
:102DF000F40311F4004F0DD110290ED020290FD06B
:102E0000402910D001680A6822EA03030B6070476A
:102E10006346EEE743F0B803EEE743F09003EDE7D7
:102E200043F02003ECE743F04003EBE7002857D0E2
:102E300010B5044690F84130002B41D0242384F88B
:102E400041302268136823F001031360636822682D
:102E500023F0706313612268936823F40043936046
:102E6000E368012B31D0A368226843F404439360E4
:102E7000E368022B2FD0226851681A4B0B43536032
:102E80002268D36823F40043D36023696269134343
:102E9000A169226843EA0123D360E369216A2268B9
:102EA0000B4313602268136843F001031360002092
:102EB0006064202384F84130206384F8420010BD10
:102EC00080F84030FEF7D8FAB8E7A368226843F4E8
:102ED00000439360CCE723684FF400625A60CAE76E
:102EE0000120704700800002F0B583B004460E4612
:102EF0001F460899BDF8243090F84100C0B2202840
:102F00007AD1002B18BF002949D02068856915F4B3
:102F1000004F75D194F84050012D73D0012584F8ED
:102F20004050212584F84150402584F84250002526
:102F3000656461626385344BE362344B6363E664CA
:102F4000638D9BB2FF2B2FD9FF232385012F2ED01A
:102F5000130A8362D2B22265A36B002B2DD02C4AB8
:102F6000DA63A36B2B4ADA64A26B00231364A26BAF
:102F700013652268238D2832A06BFFF767FC054696
:102F800048B3202384F84130002284F84220636C47
:102F900043F01003636484F8402001252DE04FF4D2
:102FA00000736364012528E0638D2385CEE7D2B2E8
:102FB00082624FF0FF332365CEE7202384F841304F
:102FC000002284F84220636C43F08003636484F839
:102FD0004020012511E0104B00934FF08073FAB2AE
:102FE00031462046FFF78BFE002384F84030012154
:102FF0002046FFF7A3FE00E00225284603B0F0BDFF
:103000000225FAE70225F8E70000FFFFCD3B0008A4
:10301000173B0008D33A000800200080F0B583B0C9
:1030200004461F46089DBDF8243090F84100C0B208
:1030300020287BD10E46002B18BF002D4AD02168D6
:10304000886910F4004F75D194F84000012873D0BE
:10305000012084F84000222084F84100402084F8B8
:1030600042000020606465626385344BE362344B48
:103070006363E664638D9BB2FF2B30D9FF23238506
:10308000012F2FD0130A8B62D2B22265E36B002B83
:103090002ED02C4ADA63E36B2B4ADA64E26B00230E
:1030A0001364E26B13652168238D2A462431E06B9B
:1030B000FFF7CCFB054648B3202384F841300022BB
:1030C00084F84220636C43F01003636484F840206A
:1030D00001252CE04FF400736364012527E0638D24
:1030E0002385CDE7D2B28A624FF0FF332365CDE767
:1030F000202384F84130002284F84220636C43F09E
:103100008003636484F84020012510E00F4B009396
:103110000023FAB231462046FFF7F1FD002384F880
:10312000403001212046FFF709FE00E00225284635
:1031300003B0F0BD0225FAE70225F8E70000FFFF23
:10314000CD3B0008713B0008D33A00080020008006
:1031500008B5036899691A68436B03B1984708BDBD
:103160007047704738B50446002380F8423090F825
:103170004130DBB2212B0FD0202380F841301223C5
:103180000363002545630221FFF718FE84F84050D1
:103190002046FFF7E6FF38BD202380F84130112399
:1031A0000363002545630121FFF708FE84F84050C2
:1031B0002046FFF7D5FFEEE77047704710B504468D
:1031C00003681A68002180F8421012F4804F0ED074
:1031D0001A6822F480421A6094F84130DBB2292B3D
:1031E0000DD094F84130DBB22A2B18D010BD12F468
:1031F000004FF1D01A6822F400421A60ECE728234D
:1032000084F841302123236301212046FFF7D6FDB6
:10321000002384F840302046FFF7CEFFE6E728235E
:1032200084F841302223236302212046FFF7C6FDA4
:10323000002384F840302046FFF7BFFFD6E77047F1
:10324000F8B5044690F8413003F02803282B06D047
:1032500003680822DA61002380F84030F8BD036873
:103260009E69C6F300469A69120C02F0FE059A6840
:10327000C2F30902DF6807F0FE07C168022922D104
:1032800085EAD21515F0060F10D1816C01318164E9
:10329000816C0229E2D1002181640820D86184F880
:1032A000401031462046FFF7CAFFD7E74FF40041F0
:1032B000FFF784FD002384F840303A46314620462B
:1032C000FFF7BDFFCAE74FF40041FFF777FD00238A
:1032D00084F840302A4631462046FFF7B0FFBDE76C
:1032E0007047000010B50446174BC3620023036308
:1032F000202280F8412080F84230436311F0040F0F
:1033000013D003685A6A436A1A70436A01334362EE
:10331000038D53B1013B0385438D9BB2013B9BB2AF
:103320004385436C43F00403436448F203012046A1
:10333000FFF744FD23681022DA61002384F840304F
:103340002046FFF7CDFF10BD0000FFFF704708B516
:1033500090F84130DBB2602B06D00023036380F885
:103360004030FDF7CBFF08BD202380F8413000231B
:10337000036380F84030FFF7E9FFF4E710B5044637
:1033800090F84130002084F842003B4AE2626085B8
:10339000626C0A436264283BDBB2022B2DD8032106
:1033A0002046FFF70BFD282384F84130334B63633D
:1033B000236BA26B002A34D0212B18BF112B30D1E4
:1033C00023681A6812F4804F03D01A6822F48042EE
:1033D0001A60A06BFFF776FB01281ED0A36B284A6A
:1033E0001A65002384F84030A06BFFF769FA0028C3
:1033F00040D0A06B036D98473CE048F203012046A3
:10340000FFF7DCFC94F84130DBB2602B02D02023C4
:1034100084F8413000236363CAE72046FFF797FF33
:1034200028E0E26B1AB3222B18BF122B1FD123689E
:103430001A6812F4004F03D01A6822F400421A608E
:10344000E06BFFF73FFB01280DD0E36B0C4A1A65D8
:10345000002384F84030E06BFFF732FA50B1E06BA4
:10346000036D984706E02046FFF771FF02E0204613
:10347000FFF76DFF10BD00BF0000FFFFED35000836
:10348000CB3D000870B504460D460268166890F8FA
:103490004130DBB22021D161292B18BF212B5BD019
:1034A0002A2B18BF222B5ED02268536843F40043B6
:1034B00053602268536823F0FF7323F48B3323F4A3
:1034C000FF7323F0010353602046FFF707FC16F457
:1034D000804F4FD02268136823F480431360A36B9E
:1034E0001BB11B685B689BB2638515F0040F11D09C
:1034F00025F0040523685A6A636A1A70636A013307
:103500006362238D33B1013B2385638D9BB2013B05
:103510009BB26385638D9BB21BB1636C43F0040364
:103520006364002384F842306363636C002B31D101
:10353000E36A13F5803F3BD194F84130DBB2222B94
:1035400046D0202384F841300023236384F84030A0
:103550002046FFF731FE3AE048F20101FFF72EFC6A
:1035600021232363A0E748F20201FFF727FC22236F
:10357000236399E716F4004FB7D02268136823F449
:1035800000431360E36B002BAFD01B685B689BB2FA
:103590006385AAE7616C2046FFF7F0FE94F841309E
:1035A000DBB2282B13D129462046FFF79BFE0EE005
:1035B0002046FFF703FE0C4BE362202384F84130E2
:1035C0000023236384F840302046FFF789FE70BD56
:1035D000202384F841300023236384F840302046C0
:1035E000FFF7EBFDF3E700BF0000FFFFF8B5C76A88
:1035F00090F84030012B00F09F8004460D4616469F
:10360000012380F8403011F0200F02D012F0200F7B
:1036100019D115F0100F3FD016F0100F3CD0638D6C
:103620009BB243BB94F84130DBB2282B0ED094F808
:103630004130DBB2292B11D023681022DA6100203F
:1036400084F84000F8BDFFF71DFFE2E7B7F1007F07
:10365000EDD129462046FFF745FEF0E717F5803FFC
:10366000EAD023681022DA612046FFF737FB2046B4
:10367000FFF7A4FDE3E723681022DA61636C43F0EF
:1036800004036364B7F1807F18BF002FD7D1616C4A
:103690002046FFF773FED2E715F0040F1FD016F097
:1036A000040F1CD0638D9BB273B123685A6A636A9E
:1036B0001A70636A01336362238D013B2385638D36
:1036C0009BB2013B9BB26385638D9BB2002BB6D14D
:1036D00017F5803FB3D02046FFF770FDAFE715F038
:1036E000080F02D016F0080F18D115F0020FA6D05F
:1036F00016F0020FA3D0638D9BB2A3B1626A236858
:1037000012789A62636A01336362638D9BB2013BF4
:103710009BB26385238D013B238590E72946204694
:10372000FFF78EFD8BE7002F18BFB7F1807F86D1A2
:103730002046FFF743FD82E7022083E730B583B0E0
:1037400004460D4603682022DA6190F84130DBB26E
:10375000212B33D090F84130DBB2222B34D02268B9
:10376000536823F0FF7323F48B3323F4FF7323F0A8
:103770000103536000236363A3F58033E36215F014
:10378000100F06D023681022DA61636C43F0040343
:10379000636494F84130DBB2602B1BD02046FFF706
:1037A0009DFA626C94F84130DBB2602B00D0D2B14C
:1037B000616C2046FFF7E2FD03B030BD0121FFF749
:1037C000FDFA11232363CAE70221FFF7F7FA122358
:1037D0002363C4E715F0040FE0D023685B6ADBB213
:1037E0000193019BDAE794F84130DBB2212B17D02B
:1037F00094F84130DBB2222BDED1202384F8413013
:103800000023236394F84230DBB2402B24D0002302
:1038100084F8423084F840302046FFF7A2FCCBE722
:10382000202384F841300023236394F84230DBB234
:10383000402B08D0002384F8423084F840302046E2
:10384000FFF78EFCB8E7002384F8423084F840305C
:103850002046FDF79BFBAFE7002384F8423084F855
:1038600040302046FDF798FBA6E7F8B5C76A90F808
:103870004030012B00F08A8004460D461646012395
:1038800080F8403011F0200F02D012F0200F17D135
:1038900015F0100F6BD016F0100F68D0C6F3803201
:1038A00016F4804F02D116F4004F5CD0E36B53B195
:1038B00016F4004F09D01B685B6843B3002105E094
:1038C000FFF7E0FDE4E7002100E00021A36B1BB15E
:1038D00012B11B685B68E3B1D9B923681022DA61C1
:1038E000636C43F00403636494F84130DBB2B7F1D6
:1038F000807F18BF002F40D1292B18BF212B2BD13F
:1039000021232363616C2046FFF738FD35E0012158
:10391000DCE794F84130DBB2282B08D094F8413032
:10392000DBB2292B0BD023681022DA6125E0B7F136
:10393000007FF3D129462046FFF7D4FC1DE017F5A0
:10394000803FF0D023681022DA612046FFF7C6F9E5
:103950002046FFF733FC10E02A2B18BF222BD1D1D1
:1039600022232363CEE723681022DA6105E015F0F5
:10397000080F02D016F0080F03D1002084F8400091
:10398000F8BD29462046FFF75BFCF6E70220F7E783
:1039900090F84030012B00F09A8010B582B00446B8
:1039A000012380F8403011F0100F02D012F0100FF8
:1039B00032D111F0800F60D012F0400F5DD022683C
:1039C000136823F040031360638D9BB2002B46D035
:1039D00023685968C1F30901638D9BB2FF2B2DD970
:1039E000FF2323854FF080730022009294F8282053
:1039F0002046FFF784F9638D9BB2228D9B1A9BB200
:103A0000638594F84130DBB2222B22D02268136800
:103A100043F4804313600CE003681022DA61436CC6
:103A200043F0040343642021FFF788F92046FFF7A1
:103A300055F9002084F8400002B010BD638D238545
:103A4000E36A13F5803F01D0E36ACDE74FF00073DE
:103A5000CAE72268136843F400431360E9E7236868
:103A60005B6813F0007F03D12046FFF77BFBE0E7A4
:103A700040212046FFF782FCDBE711F0400F1CD00D
:103A800012F0400F19D0638D9BB28BB923685A682E
:103A900012F0007FCDD1E26A12F5803F04D15A685E
:103AA00042F480425A60C4E72046FFF75BFBC0E760
:103AB00040212046FFF762FCBBE711F0200FB8D091
:103AC00012F0200FB5D02046FFF738FEB1E70220F4
:103AD000704738B5846BA36B7BB11B685B6873B1AF
:103AE0000025E36B1BB11B685B6803B90125FEF77A
:103AF000ECFF022800D025B938BD0025F1E70125EB
:103B0000EFE72268536843F40043536010212046D6
:103B1000FFF734FCF0E710B5846B2268136823F4D8
:103B200080431360638D9BB2ABB1238D616A1944EE
:103B30006162638D9BB2FF2B12D9FF23238522681C
:103B4000238D2832A06BFEF781FE60B11021204644
:103B5000FFF714FC10BD20212046FFF7EFF8F9E72E
:103B6000638D2385EBE740212046FFF7E7F8F1E777
:103B700010B5846B2268136823F400431360638DCF
:103B80009BB2ABB1238D626A1A446262638D9BB2B1
:103B9000FF2B12D9FF2323852168238D2431E06B6D
:103BA000FEF754FE60B110212046FFF7E7FB10BD81
:103BB00020212046FFF7C2F8F9E7638D2385EBE764
:103BC00040212046FFF7BAF8F1E7000090F84030B6
:103BD000012B00F0BE8010B582B00446012380F8AE
:103BE000403011F0100F02D012F0100F10D111F070
:103BF000020F1BD012F0020F18D02368226D9A62B8
:103C00004FF0FF332365002084F8400002B010BD60
:103C100003681022DA61436C43F0040343642021FB
:103C2000FFF78CF82046FFF759F8ECE711F0800F0A
:103C300002D012F0400F2AD111F0400F7DD012F0C7
:103C4000400F7AD094F84130DBB2222B60D042484A
:103C5000638D9BB2FF2B5DD9FF222285E16C009022
:103C60004FF0807389B22046FFF749F8638D9BB20D
:103C7000228D9B1A9BB2638594F84130DBB2222BD4
:103C800055D02268136843F480431360BBE71021CA
:103C90002046FFF753F8638D9BB2002B33D0638D22
:103CA0009BB2FF2B1BD9FF222285E16C00230093DE
:103CB0004FF0807389B22046FFF721F8638D9BB2E5
:103CC000228D9B1A9BB2638594F84130DBB2222B84
:103CD00013D02268136843F48043136093E7628D26
:103CE00092B22285E16C002300934FF00073D2B2B0
:103CF00089B22046FFF703F8E0E72268136843F42F
:103D0000004313607FE740212046FFF737FB7AE747
:103D100012489DE7628D92B22285E16C00904FF0CF
:103D20000073D2B289B22046FEF7E9FF9EE722680F
:103D3000136843F40043136065E711F0200F3FF46C
:103D400062AF12F0200F3FF45EAF2046FFF7F6FCA3
:103D500059E70220704700BF002000800024008047
:103D600010B502689369116813F4807F09D011F0CF
:103D7000800F06D0446C44F0010444644FF4807416
:103D8000D46113F4806F0AD011F0800F07D0426C19
:103D900042F00802426402684FF48064D46113F474
:103DA000007F0AD011F0800F07D0436C43F002036C
:103DB000436403684FF40072DA61416C11F00B0F39
:103DC00000D110BDFFF7DAFAFBE708B5806B836B13
:103DD0000BB100221A65C36B0BB100221A65FFF705
:103DE000B6FA08BD406C704790F84130DBB2202B2A
:103DF00024D190F84030012B22D0012380F84030AC
:103E0000242380F841300268136823F00103136013
:103E10000268136823F4805313600268136819431F
:103E200011600268136843F001031360202380F8D7
:103E30004130002380F84030184670470220704718
:103E40000220704790F84130DBB2202B22D190F84D
:103E50004030012B20D0012380F84030242380F80B
:103E600041300268136823F001031360026813688D
:103E700023F4706343EA012111600268136843F080
:103E800001031360202380F84130002380F8403084
:103E900018467047022070470220704798B110B54D
:103EA000044643795BB1022363712268136843F0CF
:103EB00004031360012363710020A06010BD03712F
:103EC000FDF782FBEFE70120704700002DE9F04786
:103ED00082B00546884617461E46FEF7E5FE0A9B59
:103EE0001B1A03EB0609FEF7DFFE82462B4B1B680D
:103EF000C3F3CB3309FB03F301932B689C6838EAC7
:103F000004030CBF4FF0010C4FF0000CBC4540D037
:103F1000B6F1FF3FF1D0FEF7C7FEA0EB0A0048451F
:103F20000AD2B9F1000F07D0019A02B14A46019BAB
:103F3000013B01939146E0E72A68536823F0E003D0
:103F400053606B68B3F5827F0BD0AB6AB3F5005F4B
:103F500014D0012385F85D30002385F85C30032000
:103F600018E0AB68B3F5806F18BFB3F5004FECD124
:103F70002A68136823F040031360E6E72A68136891
:103F800023F4005313602A68136843F4005313604A
:103F9000DFE7002002B0BDE8F08700BF0800002086
:103FA0002DE9F04782B006460D4614461F46002311
:103FB0008DF80330FEF778FE0A9B1B1A03EB070906
:103FC000FEF772FE8246D6F80080314B1B6803EB89
:103FD0008303C3EBC3031B0D09FB03F3019302E04F
:103FE000B7F1FF3F12D133689B6803EA050CA44583
:103FF0004AD0B5F5C06F08BF002CF1D198F80C304D
:10400000DBB28DF803309DF80330E9E7FEF74CFE94
:10401000A0EB0A0048450AD2B9F1000F07D0019A77
:1040200002B14A46019B013B01939146DBE73268AE
:10403000536823F0E00353607368B3F5827F0BD0BD
:10404000B36AB3F5005F14D0012386F85D30002316
:1040500086F85C30032018E0B368B3F5806F18BFB2
:10406000B3F5004FECD13268136823F040031360BE
:10407000E6E73268136823F400531360326813686C
:1040800043F400531360DFE7002002B0BDE8F0877F
:104090000800002070B584B004460D461646009214
:1040A0000B4600224FF4C051FFF77AFF18BB1F4B9D
:1040B0001B681F4AA2FB03235B0D4FF47A7202FBBD
:1040C00003F303936368B3F5827F1AD0039B3BB17C
:1040D000039B013B039323689B6813F0800FF5D18A
:1040E00000962B4600224FF4C0612046FFF758FF90
:1040F000B0B904B070BD236E43F0200323660320E3
:10410000F7E700962B46002280212046FFF7DEFECF
:104110000028E5D0236E43F0200323660320E8E760
:10412000236E43F0200323660320E2E7080000200B
:10413000819F5E1600286FD010B50446436A33B9DC
:104140004368B3F5827F05D00023C36102E00023FA
:10415000036143610023A36294F85D30002B52D0C9
:10416000022384F85D302268136823F04003136053
:10417000E368B3F5E06F4CD90022B3F5706F18BF58
:10418000B3F5E06F01D00023A362636803F4827388
:10419000A16801F404410B43216901F002010B43C2
:1041A000616901F001010B43A16901F400710B4346
:1041B000E16901F038010B43216A01F080010B43F2
:1041C000A16A01F4005120680B430360638B03F084
:1041D0000403616A01F010010B43616B01F00801F7
:1041E0000B43E16801F470610B43216813434B609A
:1041F0002268D36923F40063D36100202066012381
:1042000084F85D3010BD84F85C302046FDF776FA06
:10421000A6E74FF48052B0E7012070472DE9F04344
:1042200083B01D4690F85C30012B00F0F580044609
:1042300089469046012380F85C30FEF735FD07463D
:1042400094F85D60F6B2012E40F0D380B8F1000F13
:1042500018BFB9F1000F00F0CD80032384F85D3062
:1042600000232366C4F83890A4F83C80A4F83E806C
:104270002364A4F84430A4F846302365E364A368BB
:10428000B3F5004F1ED023681A6812F0400F03D117
:104290001A6842F040021A60E368B3F5E06F42D951
:1042A000636813B1B8F1010F23D1A26B23681288A0
:1042B000DA60A36B0233A363E38F9BB2013B9BB233
:1042C000E38716E02268136823F040031360226836
:1042D000136843F480431360D5E7FEF7E5FCC01B89
:1042E000A84203D3B5F1FF3F40F08E80002D00F0CF
:1042F0008D80E38F9BB2002B66D023689A6812F002
:10430000020FEAD0A26B1288DA60A36B0233A363B8
:10431000B4F83EC01FFA8CFC0CF1FF3C1FFA8CFC79
:10432000A4F83EC0E5E7636813B1B8F1010F33D1DB
:10433000E38F9BB2012B0CD9A26B23681288DA6041
:10434000A36B0233A363E38F9BB2023B9BB2E38771
:1043500022E0A26B236812781A73A36B0133A36364
:10436000E38F9BB2013B9BB2E38715E0A36B1B7805
:104370001373A36B0133A363E38F9BB2013B9BB227
:10438000E38709E0FEF790FCC01BA84202D3B5F119
:10439000FF3F3DD1002D3DD0E38F9BB2A3B12268FA
:1043A000936813F0020FEDD0E38F9BB2012BDDD9A0
:1043B000A36B1B88D360A36B0233A363E38F9BB211
:1043C000023B9BB2E387E7E73A4629462046FFF7E0
:1043D00061FE08B120232366A36833B901932368E3
:1043E000DA6801929B680193019B236E13B9002642
:1043F00000E00226012384F85D30002384F85C305D
:10440000304603B0BDE8F0830326F3E70326F1E767
:104410000326EFE70326EDE70226F1E770B4036A0F
:1044200023F001030362036A42688569124C2C4041
:104430000D68254323F002048B6823430F4C104E74
:10444000B04218BFA0420CBF0124002405D123F0C4
:104450000803CE68334323F004032CB122F44072E6
:104460004C6914438A692243426085614A68426309
:10447000036270BC704700BF8CFFFEFF000001406C
:104480000004014070B4036A23F480730362036A7A
:104490004268C569144C2C400E68264323F400730F
:1044A0008C6843EA0423114C114DA84218BFA04266
:1044B0000CBF0124002406D123F40063CD6843EA35
:1044C000052323F480633CB122F440524C6942EA54
:1044D00004128C6942EA04124260C6614A68C263EF
:1044E000036270BC704700BF8CFFFEFF00000140FC
:1044F0000004014070B4036A23F480530362036A2A
:104500004468C5690D4A2A400D6842EA052223F431
:1045100000538D6843EA0533094E0A4DA84218BF7F
:10452000B04204D124F480444D6944EA85144460C7
:10453000C2614A680264036270BC7047FF8CFFFE70
:10454000000001400004014070B4036A23F480338A
:104550000362036A4468426D0D4D15400A682A43A0
:1045600023F400338D6843EA05430A4E0A4DA842FE
:1045700018BFB04204D124F480344D6944EA0524C4
:10458000446042654A688265036270BC704700BF40
:104590008FFFFEFF000001400004014070B4036A79
:1045A00023F480130362036A4468456D0D4A2A4070
:1045B0000D6842EA052223F400138D6843EA05538F
:1045C000094E0A4DA84218BFB04204D124F48024F9
:1045D0004D6944EA8524446042654A68C2650362C5
:1045E00070BC7047FF8FFFFE0000014000040140D7
:1045F00010B4036A046A24F001040462846924F09C
:10460000F00C4CEA021223F00A030B4382610362AE
:104610005DF8044B704710B4046A24F0100404627F
:104620008469036A24F4704C4CEA023223F0A0033C
:1046300043EA0113826103625DF8044B70478368AB
:1046400023F070030B4343F00703836070470000BF
:1046500090F83D30DBB2012B3AD1022380F83D3097
:104660000268D36843F00103D36003681A4AB3F1C8
:10467000804F18BF93421DD0A2F57C42934219D0BF
:1046800002F58062934215D002F58062934211D008
:1046900002F5784293420DD002F57052934209D050
:1046A000A2F59432934205D01A6842F001021A60D2
:1046B000002070479968094A0A40062A18BFB2F5D7
:1046C000803F07D01A6842F001021A60002070474C
:1046D00001207047002070470000014007000100E2
:1046E00070477047704710B5044603681A6912F0A6
:1046F000020F11D0DA6812F0020F0DD06FF0020233
:104700001A610123037703689B6913F0030F79D0C3
:10471000FFF7E6FF0023237723681A6912F0040FDE
:1047200012D0DA6812F0040F0ED06FF004021A6192
:104730000223237723689B6913F4407F68D02046C7
:10474000FFF7CEFF0023237723681A6912F0080FC2
:1047500012D0DA6812F0080F0ED06FF008021A615A
:10476000042323772368DB6913F0030F57D0204617
:10477000FFF7B6FF0023237723681A6912F0100FA2
:1047800012D0DA6812F0100F0ED06FF010021A611A
:10479000082323772368DB6913F4407F46D0204643
:1047A000FFF79EFF0023237723681A6912F0010F99
:1047B00003D0DA6812F0010F3FD123681A6912F0B2
:1047C000800F03D0DA6812F0800F3DD123681A6998
:1047D00012F4807F03D0DA6812F0800F3BD1236897
:1047E0001A6912F0400F03D0DA6812F0400F39D185
:1047F00023681A6912F0200F03D0DA6812F0200F34
:1048000037D110BDFCF71EFC2046FFF76AFF81E799
:104810002046FCF717FC2046FFF763FF92E720468F
:10482000FCF710FC2046FFF75CFFA3E72046FCF7EF
:1048300009FC2046FFF755FFB4E76FF001021A614B
:104840002046FCF7AFFBB8E76FF080021A61204604
:1048500000F0F1FBBAE76FF480721A61204600F0B5
:10486000EBFBBCE76FF040021A612046FFF73AFF0E
:10487000BEE76FF020021A61204600F0DBFBC0E7C4
:1048800030B503683B4A904214BF4FF0000E4FF022
:10489000010EB0F1804F14BF72464EF00102AAB96A
:1048A000354CA04214BF00240124344DA8420DD041
:1048B00064B904F1804404F58234A04214BF00249A
:1048C000012405F50065A84200D01CB123F0700357
:1048D0004C682343002A33D1274A904214BF002258
:1048E0000122264CA0422BD052BB02F1804202F59D
:1048F0008232904214BF0022012204F50064A042DB
:104900001ED0EAB91E4A904214BF0022012204F5CB
:104910009A34A04214D09AB91A4A904214BF002285
:10492000012204F50064A0420AD04AB9164A904216
:1049300014BF00220122A4F59634A04200D022B177
:1049400023F4407CCB6843EA0C0323F080034A69DC
:10495000134303608A68C2620A6882620B4A90420B
:1049600014BF73464EF001030BB10B6903630123BF
:10497000436130BD000001400008004000040040D9
:1049800000440140001800400020004000040140A5
:1049900060B310B5044690F83D3013B3022384F899
:1049A0003D30214651F8040BFFF76AFF012384F8DC
:1049B000483084F83E3084F83F3084F8403084F842
:1049C000413084F8423084F8433084F8443084F82D
:1049D000453084F8463084F8473084F83D30002074
:1049E00010BD80F83C3003F0E5F9D7E701207047AF
:1049F00060B310B5044690F83D3013B3022384F839
:104A00003D30214651F8040BFFF73AFF012384F8AB
:104A1000483084F83E3084F83F3084F8403084F8E1
:104A2000413084F8423084F8433084F8443084F8CC
:104A3000453084F8463084F8473084F83D30002013
:104A400010BD80F83C3003F08DF9D7E701207047A6
:104A500070B4036A23F010030362036A4268856935
:104A6000144C2C400D6844EA052523F020038C6883
:104A700043EA0413104C114EB04218BFA0420CBFC1
:104A80000124002406D123F08003CE6843EA0613F4
:104A900023F040033CB122F440624C6942EA8402B4
:104AA0008C6942EA8402426085614A6882630362DB
:104AB00070BC7047FF8CFFFE000001400004014005
:104AC00090F83C30012B36D010B50446012380F815
:104AD0003C30142A2AD8DFE802F00B2929291029B2
:104AE0002929152929291A2929291F292929240091
:104AF0000068FFF793FC002019E00068FFF7A8FFAB
:104B0000002014E00068FFF7BDFC00200FE0006803
:104B1000FFF7F0FC00200AE00068FFF715FD002019
:104B200005E00068FFF73AFD002000E001200023C7
:104B300084F83C3010BD0220704710B4846824F41F
:104B40007F4C42EA03220A4342EA0C0282605DF88B
:104B5000044B704790F83C30012B76D010B50446DA
:104B6000012380F83C30022380F83D3002689068D1
:104B7000374B034093600B68602B4CD029D8402BF7
:104B800054D00CD9502B22D1CA6849682068FFF74D
:104B90002FFD50212068FFF752FD002005E0202B5B
:104BA0000DD009D9302B0AD00120012384F83D30E3
:104BB000002384F83C3010BD0BB1102B05D11946F1
:104BC0002068FFF73CFD0020EFE70120EDE7012022
:104BD000EBE7B3F5805F34D0B3F5005F0CD1CB6861
:104BE0004A6889682068FFF7A8FF2268936843F441
:104BF000804393600020D8E7702B24D1CB684A68AB
:104C000089682068FFF799FF2268936843F077036B
:104C100093600020C9E7CA6849682068FFF7FBFC79
:104C200060212068FFF70BFD0020BEE7CA684968D5
:104C30002068FFF7DDFC40212068FFF700FD002021
:104C4000B3E70020B1E70120AFE70220704700BFC3
:104C50008800FEFF01F01F01012303FA01FC036A33
:104C600023EA0C030362036A02FA01F10B430362B5
:104C70007047000010B504460846C9B994F83E30A4
:104C8000DBB2013B18BF0123002B40F0B2800028AB
:104C900039D1022384F83E300C2800F2AC80DFE8E2
:104CA00000F04EAAAAAA88AAAAAA8EAAAAAA940022
:104CB00004290CD0082911D00C2916D010291BD09A
:104CC00094F84330DBB2013B18BF0123DCE794F8D2
:104CD0003F30DBB2013B18BF0123D5E794F84030E9
:104CE000DBB2013B18BF0123CEE794F84130DBB2C1
:104CF000013B18BF0123C7E794F84230DBB2013B08
:104D000018BF0123C0E7042809D008280BD00C28BD
:104D10000DD010280FD0022384F84330BCE70223C3
:104D200084F83F30B8E7022384F84030B4E7022328
:104D300084F84130B0E7022384F84230ACE72268BF
:104D4000D36843F00203D360012201462068FFF7D5
:104D500081FF23682A492B4A934218BF8B4203D113
:104D60005A6C42F400425A642368254AB3F1804FDA
:104D700018BF93422FD0A2F57C4293422BD002F56C
:104D80008062934227D002F58062934223D002F5DD
:104D9000784293421FD002F5705293421BD0A2F585
:104DA0009432934217D01A6842F001021A60002030
:104DB00022E02268D36843F00403D360C4E722688A
:104DC000D36843F00803D360BEE72268D36843F09A
:104DD0001003D360B8E799680B4A0A40062A18BF47
:104DE000B2F5803F09D01A6842F001021A60002033
:104DF00002E0012000E0012010BD0020FCE700BF20
:104E000000000140000401400700010038B50546DC
:104E10000C460C296FD8DFE801F0076E6E6E3B6E12
:104E20006E6E416E6E6E47000268D36823F0020317
:104E3000D360002221462868FFF70CFF2B682F491A
:104E40002F4A934218BF8B420DD1196A41F21112B9
:104E5000114208D1196A40F24442114203D15A6CFE
:104E600022F400425A642B68196A41F2111211426D
:104E700008D1196A40F24442114203D11A6822F063
:104E800001021A60B4B9012385F83E30002033E0F6
:104E90000268D36823F00403D360CAE70268D368CA
:104EA00023F00803D360C4E70268D36823F010033B
:104EB000D360BEE7042C0AD0082C0DD00C2C10D0E7
:104EC000102C13D0012385F84330002014E0012377
:104ED00085F83F3000200FE0012385F840300020A6
:104EE0000AE0012385F84130002005E0012385F820
:104EF0004230002000E0012038BD00BF000001402A
:104F00000004014090F83C30012B45D070B40123DF
:104F100080F83C30022380F83D3003685A689C6872
:104F20001E4E1F4DAB4218BFB34203D122F4700294
:104F30004D682A4322F070020D682A435A600368C4
:104F4000164AB3F1804F18BF934217D0A2F57C42A6
:104F5000934213D002F5806293420FD002F5806233
:104F600093420BD002F57842934207D002F570527B
:104F7000934203D0A2F59432934204D124F08004EA
:104F80008A6814439C60012380F83D30002380F838
:104F90003C30184670BC704702207047000001404A
:104FA0000004014090F83C30012B3CD030B4012388
:104FB00080F83C30CB6823F440738A68134323F4B1
:104FC00080634A68134323F400630A68134323F49D
:104FD00080530A69134323F400534A69134323F4AB
:104FE00080438A6A134323F470238A6943EA0243A5
:104FF00002680E4D0E4CA24218BFAA420CD123F4F7
:1050000070034C6A43EA045323F08073CC69234352
:1050100023F00073096A0B435364002380F83C308B
:10502000184630BC70470220704700BF00000140A6
:10503000000401407047704770470000034AD2F8EF
:10504000883043F47003C2F88830704700ED00E008
:105050002DE9F04383B0D0F8008001EBC10300EBF1
:105060008303DA6D5B6D9A4254D807460C469B1A4F
:1050700001EBC10200EB8202926C9A4200D31A4605
:1050800002F103094FEA990915E006F103094FEA15
:10509000990904EBC40507EB8505E96C3B7C00939B
:1050A000B3B2E2B2404601F092FAEB6C3344EB64E7
:1050B000EB6D3344EB6508EB441303F510639B6918
:1050C0009BB24B4512D304EBC40207EB8202D16DB5
:1050D000536D99420AD24BB15B1A04EBC40207EB41
:1050E0008202966C9E42D0D31E46CEE704EBC400EB
:1050F00007EB80077A6DFB6D9A420FD804F00F041E
:105100000123A340D8F8344824EA0304C8F83448FB
:10511000002000E0012003B0BDE8F0830020FAE7A2
:1051200070B58AB0002800F097800546046890F8B2
:10513000BD343BB3032385F8BD34E36B13F4807FA8
:1051400001D100232B61286800F056FF2C4654F84B
:10515000106BEC460FCCACE80F000FCCACE80F00A6
:1051600094E803008CE803002B1D0ECB304600F0C2
:1051700061FE044658B1022385F8BD34012420465F
:105180000AB070BD80F8BC3402F080FED2E7002186
:10519000286801F031FC234616E003EBC30205EB5F
:1051A0008202012182F83D1082F83C30A2F844309E
:1051B000002182F840109164D16403EBC30205EB37
:1051C000820251650133DBB269688B42E5D316E098
:1051D00004EBC40305EB8303002283F87D2283F8EC
:1051E0007C4283F88022C3F88822C3F88C2204EB27
:1051F000C40305EB8303C3F894220134E4B2A14253
:10520000E6D82C4654F8106BEC460FCCACE80F00F7
:105210000FCCACE80F0094E803008CE803002B1DD2
:105220000ECB304600F044FF044660B9002385F8F9
:105230003830012385F8BD346B6A012B08D028680B
:1052400001F097FB9BE7022385F8BD34012496E724
:10525000284600F083FDF2E7012490E790F8BC3483
:10526000012B0ED010B50446012380F8BC34006831
:1052700000F0BCFE206801F06EFB002084F8BC0446
:1052800010BD02207047000070B504460D4600684E
:10529000066C00EB411303F530639A68216901291C
:1052A00011D038498E4256D03DB905EBC50304EB09
:1052B0008303D3F89432002B5ED0E9B2204603F08A
:1052C00019FF002070BD12F0080F09D02E498E4240
:1052D000F7D912F4004FF4D04FF400429A60F0E78F
:1052E00012F0200F02D020229A60EAE712F0280F75
:1052F000E7D125498E4206D912F4004F03D04FF46E
:1053000000429A60DDE705EBC50204EB8202D2F8A9
:1053100098121B69C3F31203CB1AC2F89C327DB9F1
:1053200005EBC50204EB8202D2F894226AB105EBC8
:10533000C50204EB8202D2F88C120B44C2F88C3204
:10534000E9B2204603F0D6FEBBE704F2C4420121D5
:1053500001F094FBF4E712F4004F03D04FF4004245
:105360009A60AEE712F0200F01D020229A60E9B2D5
:10537000204603F0BFFEA4E704F2C442002101F07E
:105380007DFB9AE70A31544F0A30544F38B5044632
:1053900003681D6C03EB4113D3F8081B0E4A9542BA
:1053A00007D903F5306311F4004F02D04FF40042E7
:1053B0009A60204603F096FE074B9D4202D923696E
:1053C000012B01D0002038BD04F2C4420121206825
:1053D00001F054FBF6E700BF0A30544F90F8BC349C
:1053E000012B0DD010B50446012380F8BC3480F8A1
:1053F0003810006801F09FFA002084F8BC0410BD4A
:105400000220704738B505468C4611F0800F29D12F
:1054100001F00F0E0EEBCE04A40004F51E7404443C
:10542000211D0EEBCE0E00EB8E0E00208EF87D02BD
:105430000CF00F0C81F800C0CA600B714A780AB1F9
:10544000A1F808C0022B1DD095F8BC34012B1CD04C
:10545000012385F8BC34286800F00CFF002085F893
:10546000BC0438BD01F00F0000EBC00189003831E9
:105470002944043100EBC00005EB8000012480F8D2
:105480003D40D5E700234B71DEE70220E9E710B588
:1054900004460A4611F0800F20D101F00F0000EB06
:1054A000C0039B0003F51E732344191D00EBC000CD
:1054B00004EB8000002380F87D3202F00F020A70B6
:1054C00094F8BC34012B19D0012384F8BC34206833
:1054D00000F01EFF002084F8BC0410BD01F00F0096
:1054E00000EBC0039B0038332344191D00EBC000C0
:1054F00004EB8000012380F83D30DEE70220ECE77A
:1055000010B501F00F0404EBC401890001F51E7110
:105510000144043104EBC40C00EB8C0CCCF88C225D
:10552000CCF894320023CCF89C328CF87D328CF885
:105530007C420369012B06D064B9DAB2006800F03E
:1055400057FF002010BD04EBC40C00EB8C0CCCF812
:105550009022F1E7DAB2006801F050F8F1E701F0CB
:105560000F0101EBC10100EB8101D1F89C027047F2
:1055700010B501F00F0404EBC40189003831014477
:10558000043104EBC40C00EB8C0CCCF84C20CCF8B0
:1055900054300023CCF85C3001238CF83D308CF87B
:1055A0003C400369012B06D064B9DAB2006800F010
:1055B0001FFF002010BD04EBC40C00EB8C0CCCF8DA
:1055C0005020F1E7DAB2006801F018F8F1E738B5D9
:1055D00001F00F054268954239D804460B4611F098
:1055E000800F1FD101EBC101890001F51E7101443B
:1055F000043103EBC30300EB8303002283F87D2215
:1056000001238B700D7094F8BC34012B21D0012341
:1056100084F8BC34206801F033F98DB1002084F89F
:10562000BC0438BD05EBC5018900383101440431A3
:1056300005EBC50300EB8303012283F83D20DFE780
:1056400004F2C442217C206801F018FAE6E7012048
:10565000E7E70220E5E701F00F034268934231D803
:1056600010B5044611F0800F1ED103EBC301890071
:1056700001F51E710144043103EBC30200EB820209
:10568000002082F87D0200228A700B7094F8BC34EE
:10569000012B19D0012384F8BC34206801F01DF9D6
:1056A000002084F8BC0410BD03EBC301890038312D
:1056B0000144043103EBC30200EB8202012082F8B3
:1056C0003D00E0E7012070470220ECE708B511F04B
:1056D000800F0CD101F00F0101EBC101890001F530
:1056E0001E7101440431006800F012FF08BD01F092
:1056F0000F0101EBC1018900383101440431F2E7A7
:105700002DE9F04F83B004460568284601F070F992
:1057100010B103B0BDE8F08F0646206801F037F9FC
:105720000028F6D005F50067BB68C3F30D23C4F865
:10573000FC34206801F02BF910F0020F04D022682D
:10574000536903F002035361206801F020F910F05F
:10575000100F14D02268936923F010039361D5F8D9
:10576000208008F00F09C8F34343022B69D0062BB1
:1057700000F08D802268936943F0100393612068E4
:1057800001F005F910F4002F40F09380206801F03B
:10579000FEF810F4802F40F0FC80206801F0F7F84C
:1057A0000028C0F27F81206801F0F1F810F4006F4A
:1057B00009D0BB6813F0010F40F08C812268536957
:1057C00003F400635361206801F0E1F810F0006F0A
:1057D00015D02268536903F00063536194F8F434E0
:1057E000002B40F07B81012184F8F41423685B6D69
:1057F000C3F38303C4F8F834204600F0C3FA2068EA
:1058000001F0C5F810F4805F40F06C81206801F071
:10581000BEF810F4005F40F0B881206801F0B7F8DE
:1058200010F0080F40F0C981206801F0B0F810F0C6
:10583000800F00F0DC81AB6923F08003AB610126AF
:10584000C5E147F6F07318EA030F93D04FEA181B2F
:105850004FEAC903019309EBC90A04EB8A0AC8F3AA
:105860000A12DAF88C12284600F0E0FFCBF30A0B9C
:10587000DAF88C325B44CAF88C32019B4B4404EB5F
:105880008303D3F89C325B44CAF89C3272E7082247
:1058900004F2C441284600F0C9FFC8F30A1809EB16
:1058A000C90204EB8202D2F89C324344C2F89C3213
:1058B00060E7206801F06FF88046B14635E005EBFF
:1058C00049130122C3F8082B49462046FFF7DCFCA8
:1058D0003CE005EB49130822C3F8082B4946204653
:1058E000FFF754FD35E009EBC90304EB830393F89C
:1058F0007F32012B41D005EB49130222C3F8082B5C
:105900001AF0200F04D005EB49132022C3F8082B0E
:105910001AF4005F05D005EB49134FF40052C3F8A9
:10592000082B09F101094FEA5808B8F1000F3FF4BC
:105930002DAF18F0010FF4D05FFA89FB59462068AB
:1059400001F039F8824610F0010FB8D11AF0080FB3
:10595000BFD11AF0100F04D005EB49131022C3F881
:10596000082B1AF0020FCBD06B6913F0800FBAD05E
:105970007B6843F480637B60B5E709EBC90304EB04
:105980008303002283F87F225946204603F004FC5B
:10599000B1E7206801F007F88046B14625E0594696
:1059A000204603F0B3FB1AF0080F04D005EB4913AF
:1059B0000822C3F808291AF0100F04D005EB491388
:1059C0001022C3F808291AF0400F04D005EB491340
:1059D0004022C3F808291AF0020F40D11AF0800FB4
:1059E0005BD109F101094FEA5808B8F1000F3FF403
:1059F000D4AE18F0010FF4D05FFA89FB5946206845
:105A000000F0E2FF824610F0010FCCD009F00F0346
:105A1000012101FA03F27B6B23EA02037B6305EBAE
:105A20004913C3F8081923698B42B8D109EBC9039C
:105A300004EB8303996CDA6C0A44DA64B9F1000F61
:105A4000ADD109EBC90304EB83035B6D002BA6D139
:105A500004F2C4420121206801F010F89FE7494692
:105A6000284600F0CFFA09EBC90304EB830393F84F
:105A70003F30012B05D005EB49130222C3F808295A
:105A8000ACE709EBC90304EB8303002283F83F2052
:105A90005946204603F086FBEDE749462046FFF7CE
:105AA000D7FA9EE77B6823F001037B6094F8F43417
:105AB000012B08D0204603F069FB2268536903F0EC
:105AC000004353616FE6002184F8F414204600F08F
:105AD00059F9F2E7204603F041FB6FE6204603F058
