:020000040800F2
:100000000000042069A20008AD280008B1280008FB
:10001000ED280008EF280008F12800080000000083
:10002000000000000000000000000000F3280008AD
:10003000F528000800000000F7280008F92800084B
:10004000B9A20008B9A20008B9A20008B9A2000824
:10005000B9A20008B9A20008B9A20008B9A2000814
:10006000B9A20008B9A20008B9A200080129000835
:10007000B9A20008B9A20008112900082129000826
:10008000B9A2000831290008B9A20008B9A20008E5
:10009000B9A20008B9A20008B9A20008B9A20008D4
:1000A000B9A2000841290008B9A200085129000896
:1000B000B9A20008B9A20008B9A200086129000885
:1000C00071290008B9A20008B9A20008B9A2000865
:1000D00081290008B9A20008B9A20008B9A2000845
:1000E000B9A20008B9A20008B9A20008B9A2000884
:1000F000B9A20008B9A2000891290008B9A2000815
:10010000B9A20008B9A20008B9A20008B9A2000863
:10011000B9A20008B9A20008A1290008B129000865
:10012000B9A20008B9A20008B9A20008B9A2000843
:10013000B9A200080000000000000000000000005C
:10014000000000000000000000000000B9A200084C
:10015000B9A20008B9A20008B9A20008B9A2000813
:10016000B9A20008B9A20008B9A20008B9A2000803
:10017000B9A20008C129000800000000000000002A
:10018000B9A20008B9A20008B9A20008B9A20008E3
:10019000B9A20008B9A2000800000000B9A2000836
:1001A000000000000000000000000000B9A20008EC
:1001B000B9A20008B9A20008000000000000000079
:1001C000000000000000000000000000000000002F
:1001D000000000000000000000000000B9A20008BC
:1001E00001F0FF01102A2BDB10F0070F08D010F8E8
:1001F000013B013A8B422DD010F0070F42B3F6D1EC
:10020000F0B441EA012141EA014122F007047FF004
:1002100000070023F0E80256083C85EA010586EA5B
:10022000010685FA47F5A3FA87F586FA47F6A5FA97
:1002300087F68EB9EED1F0BC01F0FF0102F00702A3
:1002400032B110F8013B013A83EA010313B1F8D14E
:100250000020704701387047002D06BF354603382F
:10026000073815F0010F07D1013015F4807F02BF68
:10027000013015F4C03F0130F0BC0138704700BFB9
:10028000034613F8012B002AFBD1181A01387047D6
:1002900081F0004102E000BF83F0004330B54FEA37
:1002A00041044FEA430594EA050F08BF90EA020FA4
:1002B0001FBF54EA000C55EA020C7FEA645C7FEA37
:1002C000655C00F0E2804FEA5454D4EB5555B8BF5A
:1002D0006D420CDD2C4480EA020281EA030382EACB
:1002E000000083EA010180EA020281EA0303362D5D
:1002F00088BF30BD11F0004F4FEA01314FF4801C30
:100300004CEA113102D0404261EB410113F0004F41
:100310004FEA03334CEA133302D0524263EB4303F8
:1003200094EA050F00F0A780A4F10104D5F1200E96
:100330000DDB02FA0EFC22FA05F2801841F10001F1
:1003400003FA0EF2801843FA05F359410EE0A5F1C5
:1003500020050EF1200E012A03FA0EFC28BF4CF0F6
:10036000020C43FA05F3C01851EBE37101F00045AC
:1003700007D54FF0000EDCF1000C7EEB00006EEBB9
:100380000101B1F5801F1BD3B1F5001F0CD3490843
:100390005FEA30004FEA3C0C04F101044FEA44529A
:1003A00012F5800F80F09A80BCF1004F08BF5FEA21
:1003B000500C50F1000041EB045141EA050130BD01
:1003C0005FEA4C0C404141EB0101013C28BFB1F513
:1003D000801FE9D291F0000F04BF01460020B1FA5E
:1003E00081F308BF2033A3F10B03B3F120020CDA31
:1003F0000C3208DD02F1140CC2F10C0201FA0CF00F
:1004000021FA02F10CE002F11402D8BFC2F1200C73
:1004100001FA02F120FA0CFCDCBF41EA0C01904029
:10042000E41AA2BF01EB0451294330BD6FEA040472
:100430001F3C1CDA0C340EDC04F11404C4F120025D
:1004400020FA04F001FA02F340EA030021FA04F36F
:1004500045EA030130BDC4F10C04C4F1200220FAC6
:1004600002F001FA04F340EA0300294630BD21FA04
:1004700004F0294630BD94F0000F83F4801306BFCA
:1004800081F480110134013D4EE77FEA645C18BFBE
:100490007FEA655C29D094EA050F08BF90EA020F55
:1004A00005D054EA000C04BF1946104630BD91EA4D
:1004B000030F1EBF0021002030BD5FEA545C05D150
:1004C0004000494128BF41F0004130BD14F580048F
:1004D0003CBF01F5801130BD01F0004545F0FE4103
:1004E00041F470014FF0000030BD7FEA645C1ABF38
:1004F000194610467FEA655C1CBF0B46024650EA6F
:10050000013406BF52EA033591EA030F41F400219A
:1005100030BD00BF90F0000F04BF0021704730B520
:100520004FF4806404F132044FF000054FF00001F5
:1005300050E700BF90F0000F04BF0021704730B5B6
:100540004FF4806404F1320410F0004548BF40428B
:100550004FF000013EE700BF42004FEAE2014FEAE0
:1005600031014FEA02701FBF12F07F4393F07F4FBB
:1005700081F06051704732F07F4208BF704793F0BE
:100580007F4F04BF41F40021704730B54FF46074D1
:1005900001F0004521F000411CE700BF50EA0102D4
:1005A00008BF704730B54FF000050AE050EA01027D
:1005B00008BF704730B511F0004502D5404261EBED
:1005C00041014FF4806404F132045FEA915C3FF42E
:1005D000D8AE4FF003025FEADC0C18BF03325FEACB
:1005E000DC0C18BF033202EBDC02C2F1200300FA7C
:1005F00003FC20FA02F001FA03FE40EA0E0021FAA1
:1006000002F11444BDE600BF70B54FF0FF0C4CF48E
:10061000E06C1CEA11541DBF1CEA135594EA0C0F40
:1006200095EA0C0F00F0DEF82C4481EA030621EA7B
:100630004C5123EA4C5350EA013518BF52EA0335B6
:1006400041F4801143F4801338D0A0FB02CE4FF068
:100650000005E1FB02E506F00042E0FB03E54FF098
:100660000006E1FB03569CF0000F18BF4EF0010E90
:10067000A4F1FF04B6F5007F64F5407404D25FEA8C
:100680004E0E6D4146EB060642EAC62141EA55513F
:100690004FEAC52040EA5E504FEACE2EB4F1FD0C81
:1006A00088BFBCF5E06F1ED8BEF1004F08BF5FEAFF
:1006B000500E50F1000041EB045170BD06F00046B1
:1006C00046EA010140EA020081EA0301B4EB5C045E
:1006D000C2BFD4EB0C0541EA045170BD41F4801156
:1006E0004FF0000E013C00F3AB8014F1360FDEBF7B
:1006F000002001F0004170BDC4F10004203C35DA57
:100700000C341BDC04F11404C4F1200500FA05F3D9
:1007100020FA04F001FA05F240EA020001F000427A
:1007200021F0004110EBD37021FA04F642EB0601F0
:100730005EEA430E08BF20EAD37070BDC4F10C041A
:10074000C4F1200500FA04F320FA05F001FA04F2DE
:1007500040EA020001F0004110EBD37041F10001CA
:100760005EEA430E08BF20EAD37070BDC4F12005D5
:1007700000FA05F24EEA020E20FA04F301FA05F23D
:1007800043EA020321FA04F001F0004121FA04F2E5
:1007900020EA020000EBD3705EEA430E08BF20EAB5
:1007A000D37070BD94F0000F0FD101F000464000EF
:1007B00041EB010111F4801F08BF013CF7D041EA71
:1007C000060195F0000F18BF704703F00046520075
:1007D00043EB030313F4801F08BF013DF7D043EA46
:1007E0000603704794EA0C0F0CEA135518BF95EAFC
:1007F0000C0F0CD050EA410618BF52EA4306D1D183
:1008000081EA030101F000414FF0000070BD50EAA1
:10081000410606BF1046194652EA430619D094EA2B
:100820000C0F02D150EA013613D195EA0C0F05D115
:1008300052EA03361CBF104619460AD181EA030169
:1008400001F0004141F0FE4141F470014FF0000021
:1008500070BD41F0FE4141F4780170BD70B54FF0BC
:10086000FF0C4CF4E06C1CEA11541DBF1CEA13553C
:1008700094EA0C0F95EA0C0F00F0A7F8A4EB05041E
:1008800081EA030E52EA03354FEA013100F0888015
:100890004FEA03334FF0805545EA131343EA1263DE
:1008A0004FEA022245EA111545EA10654FEA002693
:1008B0000EF000419D4208BF964244F1FD0404F54C
:1008C000407402D25B084FEA3202B61A65EB0305A8
:1008D0005B084FEA32024FF480104FF4002CB6EB65
:1008E000020E75EB030E22BFB61A754640EA0C00E5
:1008F0005B084FEA3202B6EB020E75EB030E22BF25
:10090000B61A754640EA5C005B084FEA3202B6EB65
:10091000020E75EB030E22BFB61A754640EA9C0024
:100920005B084FEA3202B6EB020E75EB030E22BFF4
:10093000B61A754640EADC0055EA060E18D04FEAB2
:10094000051545EA16754FEA06164FEAC30343EA52
:1009500052734FEAC2025FEA1C1CC0D111F4801F1F
:100960000BD141EA00014FF000004FF0004CB6E718
:1009700011F4801F04BF01430020B4F1FD0C88BFB7
:10098000BCF5E06F3FF6AFAEB5EB030C04BFB6EBC2
:10099000020C5FEA500C50F1000041EB045170BDB5
:1009A0000EF0004E4EEA113114EB5C04C2BFD4EBE2
:1009B0000C0541EA045170BD41F480114FF0000E66
:1009C000013C90E645EA060E8DE60CEA135594EAE2
:1009D0000C0F08BF95EA0C0F3FF43BAF94EA0C0FE5
:1009E0000AD150EA01347FF434AF95EA0C0F7FF45A
:1009F00025AF104619462CE795EA0C0F06D152EAAE
:100A000003353FF4FDAE1046194622E750EA410691
:100A100018BF52EA43067FF4C5AE50EA41047FF4A2
:100A20000DAF52EA43057FF4EBAE12E74FF0FF3C07
:100A300006E000BF4FF0010C02E000BF4FF0010CD8
:100A40004DF804CD4FEA410C7FEA6C5C4FEA430C51
:100A500018BF7FEA6C5C1BD001B050EA410C0CBFA0
:100A600052EA430C91EA030F02BF90EA020F002002
:100A7000704710F1000F91EA030F58BF994208BF69
:100A800090422CBFD8176FEAE37040F00100704726
:100A90004FEA410C7FEA6C5C02D150EA013C07D17D
:100AA0004FEA430C7FEA6C5CD6D152EA033CD3D0C8
:100AB0005DF8040B704700BF8446104662468C46C2
:100AC0001946634600E000BF01B5FFF7B7FF0028F5
:100AD00048BF10F1000F01BD4DF808EDFFF7F4FF1E
:100AE0000CBF012000205DF808FB00BF4DF808EDA9
:100AF000FFF7EAFF34BF012000205DF808FB00BFCC
:100B00004DF808EDFFF7E0FF94BF012000205DF8ED
:100B100008FB00BF4DF808EDFFF7CEFF94BF0120A2
:100B200000205DF808FB00BF4DF808EDFFF7C4FF9B
:100B300034BF012000205DF808FB00BF4FEA410CE4
:100B40007FEA6C5C02D150EA013C0AD14FEA430CC7
:100B50007FEA6C5C02D152EA033C02D14FF0000004
:100B600070474FF0010070474A0011D212F5001291
:100B700011D20DD56FF47873B3EB62520ED44FEAF5
:100B8000C12343F0004343EA505323FA02F0704775
:100B90004FF00000704750EA013002D14FF0FF30B3
:100BA00070474FF0000070474FEA4102B2F1E04356
:100BB00024BFB3F5001CDCF1FE5C0DD901F0004C44
:100BC0004FEAC0024CEA5070B2F1004F40EB830094
:100BD00008BF20F00100704711F0804F21D113F1C0
:100BE0003872BCBF01F00040704741F480114FEAF9
:100BF0005252C2F11802C2F1200C10FA0CF320FA82
:100C000002F018BF40F001004FEAC1234FEAD3239E
:100C100003FA0CFC40EA0C0023FA02F34FEA430308
:100C2000CCE77FEA625307D150EA01331EBF4FF091
:100C3000FE4040F44000704701F0004040F0FE40AC
:100C400040F40000704700BF53B94AB9002908BFFB
:100C500000281CBF4FF0FF314FF0FF3000F00CB800
:100C6000ADF1080C6DE904CE0CF0DEFFDDF804E018
:100C7000DDE9022304B07047704700BF10B5054C92
:100C8000237833B9044B13B10448AFF30080012338
:100C9000237010BDD004002000000000E4DE000836
:100CA00008B5034B1BB103490348AFF3008008BDEF
:100CB00000000000D4040020E4DE000838B504463B
:100CC000017042700025857005718022294605302B
:100CD00009F0BCFF4FF48062294604F1850009F059
:100CE000B5FF012038BD08B580220021053009F08C
:100CF000ADFF012008BD844671B9A0209CF80030EA
:100D00000BB1831CD8B29CF801300BB10430C0B2D7
:100D10000AB10830C0B27047A120EFE770B582B0C9
:100D20001D46837813B1002002B070BD04461646FC
:100D3000012383700A460021FFF7DDFF0146ADB2B3
:100D40000195053400940223B2B2044802F076FE05
:100D500008B90120E8E70020E6E700BFAC05002065
:100D600070B582B01D460379EBB904461646B5F559
:100D7000806F01D3002017E0012303710A46194652
:100D8000FFF7B9FF0146ADB2019585340094022307
:100D9000B2B2064802F0ECFE08B9012004E000F00F
:100DA00075FC012000E0002002B070BDAC05002001
:100DB00000B583B0164B1A6B42F400121A631B6B1A
:100DC00003F400130193019B002211460B2002F053
:100DD00009F90B2002F016F9002211460E2002F04C
:100DE00001F90E2002F00EF9002211460F2002F048
:100DF000F9F80F2002F006F900221146112002F046
:100E0000F1F8112002F0FEF803B05DF804FB00BF1A
:100E1000003802402DE9F0438DB000240794089477
:100E200009940A940B94414B1A6B42F010021A6316
:100E30001A6B02F010020192019A1A6B42F004023E
:100E40001A631A6B02F004020292029A1A6B42F0C1
:100E500080021A631A6B02F080020392039A1A6BE3
:100E600042F001021A631A6B02F001020492049A22
:100E70001A6B42F002021A631A6B02F00202059228
:100E8000059A1A6B42F008021A631B6B03F0080301
:100E90000693069B264F22460821384602F0C5FCE1
:100EA00001221021384602F0C0FCDFF8888022467B
:100EB0000121404602F0B9FCDFF87C9022461F2158
:100EC000484602F0B2FC0823079301250895022644
:100ED00009960A9607A9384602F012FB10230793D9
:100EE000089509950A9507A9384602F009FB4FF4C1
:100EF000005307930894099607A9404602F000FBA7
:100F00000795089509960A9507A9404602F0F8FA50
:100F10001F2307930895099603230A9307A94846B8
:100F200002F0EEFA0DB0BDE8F08300BF00380240D9
:100F30000010024000080240000C024070B586B06C
:100F4000002401940294039404940594124B1A6BA8
:100F500042F010021A631B6B03F010030093009B16
:100F600008230193022603960C4D01A9284602F09E
:100F7000C7FA202301930294039601A9284602F0A0
:100F8000BFFA402301930294039601A9284602F078
:100F9000B7FA06B070BD00BF003802400010024032
:100FA00008B51248124B0360124B43600023836064
:100FB0000122C260036143618361C361036202F085
:100FC000DFFC50B90021094803F0B6FC40B900210C
:100FD000064803F0DFFC30B908BD00F057FBF1E72D
:100FE00000F054FBF3E700F051FBF5E7AC050020FF
:100FF00000540040E41F500070B5A8B00446002122
:1010000023912491259126912791802203A809F00C
:101010001DFE22683D4B9A4201D028B070BD4FF4AE
:101020008043039303A804F0E5FE002864D1384E02
:10103000336B43F002033363336B03F0020301931A
:10104000019BC0232393122324930025259503237A
:1010500026930423279323A92E4802F051FA336CD8
:1010600043F400133364336C03F400130293029BC4
:1010700029482A4B03604FF0007343608560C560C8
:101080004FF48063036145618561C5614FF480332E
:101090000362456202F05AF8002830D11E4BE36328
:1010A0009C631F481F4B03604FF000734360402355
:1010B00083600023C3604FF48062026143618361F7
:1010C000C3614FF480320262436202F03FF8C8B954
:1010D000134BA3639C63002203211F2001F082FFB6
:1010E0001F2001F08FFF00220321202001F07AFF52
:1010F000202001F087FF90E700F0C8FA97E700F0A2
:10110000C5FACBE700F0C2FAE2E700BF00540040A6
:1011100000380240000402404C05002010600240EC
:10112000EC040020A060024010B50446C3684BB92F
:101130000823C360006868B109F06CFAB0F1FF3FA2
:1011400007D02061E368013BE3602069D84000F0EC
:10115000010010BD4FF0FF30FBE7000010B5044662
:101160004369013B436121B1027E012199400A4359
:10117000027603B110BD6423012204F11801044872
:1011800005F0DAFA0823636100232376F2E700BF53
:10119000700E002070B50546002600E021464C1E6A
:1011A00000290CDD2846FFF7BFFFB0F1FF3F05D057
:1011B0000028F3D00123A3401E43EFE70646304644
:1011C00070BD38B5054604E000212846FFF7C6FF8C
:1011D00021464C1E0029F7DC38BD000038B5044616
:1011E0000023C3600822426103762021FFF7D2FF6B
:1011F000054620212046FFF7CDFF384A384B98425C
:1012000008BF95420DD0012565E002212046FFF779
:10121000C1FF01462046FFF7D4FF01212046FFF71A
:101220009DFF2046FFF780FF0028EED12046FFF704
:101230007BFFC8B92046FFF777FF10BB2046FFF7BA
:1012400073FF58BB2046FFF76FFF0546D8B3172141
:101250002046FFF79FFF01462046FFF7B2FF01211E
:101260002046FFF77BFFDCE705212046FFF792FFD2
:1012700001462046FFF7A5FF01212046FFF76EFF3C
:10128000CFE708212046FFF785FF01462046FFF7FC
:1012900098FF01212046FFF761FFC2E706212046A3
:1012A000FFF778FF07E02046FFF73EFF01462046A4
:1012B000FFF754FF2846451E0028F4D1012120469F
:1012C000FFF74CFFADE717212046FFF763FF01460C
:1012D0002046FFF776FF284638BD00BF4345434907
:1012E00052504D4F10B5044608461146054A09F0C4
:1012F00093FC206020B12046FFF770FF012010BD55
:101300000020FCE700DF00084188002936D070B5D6
:10131000054611F07F0618BF012616EBD11601D144
:10132000002070BD406809F08BF810B1686000249F
:1013300014E0686808F0CEFF00206860F1E7686894
:1013400003EBC4110E4A1A4492F88520425401332B
:10135000DBB213F0800FF2D00134A4B2B4420BD24E
:10136000E201802312B201210548FFF7F9FC044B8A
:101370001B79002BFBD1ECE70120D2E7002070475E
:101380001406002010B504461023B02200210648A0
:10139000FFF7E6FC044B1B79002BFBD1024BB3F8A3
:1013A00091306380012010BD1406002070B582B01A
:1013B000054600260670FFF7E5FF2846FFF7A4FF65
:1013C000224C32460821204602F02FFA32461021E4
:1013D000204602F02AFA012001F09AFD0122102194
:1013E000204602F022FA032001F092FD012208219A
:1013F000204602F01AFA8DF80760642301220DF1ED
:101400000701134805F098F932460821204602F0FA
:101410000CFA6A8869680F48FFF764FF2B78002B85
:10142000FCD0002408E0642301220DF107010848E4
:1014300005F082F90134E4B2092CF4D9686808F0A7
:1014400049FF00236B60012002B070BD0010024014
:10145000700E00209C0A0020BFF34F8FBFF36F8FE8
:10146000084B0022C3F85022BFF34F8FBFF36F8F9A
:101470005A6942F400325A61BFF34F8FBFF36F8F46
:10148000704700BF00ED00E010B4154B0022C3F818
:101490008420BFF34F8FD3F88040C4F34E3000E078
:1014A0001846C4F3C90243F6E07303EA401343EA63
:1014B00082730B49C1F860321346013A002BF2D116
:1014C000431E0028ECD1BFF34F8F4B6943F48033A8
:1014D0004B61BFF34F8FBFF36F8F5DF8044B7047C5
:1014E00000ED00E0014B00221A707047000600205A
:1014F000014B00229A70704714060020014B002215
:101500001A7170471406002038B504460268294B4A
:101510009A4208D02268284B9A4230D02268274B42
:101520009A4237D038BD01221021254802F07DF9BA
:101530004FF40051234802F071F9003818BF012020
:10154000214B187078B1012211461D4802F06DF947
:1015500020211E4802F062F958B1012202211848E8
:1015600002F063F9D6E700220121154802F05DF987
:10157000EEE700220221124802F057F9CAE7144DA3
:10158000144BD3E90023D5E90001FEF787FEC5E936
:101590000001C3E7104B5B78002BC3D00E4A537891
:1015A0000133DBB253701E2BBCD9134600225A7094
:1015B000B8E700BF000001400010004000140040E8
:1015C000000C0240000802400C06002000100240FF
:1015D000980D002008DF0008BC0A002038B504463A
:1015E0000268254B9A4204D02268244B9A4221D0AB
:1015F00038BD037F012B0ED0237F022BF4D1204D69
:1016000000220121284602F010F90022022128467A
:1016100002F00BF9E8E700221021194802F005F961
:10162000184B93ED000B00F047F9236858632368CB
:101630009863E1E7144C204600F0DCF9637ADBB2F2
:10164000042B11D0104B5B7ADBB2042B06D00E4B6F
:1016500093F88F3013B90C4B9B7A4BB100220821C1
:10166000074802F0E2F8C3E7204600F0A5F9E9E7F1
:10167000054800F0CDFBF1E7000001400004014007
:10168000000C0240980D0020BC0A002008B572B67C
:101690000D4C01221146204602F0C7F8012202211A
:1016A000204602F0C2F801220421204602F0BDF8D3
:1016B00001220821204602F0B8F80122102120461C
:1016C00002F0B3F8E4E700BF000C024000B595B0AB
:1016D0003022002108A809F0B9FA002303930493EB
:1016E000059306930793234B1A6C42F080521A64B9
:1016F0001B6C03F080530193019B1F4B1A6842F44B
:1017000040421A601B6803F440430293029B01238A
:1017100008934FF4A023099302230E934FF4800201
:101720000F92192210924FF4D8721192129309233A
:10173000139308A804F034F8B0B903F0F3FFA8B984
:101740000F23039302230493002305934FF4A05324
:1017500006934FF480530793072103A804F08EFAF1
:1017600030B915B05DF804FBFFF790FFFFF78EFF6F
:10177000FFF78CFF003802400070004008B5FFF70B
:101780006BFEFFF781FE01F09FFB2A4B002000213A
:10179000C3E90001284C012211462046FFF78EFACA
:1017A0002146264800F043FCFFF790FFFFF732FB8D
:1017B000FFF7FEFA00F0C4FE00F0E8FE00F00CFFB8
:1017C000FFF7EEFB01F0A6F901F07CF901F00AF950
:1017D00001F0BCFA00F07CFE01F0C6F9184C20467E
:1017E00005F0E8FB174805F0E5FB174805F0E2FBBC
:1017F0000021204605F0F0FE0421204605F0ECFE15
:101800000021124805F0E8FE06F082FF1048FFF7BD
:10181000CDFD104800F030F80F4804F077FFFFF7D7
:101820008DFB0B4B1B78002BFBD00A4800F030F8E7
:10183000F7E700BF980D002014060020BC0A002026
:1018400080100020E80F0020341000209C0F0020A2
:101850000C06002000060020700E002008B503F0E2
:1018600069F8C0B2042803D1024B0122DA7008BD26
:10187000FFF70CFF1406002008B5002202700121BA
:10188000024801F0D2FF012008BD00BF000802405D
:1018900003780BB10120704710B504460923421CA0
:1018A0000349044805F048F801232370012010BDC6
:1018B00000000020D40E002008B551EC100BFFF7FB
:1018C00073F900EE100A0AF0E3FA10EE100AFEF7C0
:1018D00043FE9FED0D1B41EC100B0AF061FA51EC39
:1018E000100B00220A4BFEF78FFE0022094BFEF779
:1018F000D5FC41EC100B0AF00FFB51EC100BFFF77D
:1019000033F9C0B208BD00BF000000000000004075
:101910000000494000001440002918BF002843D0AF
:1019200070B5154604460E46D0F898301344B3F50A
:10193000006F3BD8D0F894302BB3D0F89400D4F893
:101940009810114408F07CFDA0B3C4F89400D4F8BA
:101950009400D4F898302A463146184409F07AFAAF
:10196000D4F898302B44C4F89830D4F89830C3F3A6
:10197000C71384F89130D4F8983003F07F0384F8CB
:101980009230012070BD104608F09CFCC4F8940011
:10199000D4F8943063B1C4F89850D4F894002A462F
:1019A000314609F057FAE0E7002070470020E9E7E8
:1019B0000020E7E70020E5E70378A3B110B504466F
:1019C000002303704278531CDBB243700AB101203C
:1019D00010BD42220549FFF79FFF0F220449204610
:1019E000FFF79AFFF3E70120704700BF2C010020AA
:1019F0001801002008B5034690F89100C0B293F892
:101A00009310C90193F892200AB10130C0B20028A6
:101A100049D0D3F89420E2B193F88F20002A41D125
:101A200083F8902093F89320D2B200F1FF3C6245F6
:101A300015D093F89320D2B2944531DD012283F87A
:101A4000902093F893200132D2B283F89320802221
:101A500010E0D3F89820002ADED1012023E093F88B
:101A60009220D2B293F893C00CF1010C5FFA8CFC77
:101A700083F893C093F893C05FFA8CFC844506D337
:101A8000002083F8910083F8920083F8930093F884
:101A90008E00D3F89430194406F012FF012002E0C2
:101AA0000022E7E7012008BD10B590B00446406869
:101AB000402320220021FFF753F963681B79002B94
:101AC000FBD16368002283F8C4206168402285311D
:101AD000684609F0C3F838220C492046FFF71CFF7E
:101AE00008220B492046FFF717FF6846FEF7C8FBA0
:101AF000024669462046FFF70FFF032205492046AC
:101B0000FFF70AFF012010B010BD00BFE000002069
:101B1000D8000020280100202DE9F041002878D0CD
:101B2000044690F88D30DBB2012B74D901250026D4
:101B300009E005F1AA0304EB83035868FEF7A0FB54
:101B400001300644013594F88D30DBB2AB4206DD3E
:101B500005F1AA0304EB83035B68002BE9D194F839
:101B60008D30C3F13F03B34259D30EB9002653E081
:101B7000402008F0A7FB0546002852D0002302E0D1
:101B80000022EA5401333F2BFADDA846012600E08B
:101B9000013694F88D30DBB2B34221DD06F1AA03A1
:101BA00004EB83035B68DBB106F1AA0704EB87074C
:101BB0007968404609F046F97868FEF761FB804491
:101BC00094F88D30013BB342E2DD06F1AB0304EB48
:101BD00083035B68002BDBD0202308F8013BD7E7A9
:101BE0006068FFF780F8064601281CD100233F2BD0
:101BF00005DC6268E95C1A4451710133F7E7284655
:101C000008F068FB6068402320220021FFF786F877
:101C100002E0002600E000263046BDE8F081002604
:101C2000FAE70026F8E70026F6E70000037ADBB2C1
:101C3000022B00F0E1802DE9F043BBB00446042301
:101C400043720023C0F8A432D0F8B00208F035FB8C
:101C5000C4F8A402D4F8A432B3F5803F18D200230C
:101C6000369337933893D4F8A432399363689B78CA
:101C7000C3B9002293B20F2B1BD8616802F1E800B0
:101C8000684410F8100C0A44507101331AB2F1E79D
:101C90000025C4F8A452482259492046FFF73CFECB
:101CA0002846A6E0372257492046FFF735FE002098
:101CB0009FE060681023B0220021FFF72FF86368CF
:101CC0009E78002EFBD1D4F8A40208F0FBFAC4F8E9
:101CD000A802D4F8A832BBB102232372D4F8A02200
:101CE000D4F8A4329A42F9D112A800F033FBD4F808
:101CF000A812D4F8A42212A800F056FB2EA912A80C
:101D000000F072FB00250FE001232372002070E039
:101D100005F1E8036B4413F8302C3B4901AB03EBAE
:101D2000450008F0DFFD01351F2DF1DD00238DF8A2
:101D30004430402201A92046FFF7EEFD032233493B
:101D40002046FFF7E9FDD4F8A432D4F8A4724FEA94
:101D5000D71813F07F0F01D008F10108B8F1000F78
:101D60004CD0002531E0D4F8A80203EBC51162681D
:101D7000415C1A4451710133DBB213F0800FF2D091
:101D8000B1463746FFB96068EA01802312B20121EB
:101D9000FEF7C4FF0028F5D063689B7853B16368F1
:101DA00093F80390B9F1000FF6D0626800239370A6
:101DB0006268D37063689B78002BE3D1B9F1000FA0
:101DC000E0D10127DEE70135ADB2454504D26068B8
:101DD000FEF789FF0023D0E70025C4F8A452C4F819
:101DE000A052D4F8A80208F075FAC4F8A85201204D
:101DF00020723BB0BDE8F083002070470020F8E778
:101E0000440000200C00002010DF00082801002002
:101E100070B50446457AEDB2042D4DD8DFE805F0E3
:101E20000323133A5000FFF73FFE032226492046C2
:101E3000FFF772FD0F2225492046FFF76DFD0423B1
:101E4000637201253DE0FFF767FE2C222049204602
:101E5000FFF762FD0F221D492046FFF75DFD0423B9
:101E6000637201252DE01B4E0021304605F096FCE3
:101E70000123A3722046FFF7D9FE0F221349204603
:101E8000FFF74AFD0021A17204236372304605F07A
:101E9000A3FB16E020221049FFF73EFD03220A496A
:101EA0002046FFF739FD0F2208492046FFF734FD91
:101EB00004236372012504E004234372002500E03B
:101EC0000125284670BD00BF280100201801002010
:101ED000AC0000209C0F00208C000020C0B170B529
:101EE0000646002400E00134092C10DC04F1AA03AA
:101EF00006EB83035B68002BF5D004F1AA0506EB23
:101F00008505686808F0E6F900236B60EBE770BDB3
:101F100070470000002846D0F8B50646FFF7DEFF00
:101F2000002586F88B5006F10B072049384608F04B
:101F3000A9FE044612E004F1AA0306EB83035868E5
:101F400008F0C8F90134A542F5DC00202AE000249D
:101F5000F9E71649002008F095FE0446CCB1092D9A
:101F6000F7DC2046FEF78CF9013008F0ABF905F1FB
:101F7000AA0306EB830358605B68002BE7D005F1EA
:101F8000AA0306EB83035868214608F05BFF01357E
:101F9000DFE7EDB286F88D5081220021384608F047
:101FA00055FE0120F8BD0020704700BF18DF000873
:101FB00070B5054604234372002403E003236B72CB
:101FC0000134E4B2022C13D80A4B53F82460304693
:101FD000FEF756F902468028F0D8314605F10B008D
:101FE00008F024FE0028E9D12846FFF793FF6C7221
:101FF000012070BD44DF000810B50446002303E053
:1020000022680021D154013362689A42F8D82068CE
:1020100008F060F900232360636010BD08B500215B
:1020200080F88C1081220B3008F010FE08BD38B506
:1020300005460123037204234372002480F88D4077
:1020400080F88C4080F89C4280F8914080F8924063
:1020500080F8934080F88E404160FFF7DFFF234611
:1020600006E003F1AA0205EB820200215160013370
:10207000092BF6DD0023C5F89430C5F8983001200F
:1020800038BD00002DE9F04182B00446884616466E
:1020900000F19C074FF400720021384608F0D6FD8D
:1020A000337884F89C32002305E018F80350E018D8
:1020B00080F89C50013330689842F6D8237ADBB21E
:1020C000012B6DD0022B00F08580012002B0BDE80D
:1020D000F08194F88C3043B33F4B1B68ADF804306B
:1020E0001B0C8DF80630032201A92046FFF714FCD3
:1020F00094F88C3023440022DA7294F88C30013B3F
:10210000DBB284F88C30013594F89C32DBB2AB4200
:10211000DBD9631993F89C30DBB2082BD9D0631953
:1021200093F89C30DBB27F2BD3D0631993F89C30AB
:10213000DBB20A2B28D0631993F89C30DBB20D2B4D
:1021400022D094F88C30DBB27E2BDCD8631993F864
:102150009C30DBB21F2BD6D9631993F89C30DBB2CD
:102160007E2BD0D894F88C305A1CD2B284F88C20B4
:10217000621992F89C20D2B22344DA72326839464E
:102180002046FFF7C9FBBEE72046FFF711FF2046B8
:10219000FFF744FF032211492046FFF7BDFB94E7F8
:1021A0000025B1E7013294F89C32DBB293428CD91E
:1021B000D4F8A012D4F8A4329942F3D2D4F8A812D9
:1021C000D4F8A032581CC4F8A002A01890F89C00C3
:1021D000C854E7E70022E6E71CDF000828010020DA
:1021E0002DE9F04FC9B08146002002460FE00D5C9A
:1021F0000C1863781B0443EA0563A57843EA0523BA
:10220000E478234308AC44F82230013204300F2A2A
:10221000EDD922E0931E08A951F823104FEAF143AB
:1022200083EA714383EA9123D11F08A850F8211053
:102230000B44A2F10F0150F821004FEAB04181EAAE
:10224000F01181EAD0010B44A2F1100108A850F866
:1022500021100B4440F8223001323F2ADAD9D9F854
:1022600050A0D9F854B0D9F85810D9F85C30D9F842
:1022700060200192D9F864700297D9F868600396DB
:10228000D9F86C000490864698460C465D46D446C4
:102290000020CDF814A0CDF818B0079130E04FEA37
:1022A000F22181EAB21181EA7261714402EA070EF9
:1022B00026EA020A8EEA0A0E8E44254951F82010B9
:1022C0000EEB010A08A951F820108A444FEA7C3E1F
:1022D0008EEABC0E8EEABC5E85EA040101EA0C01BE
:1022E00005EA040B81EA0B0171440130B6463E4613
:1022F000174608EB0A02A0462C4665460AEB010C7D
:102300003F28CCD9DDF814A0DDF818B007990CEB04
:102310000A00C9F850005D44C9F854500C44C9F88B
:1023200058404344C9F85C30019B1A44C9F8602006
:10233000029B1F44C9F86470039B1E44C9F868607F
:10234000049B7344C9F86C3049B0BDE8F08F00BFFE
:1023500050DF00080023036400220023C0E9122399
:102360000A4B03650A4B43650A4B83650A4BC365F9
:102370000A4B03660A4B43660A4B836603F17453A8
:10238000A3F52303A3F69243C366704767E6096A81
:1023900085AE67BB72F36E3C3AF54FA57F520E5186
:1023A0008C68059BABD9831FF8B504460F461646CB
:1023B000002500E00135B54215D2236C785DE0546C
:1023C00001332364402BF5D121462046FFF708FF57
:1023D000A36CE26C13F5007342F10002A364E264A3
:1023E00000232364E6E7F8BD38B504460D46026CC9
:1023F000372A2DD8531C8021815402E00022E25458
:102400000133372BFAD9A36CE26C216CC9005B183D
:1024100042F10002A364E26484F83F30190A84F8B0
:102420003E10190C84F83D101B0E84F83C3084F8E3
:102430003B20130A84F83A30130C84F83930120E1A
:1024400084F8382021462046FFF7CAFE00233BE0EF
:10245000531C8021815402E00022E25401333F2BBF
:10246000FAD921462046FFF7BBFE3822002120463C
:1024700008F0ECFBC7E7216DC3F10302D200D140A5
:10248000E954616DD140181D2954A16DD14003F16B
:1024900008002954E16DD14003F10C002954216E4C
:1024A000D14003F110002954616ED14003F11400B2
:1024B0002954A16ED14003F118002954E16ED14096
:1024C00003F11C02A9540133032BD4D938BD0000F9
:1024D00008B50548054B036003F0FEFE00B908BDD2
:1024E000FFF7D4F8FBE700BFA00D0020000806505E
:1024F00010B5A2B004468022002102A808F0A6FB75
:1025000022680D4B9A4201D022B010BD4FF4001347
:10251000029302A803F06EFC50B9084B5A6B42F0CC
:1025200040025A635B6B03F040030193019BEBE7AE
:10253000FFF7ACF8F1E700BF000806500038024092
:1025400008B51048104B03604FF4827343600023BA
:1025500083604FF4E062C260036143614FF4007234
:102560008261C3610362436283620722C2620363C2
:102570000823436304F056F800B908BDFFF786F856
:10258000FBE700BF380F00200030014008B51048BD
:10259000104B03604FF482734360002383604FF459
:1025A000E062C2600361012242614FF40072826105
:1025B0001822C2610362436283620722C26203631C
:1025C000436304F02FF800B908BDFFF75FF8FBE79D
:1025D000D40E00200038004008B51048104B0360AE
:1025E0004FF482734360002383604FF4E062C26063
:1025F000036143614FF4007282611822C261036279
:10260000436283620722C26203630823436304F0C8
:1026100009F800B908BDFFF739F8FBE7700E002094
:10262000003401402DE9F0418CB00023079308935A
:1026300009930A930B9303685F4A93420AD00446B6
:102640005E4A934226D05E4A934200F095800CB0D9
:10265000BDE8F0815B4B5A6C42F480525A645A6C6C
:1026600002F480520092009A1A6B42F001021A633F
:102670001B6B03F001030193019BE02307930223EB
:10268000089303230A9305230B9307A94E4800F0F0
:1026900037FFDCE74B4B1A6C42F480421A641A6C29
:1026A00002F480420292029A1A6B42F004021A6308
:1026B0001A6B02F004020392039A1A6B42F00202B0
:1026C0001A631B6B03F002030493049B0623079316
:1026D000022508954FF00308CDF8288005270B97B1
:1026E00007A93A4800F00CFF4FF48066079608955A
:1026F00000250995CDF828800B9707A9344800F0EC
:10270000FFFE3448344B036045608560C560066158
:1027100045618561C5614FF440330362456200F055
:1027200015FD18BB2B4BA3659C632C482C4B0360F9
:102730000023436040228260C3604FF480620261E4
:1027400043618361C3614FF400320262436200F06F
:10275000FDFC70B9214B63659C630022022124209B
:1027600000F040FC242000F04DFC70E7FEF78EFFE7
:10277000D8E7FEF78BFFEDE7124B5A6C42F400529C
:102780005A645A6C02F400520592059A1A6B42F090
:1027900010021A631B6B03F010030693069B64235D
:1027A00007930223089303230A9305230B9307A996
:1027B0000C4800F0A5FE4AE7003001400038004018
:1027C000003401400038024000000240000802408E
:1027D00000040240100E002058600240B00D00209E
:1027E000706002400010024010B503681C4A93421A
:1027F00007D004461B4A93420ED01B4A934224D072
:1028000010BD02F58432536C23F480535364E021ED
:10281000164800F069FFF3E702F50032136C23F469
:10282000804313640621124800F05EFF4FF480617C
:10283000104800F059FFA06D00F0EEFC606D00F054
:10284000EBFC242000F0ECFBDAE702F58232536C5B
:1028500023F4005353646421074800F045FFCFE799
:1028600000300140003800400034014000000240C8
:1028700000080240000402400010024082B00A4BEF
:102880001A6C42F080521A641A6C02F08052009264
:10289000009A5A6C42F480425A645B6C03F48043A1
:1028A0000193019B02B0704700380240FEE7000030
:1028B00008B50D4C01221146204600F0B6FF01225A
:1028C0000221204600F0B1FF01220421204600F041
:1028D000ACFF01220821204600F0A7FF01221021B1
:1028E000204600F0A2FFE4E7000C0240FEE7FEE70E
:1028F000FEE770477047704708B500F0F7FA08BD6B
:1029000008B5024800F008FD08BD00BF4C050020D6
:1029100008B5024800F000FD08BD00BF100E002001
:1029200008B5024800F0F8FC08BD00BFB00D00205B
:1029300008B5024800F0F0FC08BD00BFEC04002020
:1029400008B5024804F081FB08BD00BF80100020DC
:1029500008B5024804F079FB08BD00BF80100020D4
:1029600008B5024801F09EF908BD00BFAC05002083
:1029700008B5024801F09CFF08BD00BFAC0500206F
:1029800008B5024804F066F908BD00BFD40E002067
:1029900008B5024804F059FB08BD00BF9C0F002099
:1029A00008B5024804F051FB08BD00BF34100020F8
:1029B00008B5024804F049FB08BD00BFE80F00203D
:1029C00008B5024802F06AFB08BD00BFCC10002029
:1029D000034AD2F8883043F47003C2F88830704755
:1029E00000ED00E010B596B00024139414941594F3
:1029F0000C940D940E940F941094119412942C2214
:102A0000214601A808F022F92C482D4B03604FF411
:102A1000A073436084604FF48073C3604FF400730D
:102A2000036144618023836104F094FC002835D164
:102A3000002313931493159313A9204804F02EFF39
:102A400000282ED100220C920D920E920F9210921D
:102A5000119212920CA9194804F0E4FC20BB212326
:102A60000D9304220CA9154804F0DCFCF8B90023EE
:102A7000019302930393049305934FF4005206923B
:102A8000079308934FF0007209920A930B9301A9E0
:102A90000A4804F053FF68B916B010BDFEF7F6FD02
:102AA000C6E7FEF7F3FDCDE7FEF7F0FDD7E7FEF74B
:102AB000EDFDDCE7FEF7EAFDEEE700BF8010002049
:102AC0000000014000B585B00023019302930393F9
:102AD0000E480F4A026044F244024260836025229D
:102AE000C260836104F006FC50B900230193039394
:102AF00001A9064804F0D2FE28B905B05DF804FB30
:102B0000FEF7C4FDF1E7FEF7C1FDF6E73410002043
:102B10000010004000B585B0002301930293039399
:102B20000F48104A02604FF4EB524260836042F655
:102B30009232C260836104F0DDFB50B9002301933F
:102B4000039301A9064804F0A9FE28B905B05DF871
:102B500004FBFEF79BFDF1E7FEF798FDF6E700BFEB
:102B6000E80F00200014004010B59AB0002416941D
:102B70001794189419941394149415940C940D9418
:102B80000E940F941094119412942C22214601A8B3
:102B900008F05CF82F48304B03604DF2EF234360A0
:102BA00084606323C360046144618023836104F013
:102BB000A1FB00283BD14FF48053169316A925485A
:102BC00004F07AFC002835D1224804F0C3FB002829
:102BD00033D1002313931493159313A91D4804F0C4
:102BE0005DFE00282CD100220C920D920E920F92C5
:102BF0001092119212920CA9164804F013FC10BB0B
:102C00000023019302930393049305934FF400521E
:102C10000692079308934FF0007209920A930B9360
:102C200001A90C4804F08AFE80B91AB010BDFEF765
:102C30002DFDC0E7FEF72AFDC6E7FEF727FDC8E732
:102C4000FEF724FDCFE7FEF721FDD9E7FEF71EFDD5
:102C5000EBE700BF9C0F0020000401400268124B0C
:102C60009A4200D0704700B583B003F59C335A6C8C
:102C700042F001025A645B6C03F001030193019B73
:102C800000220B21192000F0ADF9192000F0BAF94B
:102C900000220A211B2000F0A5F91B2000F0B2F948
:102CA00003B05DF804FB00BF0000014000B585B033
:102CB0000368224A934208D0214A934218D0214AFD
:102CC000934228D005B05DF804FB1F4B1A6C42F00C
:102CD00010021A641B6C03F010030193019B002285
:102CE0000C21362000F07EF9362000F08BF9E9E760
:102CF000154B1A6C42F020021A641B6C03F020037F
:102D00000293029B00220D21372000F06BF937203F
:102D100000F078F9D6E70C4B5A6C42F002025A6484
:102D20005B6C03F002030393039B002209212E2016
:102D300000F058F92E2000F065F9C3E700100040BC
:102D400000140040000401400038024008B50B4860
:102D50000B4B036009234360012303610323836159
:102D60000023C36103624362C3620363436301F0F0
:102D7000A5FE00B908BDFEF789FCFBE7CC100020DA
:102D8000000004402DE9F041AAB00446002125913D
:102D90002691279128912991802205A807F056FFB6
:102DA0002268324B9A4202D02AB0BDE8F0814FF43B
:102DB0000013059305A803F01DF8002852D12C4CF0
:102DC000236B43F001032363236B03F001030093A0
:102DD000009B236B43F002032363236B03F0020386
:102DE0000193019B102325934FF00208CDF89880A2
:102DF00000252795032728970C26299625A91D48E5
:102E000000F07EFB4FF440432593CDF89880279542
:102E10002897299625A9184800F072FB636C43F0A7
:102E200000436364636C03F000430293029B236BD3
:102E300043F000532363236B03F000530393039B7E
:102E4000236B43F080432363236B03F0804304939D
:102E5000049B2A4601214D2000F0C4F84D2000F0CB
:102E6000D1F8A1E7FEF712FCA9E700BF000004407B
:102E700000380240000002400004024010B5044641
:102E80000E4B1A784FF47A73B3FBF2F30C4A1068C6
:102E9000B0FBF3F000F0C8F868B90F2C01D901209D
:102EA0000AE0002221464FF0FF3000F09BF8054B6E
:102EB0001C60002000E0012010BD00BF7401002054
:102EC000700100207801002008B5074A136843F418
:102ED00080731360032000F073F80F20FFF7CEFF1C
:102EE000FFF7CCFC002008BD003C0240034A1168FB
:102EF000034B1B780B441360704700BFD4150020B0
:102F000074010020014B1868704700BFD4150020E1
:102F100038B50446FFF7F6FF0546B4F1FF3F02D08F
:102F2000044B1B781C44FFF7EDFF401BA042FAD373
:102F300038BD00BF7401002000280CDB00F01F0228
:102F40004009012393402030034A42F82030BFF368
:102F50004F8FBFF36F8F704700E100E0002804DB64
:102F60000901C9B2044B1954704700F00F00090160
:102F7000C9B2024B1954704700E400E014ED00E0C0
:102F800000B500F00700C0F1070CBCF1040F28BF2A
:102F90004FF0040C031D062B0FD9C31E4FF0FF3E4C
:102FA0000EFA0CF021EA000199400EFA03FE22EA23
:102FB0000E0241EA02005DF804FB0023EEE7000088
:102FC0000649CB6823F4E0631B041B0C000200F4E9
:102FD000E0600343024A1A43CA60704700ED00E014
:102FE0000000FA0510B50446054BD868C0F302206E
:102FF000FFF7C6FF01462046FFF7B0FF10BD00BF38
:1030000000ED00E0002807DB00F01F02400901236B
:103010009340024A42F82030704700BF00E100E0D0
:1030200008B5FFF789FF08BD0138B0F1807F0BD2EA
:103030004FF0E0235861054AF02182F82310002068
:10304000986107221A6170470120704700ED00E087
:1030500030B405682C6824F480242C600468636014
:103060008368402B05D0036899600368DA6030BC40
:10307000704703689A600368D960F8E710B4016884
:10308000CAB2103A0A4BA3FB02431B09094CE35C8A
:10309000C3655F2A07D9084B0B4004338365806DF5
:1030A0005DF8044B7047044B0B408365F7E700BFA6
:1030B000ABAAAAAA60E0000800FCFFFF836A82694D
:1030C00092B9012B0AD0022B02D00BB1002070471D
:1030D000C36A13F0807F28D100207047C36AB3F120
:1030E000C07F24D000207047B2F5005F09D0022BCA
:1030F00025D9032B25D1C36A13F0807F23D100206B
:103100007047032B03D8DFE803F01404140A0020EF
:103110007047C36A13F0807F0DD100207047C36AE7
:10312000B3F1C07F09D00020704701207047012013
:10313000704701207047012070470120704701202F
:1031400070470020704701207047000070B50446AA
:10315000FFF7D8FE002C5BD00546022384F83530FB
:10316000002384F834302268136823F001031360CD
:1031700023681A6812F0010F0AD0FFF7C3FE431B41
:10318000052BF5D920236365032084F8350070BD35
:103190001A68204911406268A0680243E06802434F
:1031A0002069024360690243A0690243E069024367
:1031B000206A02430A43616A04291ED01A60266805
:1031C000756925F00705636A1D43042B07D1A36ABF
:1031D0001D43E36A1BB12046FFF770FF90B975618C
:1031E0002046FFF74BFFE26D3F23934083600020B2
:1031F0006065012384F83530C9E7E16A206B01433B
:103200000A43DBE740236365012084F83500BEE70D
:103210000120BCE73F8010E000282DD038B50546DE
:1032200090F83500C0B2022825D02A68136823F030
:10323000010313602B6800241C602B685C602B6802
:103240009C602B68DC602B681C612B6821225A6112
:103250002846FFF713FFEA6D3F2393408360EC633A
:103260002C646C64AC64EC642C656C6585F835404A
:1032700085F83440204638BD0120704738B50446F3
:10328000856D90F83400012830D0012084F8340096
:1032900094F83500C0B2012804D0002384F83430FB
:1032A000022038BD022084F83500002060652046E9
:1032B000FFF7CEFEE26D3F239340AB6022681368B8
:1032C00043F0160313602268536943F0800353618F
:1032D000236C23B12268136843F00803136022684B
:1032E000136843F0010313600020DAE70220D8E7F7
:1032F00090F83530DBB2022B03D0802343650120E8
:103300007047052380F835300268136823F0010305
:103310001360002070470000F0B583B0044600231E
:103320000193724B1D68724BA3FB0535AD0A876D87
:103330003E68C26D08239340334210D003681A6878
:1033400012F0040F0BD01A6822F004021A60C26D4A
:1033500008239340BB60436D43F001034365E26D76
:1033600001239340334209D02268526912F0800F42
:1033700004D0BB60636D43F002036365E26D042318
:103380009340334209D02268126812F0020F04D031
:10339000BB60636D43F004036365E26D10239340EB
:1033A000334224D02268126812F0080F1FD0BB608D
:1033B00023681A6812F4802F0DD01B6813F4002FB5
:1033C00004D1236C9BB12046984710E0A36C73B1E5
:1033D000204698470BE01A6812F4807F03D11A68E0
:1033E00022F008021A60236C0BB120469847E26D68
:1033F00020239340334255D02268126812F0100FF8
:1034000050D0BB6094F83530DBB2052B0ED023686A
:103410001A6812F4802F33D01B6813F4002F2AD1BE
:10342000636C002B3ED0204698473BE0226813682F
:1034300023F0160313602268536923F0800353615D
:10344000236CA3B12268136823F008031360E26DB4
:103450003F239340BB60012384F83530002384F878
:103460003430236D002B3FD0204698473CE0A36CBE
:10347000002BE7D1EBE7E36BA3B12046984711E0BF
:103480001A6812F4807F09D11A6822F010021A60BB
:10349000012384F83530002384F83430E36B0BB11A
:1034A00020469847636DFBB1636D13F0010F17D091
:1034B000052384F835302268136823F00103136074
:1034C000019B01330193AB4204D823681B6813F0BE
:1034D000010FF5D1012384F83530002384F834300E
:1034E000E36C0BB12046984703B0F0BD700100209B
:1034F000B5814E1B90F835007047406D7047000055
:1035000000230F2B00F2E78070B582B065E085687C
:103510004FEA430E032404FA0EF425EA0405CC68AE
:1035200004FA0EF42C438460446824EA02044A68D6
:10353000C2F300129A40224342605CE0DC08083487
:1035400050F8242003F00705AD004FF00F0E0EFADF
:1035500005FE22EA0E0E0A69AA4042EA0E0240F86F
:1035600024205CE0072200E0002202FA0EF22A4347
:103570000234594D45F82420584A94686FEA0C02E9
:1035800024EA0C054E6816F4801F01D04CEA0405AD
:10359000524CA560E46802EA04054E6816F4001F68
:1035A00001D04CEA04054D4CE560646802EA04056C
:1035B0004E6816F4003F01D04CEA0405474C6560A4
:1035C000246822404D6815F4803F01D04CEA040283
:1035D000424C226001330F2B7BD801229A400C68A9
:1035E00004EA020C32EA0404F4D14C6804F0030447
:1035F000013C012C8BD94A6802F00302032A09D04E
:10360000C4685D000322AA4024EA02048A68AA4032
:103610002243C2604A6802F00302022A8ED0046884
:103620004FEA430E032202FA0EF224EA02044A6829
:1036300002F0030202FA0EF2224302604A6812F418
:10364000403FC7D0264A546C44F480445464526CC2
:1036500002F480420192019A9C08A51C1E4A52F86D
:10366000255003F0030E4FEA8E0E0F2202FA0EF2DF
:1036700025EA02051B4A90423FF476AF02F58062CC
:1036800090421AD002F58062904218D002F5806212
:10369000904216D002F58062904214D002F580620A
:1036A000904212D002F58062904210D002F5806202
:1036B00090423FF457AF082257E7012255E7022214
:1036C00053E7032251E704224FE705224DE7062284
:1036D0004BE702B070BD704700380140003C01402C
:1036E000003802400000024000230F2B00F28F80C0
:1036F000F0B52DE0072500E0002505FA0CF5A54200
:1037000069D004685D004FF0030C0CFA05FC24EA54
:103710000C0404604FEAD30E0EF1080E50F82E4050
:1037200003F00706B6000F25B54024EA050440F86B
:103730002E40C46824EA0C04C460446824EA0202EF
:103740004260826822EA0C02826001330F2B5DD84E
:1037500001229A4002EA010632EA0104F5D14FEA59
:10376000930E0EF102052A4C54F8254003F0030C89
:103770004FEA8C0C0F2505FA0CF73C40254DA8426A
:10378000BAD005F58065A84219D005F58065A84234
:1037900017D005F58065A84215D005F58065A842CB
:1037A00013D005F58065A84211D005F58065A842C3
:1037B0000FD005F58065A8429CD008259DE701251E
:1037C0009BE7022599E7032597E7042595E705255B
:1037D00093E7062591E7104C256825EA0605256044
:1037E000656825EA06056560E56825EA0605E56081
:1037F000A56825EA0605A560054E0EF1020456F8F7
:10380000245025EA070546F824507AE7F0BD7047B2
:103810000038014000000240003C014003691942A9
:1038200001D001207047002070470AB181617047C4
:1038300009048161704703689A6912F0020F01D090
:1038400000229A6203689A6912F0010F03D19A6903
:1038500042F001029A61704710B4019CC1F3090162
:1038600041EA02411943214321F0004102685368B3
:10387000640D04F4806444F07F7444F4583444F4D8
:103880007F7444F0030423EA04030B4353605DF8A0
:10389000044B7047436B1C4A934217D01B4A934218
:1038A00014D011F4004F2AD1002311F0010F01D0E0
:1038B00043F0F20311F0020F01D043F0F40310299A
:1038C0001FD020290ED143F020030BE011F4004F4C
:1038D00003D110290BD0002300E0B823202908D001
:1038E000402909D001680A6813430B607047902390
:1038F000F4E743F06003F3E743F04003F2E7B82353
:10390000D3E743F09003DCE7E1440008BF4300083D
:1039100011F0010F09D090F8413003F02803282B53
:1039200001D0F22302E0422300E0002311F0020F55
:1039300009D043F0440C90F8412002F02802282AD4
:1039400010D043F0F40311F4004F0DD110290ED024
:1039500020290FD0402910D001680A6822EA030309
:103960000B6070476346EEE743F0B803EEE743F0C1
:103970009003EDE743F02003ECE743F04003EBE76F
:10398000002857D010B5044690F84130002B41D0A4
:10399000242384F841302268136823F00103136064
:1039A0006368226823F0706313612268936823F4CC
:1039B00000439360E368012B31D0A368226843F48D
:1039C00004439360E368022B2FD0226851681A4B9E
:1039D0000B4353602268D36823F40043D360236908
:1039E00062691343A169226843EA0123D360E36952
:1039F000216A22680B4313602268136843F00103B5
:103A0000136000206064202384F84130206384F830
:103A1000420010BD80F84030FDF7EEFAB8E7A36829
:103A2000226843F400439360CCE723684FF40062BC
:103A30005A60CAE70120704700800002F0B583B0E9
:103A400004460E461F460899BDF8243090F8410000
:103A5000C0B220287AD1002B18BF002949D0206895
:103A6000856915F4004F75D194F84050012D73D03D
:103A7000012584F84050212584F84150402584F8E0
:103A800042500025656461626385344BE362344BC8
:103A90006363E664638D9BB2FF2B2FD9FF232385DD
:103AA000012F2ED0130A8362D2B22265A36B002BA2
:103AB0002DD02C4ADA63A36B2B4ADA64A26B002365
:103AC0001364A26B13652268238D2832A06BFFF765
:103AD000D5FB054648B3202384F84130002284F802
:103AE0004220636C43F01003636484F84020012596
:103AF0002DE04FF400736364012528E0638D238576
:103B0000CEE7D2B282624FF0FF332365CEE72023A7
:103B100084F84130002284F84220636C43F0800333
:103B2000636484F84020012511E0104B00934FF0AE
:103B30008073FAB231462046FFF78EFE002384F8E8
:103B4000403001212046FFF7A5FE00E0022528466F
:103B500003B0F0BD0225FAE70225F8E70000FFFFF9
:103B60001D47000867460008234600080020008023
:103B7000F0B583B004461F46089DBDF8243090F888
:103B80004100C0B220287BD10E46002B18BF002D6B
:103B90004AD02168886910F4004F75D194F840002C
:103BA000012873D0012084F84000222084F84100CD
:103BB000402084F842000020606465626385344BD5
:103BC000E362344B6363E664638D9BB2FF2B30D9B1
:103BD000FF232385012F2FD0130A8B62D2B22265D7
:103BE000E36B002B2ED02C4ADA63E36B2B4ADA64AA
:103BF000E26B00231364E26B13652168238D2A4670
:103C00002431E06BFFF73AFB054648B3202384F8E4
:103C10004130002284F84220636C43F01003636457
:103C200084F8402001252CE04FF4007363640125E3
:103C300027E0638D2385CDE7D2B28A624FF0FF3350
:103C40002365CDE7202384F84130002284F8422008
:103C5000636C43F08003636484F84020012510E026
:103C60000F4B00930023FAB231462046FFF7F4FDD4
:103C7000002384F8403001212046FFF70BFE00E0CE
:103C80000225284603B0F0BD0225FAE70225F8E731
:103C90000000FFFF1D470008C1460008234600083A
:103CA0000020008008B5036899691A68436B03B166
:103CB000984708BD7047704738B50446002380F820
:103CC000423090F84130DBB2212B0FD0202380F816
:103CD000413012230363002545630221FFF718FEDC
:103CE00084F840502046FFF7E6FF38BD202380F8D7
:103CF000413011230363002545630121FFF708FECE
:103D000084F840502046FFF7D5FFEEE77047704734
:103D100010B5044603681A68002180F8421012F4B6
:103D2000804F0ED01A6822F480421A6094F8413015
:103D3000DBB2292B0DD094F84130DBB22A2B18D0FE
:103D400010BD12F4004FF1D01A6822F400421A603C
:103D5000ECE7282384F84130212323630121204606
:103D6000FFF7D6FD002384F840302046FFF7CEFF52
:103D7000E6E7282384F841302223236302212046EA
:103D8000FFF7C6FD002384F840302046FFF7BFFF51
:103D9000D6E77047F8B5044690F8413003F02803A1
:103DA000282B06D003680822DA61002380F840300F
:103DB000F8BD03689E69C6F300469A69120C02F0CA
:103DC000FE059A68C2F30902DF6807F0FE07C168C2
:103DD000022922D185EAD21515F0060F10D1816C87
:103DE00001318164816C0229E2D1002181640820C3
:103DF000D86184F8401031462046FFF7CAFFD7E764
:103E00004FF40041FFF784FD002384F840303A4628
:103E100031462046FFF7BDFFCAE74FF40041FFF7E8
:103E200077FD002384F840302A4631462046FFF7CC
:103E3000B0FFBDE77047000010B50446174BC362E2
:103E400000230363202280F8412080F8423043633E
:103E500011F0040F13D003685A6A436A1A70436A58
:103E600001334362038D53B1013B0385438D9BB204
:103E7000013B9BB24385436C43F00403436448F227
:103E800003012046FFF744FD23681022DA61002376
:103E900084F840302046FFF7CDFF10BD0000FFFF43
:103EA000704708B590F84130DBB2602B06D0002394
:103EB000036380F84030FDF7D1FC08BD202380F873
:103EC00041300023036380F84030FFF7E9FFF4E757
:103ED00010B5044690F84130002280F842203B485B
:103EE000E0626285626C0A436264283BDBB2022BAB
:103EF0002DD803212046FFF70BFD282384F84130FD
:103F0000334B6363236BA26B002A34D0212B18BF81
:103F1000112B30D123681A6812F4804F03D01A682D
:103F200022F480421A60A06BFFF7E4FA01281ED049
:103F3000A36B284A1A65002384F84030A06BFFF772
:103F4000D7F9002840D0A06B036D98473CE048F2B9
:103F500003012046FFF7DCFC94F84130DBB2602B14
:103F600002D0202384F8413000236363CAE720464F
:103F7000FFF797FF28E0E26B1AB3222B18BF122B32
:103F80001FD123681A6812F4004F03D01A6822F474
:103F900000421A60E06BFFF7ADFA01280DD0E36B29
:103FA0000C4A1A65002384F84030E06BFFF7A0F953
:103FB00050B1E06B036D984706E02046FFF771FFB4
:103FC00002E02046FFF76DFF10BD00BF0000FFFFBD
:103FD000414100081B49000870B504460D460268BF
:103FE000166890F84130DBB22021D161292B18BF2F
:103FF000212B5BD02A2B18BF222B5ED0226853685E
:1040000043F4004353602268536823F0FF7323F4A2
:104010008B3323F4FF7323F0010353602046FFF733
:104020000AFC16F4804F4FD02268136823F48043B3
:104030001360A36B1BB11B685B689BB2638515F0B3
:10404000040F11D025F0040523685A6A636A1A70B8
:10405000636A01336362238D33B1013B2385638D32
:104060009BB2013B9BB26385638D9BB21BB1636CBA
:1040700043F004036364002384F842306363636C99
:10408000002B31D1E36A13F5803F3BD194F84130E6
:10409000DBB2222B46D0202384F841300023236357
:1040A00084F840302046FFF731FE3AE048F2010143
:1040B000FFF72EFC21232363A0E748F20201FFF75C
:1040C00027FC2223236399E716F4004FB7D0226818
:1040D000136823F400431360E36B002BAFD01B681D
:1040E0005B689BB26385AAE7616C2046FFF7F0FE30
:1040F00094F84130DBB2282B13D129462046FFF734
:104100009BFE0EE02046FFF703FE0C4BE3622023EC
:1041100084F841300023236384F840302046FFF7C1
:1041200089FE70BD202384F841300023236384F886
:1041300040302046FFF7EBFDF3E700BF0000FFFF34
:10414000F8B5C76A90F84030012B00F09F80044614
:104150000D461646012380F8403011F0200F02D0A2
:1041600012F0200F19D115F0100F3FD016F0100FDC
:104170003CD0638D9BB243BB94F84130DBB2282B1B
:104180000ED094F84130DBB2292B11D023681022D5
:10419000DA61002084F84000F8BDFFF71DFFE2E778
:1041A000B7F1007FEDD129462046FFF745FEF0E745
:1041B00017F5803FEAD023681022DA612046FFF726
:1041C0003AFB2046FFF7A4FDE3E723681022DA61FB
:1041D000636C43F004036364B7F1807F18BF002F62
:1041E000D7D1616C2046FFF773FED2E715F0040FBC
:1041F0001FD016F0040F1CD0638D9BB273B12368DF
:104200005A6A636A1A70636A01336362238D013BE1
:104210002385638D9BB2013B9BB26385638D9BB20B
:10422000002BB6D117F5803FB3D02046FFF770FDC5
:10423000AFE715F0080F02D016F0080F18D115F0EF
:10424000020FA6D016F0020FA3D0638D9BB2A3B1CC
:10425000626A236812789A62636A01336362638DCB
:104260009BB2013B9BB26385238D013B238590E785
:1042700029462046FFF78EFD8BE7002F18BFB7F1C8
:10428000807F86D12046FFF743FD82E7022083E747
:1042900030B583B004460D4603682022DA6190F8F9
:1042A0004130DBB2212B33D090F84130DBB2222BEE
:1042B00034D02268536823F0FF7323F48B3323F444
:1042C000FF7323F00103536000236363A3F580337E
:1042D000E36215F0100F06D023681022DA61636CD8
:1042E00043F00403636494F84130DBB2602B1BD0CD
:1042F0002046FFF7A0FA626C94F84130DBB2602BE5
:1043000000D0D2B1616C2046FFF7E2FD03B030BDB2
:104310000121FFF7FDFA11232363CAE70221FFF70A
:10432000F7FA12232363C4E715F0040FE0D02368E3
:104330005B6ADBB20193019BDAE794F84130DBB2B0
:10434000212B17D094F84130DBB2222BDED1202371
:1043500084F841300023236394F84230DBB2402BD1
:1043600024D0002384F8423084F840302046FFF700
:10437000A2FCCBE7202384F841300023236394F888
:104380004230DBB2402B08D0002384F8423084F85E
:1043900040302046FFF78EFCB8E7002384F8423017
:1043A00084F840302046FDF7A3F8AFE7002384F8F7
:1043B000423084F840302046FDF7A0F8A6E7F8B573
:1043C000C76A90F84030012B00F0888004460D4603
:1043D0001646012380F8403011F0200F02D012F071
:1043E000200F12D115F0100F69D016F0100F66D003
:1043F00016F4404F5FD0E36B53B116F4004208D07F
:104400001B685B6843B3002203E0FFF7E5FDE9E7C3
:104410000022A36B2BB116F4804F02D01B685B689F
:10442000E3B1012A1AD023681022DA61636C43F0E9
:104430000403636494F84130DBB2B7F1807F18BFA6
:10444000002F42D1213B092B2DD8DFE803F02A3180
:104450002C2C2C2C2C2C2A310122DAE794F8413018
:10446000DBB2282B08D094F84130DBB2292B0BD0DB
:1044700023681022DA6128E0B7F1007FF3D12946E2
:104480002046FFF7D9FC20E017F5803FF0D02368E5
:104490001022DA612046FFF7CEF92046FFF738FCFC
:1044A00013E021232363616C2046FFF711FD0CE02C
:1044B00022232363F7E723681022DA6105E015F071
:1044C000080F02D016F0080F03D1002084F8400036
:1044D000F8BD29462046FFF75DFCF6E70220F7E726
:1044E00090F84030012B00F09A8010B582B004465D
:1044F000012380F8403011F0100F02D012F0100F9D
:1045000032D111F0800F60D012F0400F5DD02268E0
:10451000136823F040031360638D9BB2002B46D0D9
:1045200023685968C1F30901638D9BB2FF2B2DD914
:10453000FF2323854FF080730022009294F82820F7
:104540002046FFF789F9638D9BB2228D9B1A9BB29F
:10455000638594F84130DBB2222B22D022681368A5
:1045600043F4804313600CE003681022DA61436C6B
:1045700043F0040343642021FFF78CF92046FFF742
:104580005AF9002084F8400002B010BD638D2385E5
:10459000E36A13F5803F01D0E36ACDE74FF0007383
:1045A000CAE72268136843F400431360E9E723680D
:1045B0005B6813F0007F03D12046FFF77DFBE0E747
:1045C00040212046FFF784FCDBE711F0400F1CD0B0
:1045D00012F0400F19D0638D9BB28BB923685A68D3
:1045E00012F0007FCDD1E26A12F5803F04D15A6803
:1045F00042F480425A60C4E72046FFF75DFBC0E703
:1046000040212046FFF764FCBBE711F0200FB8D033
:1046100012F0200FB5D02046FFF73AFEB1E7022096
:10462000704738B5846BA36B7BB11B685B6873B153
:104630000025E36B1BB11B685B6803B90125FEF71E
:104640005CFF022800D025B938BD0025F1E701251F
:10465000EFE72268536843F400435360102120467B
:10466000FFF736FCF0E710B5846B2268136823F47B
:1046700080431360638D9BB2ABB1616A238D194493
:104680006162638D9BB2FF2B12D9FF2323852268C1
:10469000238D2832A06BFEF7F1FD60B1102120467A
:1046A000FFF716FC10BD20212046FFF7F3F8F9E7CD
:1046B000638D2385EBE740212046FFF7EBF8F1E718
:1046C00010B5846B2268136823F400431360638D74
:1046D0009BB2ABB1626A238D1A446262638D9BB256
:1046E000FF2B12D9FF2323852168238D2431E06B12
:1046F000FEF7C4FD60B110212046FFF7E9FB10BDB5
:1047000020212046FFF7C6F8F9E7638D2385EBE704
:1047100040212046FFF7BEF8F1E7000090F8403056
:10472000012B00F0BE8010B582B00446012380F852
:10473000403011F0100F02D012F0100F10D111F014
:10474000020F1BD012F0020F18D02368226D9A625C
:104750004FF0FF332365002084F8400002B010BD05
:1047600003681022DA61436C43F0040343642021A0
:10477000FFF790F82046FFF75EF8ECE711F0800FA6
:1047800002D012F0400F2AD111F0400F7DD012F06C
:10479000400F7AD094F84130DBB2222B60D04248EF
:1047A000638D9BB2FF2B5DD9FF222285E16C0090C7
:1047B0004FF0807389B22046FFF74EF8638D9BB2AD
:1047C000228D9B1A9BB2638594F84130DBB2222B79
:1047D00055D02268136843F480431360BBE710216F
:1047E0002046FFF757F8638D9BB2002B33D0638DC3
:1047F0009BB2FF2B1BD9FF222285E16C0023009383
:104800004FF0807389B22046FFF726F8638D9BB284
:10481000228D9B1A9BB2638594F84130DBB2222B28
:1048200013D02268136843F48043136093E7628DCA
:1048300092B22285E16C002300934FF00073D2B254
:1048400089B22046FFF708F8E0E72268136843F4CE
:10485000004313607FE740212046FFF739FB7AE7EA
:1048600012489DE7628D92B22285E16C00904FF074
:104870000073D2B289B22046FEF7EEFF9EE72268AF
:10488000136843F40043136065E711F0200F3FF411
:1048900062AF12F0200F3FF45EAF2046FFF7F8FC46
:1048A00059E70220704700BF0020008000240080EC
:1048B00010B502689369116813F4807F09D011F074
:1048C000800F06D0446C44F0010444644FF48074BB
:1048D000D46113F4806F0AD011F0800F07D0426CBE
:1048E00042F00802426402684FF48064D46113F419
:1048F000007F0AD011F0800F07D0436C43F0020311
:10490000436403684FF40072DA61416C11F00B0FDD
:1049100000D110BDFFF7DCFAFBE708B5806B836BB5
:104920000BB100221A65C36B0BB100221A65FFF7A9
:10493000B8FA08BD406C7047034690F84120D2B2E7
:10494000202A23D190F84020012A21D0012280F88A
:104950004020242280F841200068026822F00102F1
:1049600002601868026822F48052026018680268C7
:104970001143016019680A6842F001020A602022AE
:1049800083F84120002083F84000704702207047E0
:1049900002207047034690F84120D2B2202A21D14C
:1049A00090F84020012A1FD0012280F840202422C4
:1049B00080F841200068026822F001020260186855
:1049C000026822F4706242EA0122026019680A68F1
:1049D00042F001020A60202283F84120002083F87F
:1049E0004000704702207047022070472DE9F043D5
:1049F00083B0D0F8008001EBC10300EB8303DA6DD4
:104A00005B6D9A4254D807460C469B1A01EBC102D3
:104A100000EB8202926C9A4200D31A4602F103091B
:104A20004FEA990915E006F103094FEA990904EBE9
:104A3000C40507EB8505E96C3B7C0093B3B2E2B299
:104A4000404603F0E8FBEB6C3344EB64EB6D33441E
:104A5000EB6508EB441303F510639B699BB24B4570
:104A600012D304EBC40307EB8303DA6D5B6D9A4248
:104A70000AD24BB19B1A04EBC40207EB8202966C7C
:104A80009E42D0D31E46CEE704EBC40307EB830758
:104A90007A6DFB6D9A420FD804F00F040122A240F8
:104AA000D8F8343823EA0203C8F83438002000E08C
:104AB000012003B0BDE8F0830020FAE770B58AB0AA
:104AC000002800F097800546046890F8BD343BB399
:104AD000032385F8BD34E36B13F4807F01D10023F9
:104AE0002B61286803F0AEF82C4654F8106BEC46A6
:104AF0000FCCACE80F000FCCACE80F0094E803003B
:104B00008CE803002B1D0ECB304602F0B9FF0446A3
:104B100058B1022385F8BD34012420460AB070BD87
:104B200080F8BC34FEF72EF9D2E70021286803F0A4
:104B30007EFD234616E003EBC30205EB8202012152
:104B400082F83D1082F83C30A2F84430002182F80F
:104B500040109164D16403EBC30205EB82025165FE
:104B60000133DBB269688B42E5D316E004EBC40382
:104B700005EB8303002283F87D2283F87C4283F8CF
:104B80008022C3F88822C3F88C2204EBC40305EB0F
:104B90008303C3F894220134E4B2A142E6D82C4640
:104BA00054F8106BEC460FCCACE80F000FCCACE81F
:104BB0000F0094E803008CE803002B1D0ECB304659
:104BC00003F09CF8044660B9002385F838300123CF
:104BD00085F8BD346B6A012B08D0286803F0E6FC29
:104BE0009BE7022385F8BD34012496E7284600F0B0
:104BF00083FDF2E7012490E790F8BC34012B0ED03E
:104C000010B50446012380F8BC34006803F014F8A2
:104C1000206803F0BDFC002084F8BC0410BD022015
:104C20007047000070B504460D460068066C00EB46
:104C3000411303F530639A682169012911D038497D
:104C40008E4256D03DB905EBC50304EB8303D3F880
:104C50009432002B5ED0E9B2204605F0F0F9002036
:104C600070BD12F0080F09D02E498E42F7D912F408
:104C7000004FF4D04FF400429A60F0E712F0200F9A
:104C800002D020229A60EAE712F0280FE7D12549E6
:104C90008E4206D912F4004F03D04FF400429A60BE
:104CA000DDE705EBC50204EB8202D2F898121B691E
:104CB000C3F31203CB1AC2F89C327DB905EBC502CF
:104CC00004EB8202D2F894226AB105EBC50204EB30
:104CD0008202D2F88C121944C2F88C12E9B2204632
:104CE00005F0ADF9BBE704F2C442012103F0E0FC9A
:104CF000F4E712F4004F03D04FF400429A60AEE79D
:104D000012F0200F01D020229A60E9B2204605F06F
:104D100096F9A4E704F2C442002103F0C9FC9AE723
:104D20000A31544F0A30544F38B5044603681D6C9D
:104D300003EB4113D3F8081B0E4A954207D903F53C
:104D4000306311F4004F02D04FF400429A602046C5
:104D500005F06DF9074B9D4202D92369012B01D063
:104D6000002038BD04F2C4420121206803F0A0FCF9
:104D7000F6E700BF0A30544F90F8BC34012B0DD039
:104D800010B50446012380F8BC3480F83810006860
:104D900003F0EEFB002084F8BC0410BD0220704735
:104DA00038B505468C4611F0800F29D101F00F0E61
:104DB0000EEBCE04A40004F51E740444211D0EEB7A
:104DC000CE0E00EB8E0E00208EF87D020CF00F0C44
:104DD00081F800C0CA600B714A780AB1A1F808C016
:104DE000022B1DD095F8BC34012B1CD0012385F873
:104DF000BC34286803F064F8002085F8BC0438BD92
:104E000001F00F0000EBC001890038312944043162
:104E100000EBC00005EB8000012480F83D40D5E7A1
:104E200000234B71DEE70220E9E710B504460A468D
:104E300011F0800F20D101F00F0000EBC0039B00A8
:104E400003F51E732344191D00EBC00004EB800022
:104E5000002380F87D3202F00F020A7094F8BC340F
:104E6000012B19D0012384F8BC34206803F074F8B6
:104E7000002084F8BC0410BD01F00F0000EBC0035B
:104E80009B0038332344191D00EBC00004EB800065
:104E9000012380F83D30DEE70220ECE710B501F099
:104EA0000F0404EBC401890001F51E7101440431B3
:104EB00004EBC40C00EB8C0CCCF88C22CCF89432B4
:104EC0000023CCF89C328CF87D328CF87C4203694C
:104ED000012B06D064B9DAB2006803F0ADF8002007
:104EE00010BD04EBC40C00EB8C0CCCF89022F1E765
:104EF000DAB2006803F0A6F9F1E701F00F0101EB67
:104F0000C10100EB8100D0F89C02704710B501F0A0
:104F10000F0404EBC401890038310144043104EB6F
:104F2000C40C00EB8C0CCCF84C20CCF85430002393
:104F3000CCF85C3001238CF83D308CF83C400369A0
:104F4000012B06D064B9DAB2006803F075F80020CE
:104F500010BD04EBC40C00EB8C0CCCF85020F1E736
:104F6000DAB2006803F06EF9F1E738B501F00F0529
:104F70004268954239D804460B4611F0800F1FD184
:104F800001EBC101890001F51E710144043103EBFD
:104F9000C30300EB8303002283F87D2201238B707F
:104FA0000D7094F8BC34012B21D0012384F8BC345B
:104FB000206803F082FA8DB1002084F8BC0438BD6B
:104FC00005EBC501890038310144043105EBC50307
:104FD00000EB8303012283F83D20DFE704F2C442A3
:104FE000217C206803F064FBE6E70120E7E702206C
:104FF000E5E701F00F034268934231D810B504464B
:1050000011F0800F1ED103EBC301890001F51E7161
:105010000144043103EBC30200EB8202002082F85A
:105020007D0200228A700B7094F8BC34012B19D0D9
:10503000012384F8BC34206803F06CFA002084F863
:10504000BC0410BD03EBC3018900383101440431B5
:1050500003EBC30200EB8202012082F83D00E0E78F
:10506000012070470220ECE708B511F0800F0CD149
:1050700001F00F0101EBC101890001F51E7101442E
:105080000431006803F068F808BD01F00F0101EB7E
:10509000C1018900383101440431F2E72DE9F04FB4
:1050A00083B004460568284603F0BDFA10B103B08A
:1050B000BDE8F08F0646206803F086FA0028F6D097
:1050C00005F50067BB68C3F30D23C4F8FC34206802
:1050D00003F07AFA10F0020F04D02268536903F04B
:1050E00002035361206803F06FFA10F0100F14D020
:1050F0002268936923F010039361D5F8208008F0AB
:105100000F09C8F34343022B69D0062B00F08D80B2
:105110002268936943F010039361206803F054FA06
:1051200010F4002F40F09380206803F04DFA10F443
:10513000802F40F0FC80206803F046FA0028C0F27F
:105140007F81206803F040FA10F4006F09D0BB683B
:1051500013F0010F40F08C812268536903F400635F
:105160005361206803F030FA10F0006F15D0226808
:10517000536903F00063536194F8F434002B40F05A
:105180007B81012184F8F41423685B6DC3F38303EE
:10519000C4F8F834204600F0C3FA206803F014FA8B
:1051A00010F4805F40F06C81206803F00DFA10F479
:1051B000005F40F0B881206803F006FA10F0080F95
:1051C00040F0C981206803F0FFF910F0800F00F073
:1051D000DC81AB6923F08003AB610126C5E147F6B2
:1051E000F07318EA030F93D04FEA181A4FEAC90375
:1051F000019309EBC90B04EB8B0BC8F30A12DBF824
:105200008C12284603F036F9DBF88C32CAF30A0A0E
:105210005344CBF88C32DBF89C32019A4A4404EBBD
:1052200082025344C2F89C3272E7082204F2C4415D
:10523000284603F01FF909EBC90304EB8303D3F8F5
:105240009C22C8F30A184244C3F89C2260E72068F5
:1052500003F0BEF98046B14635E005EB4913012263
:10526000C3F8082B49462046FFF7DCFC3CE005EB81
:1052700049130822C3F8082B49462046FFF754FD7E
:1052800035E009EBC90304EB830393F87F32012B6C
:1052900041D005EB49130222C3F8082B1AF0200F66
:1052A00004D005EB49132022C3F8082B1AF4005F41
:1052B00005D005EB49134FF40052C3F8082B09F150
:1052C00001094FEA5808B8F1000F3FF42DAF18F06C
:1052D000010FF4D05FFA89FB5946206803F088F982
:1052E000824610F0010FB8D11AF0080FBFD11AF0A2
:1052F000100F04D005EB49131022C3F8082B1AF045
:10530000020FCBD06B6913F0800FBAD07B6843F4E7
:1053100080637B60B5E709EBC90304EB83030022DC
:1053200083F87F225946204604F0DAFEB1E7206870
:1053300003F056F98046B14625E05946204604F070
:105340008AFE1AF0080F04D005EB49130822C3F8AF
:1053500008291AF0100F04D005EB49131022C3F8E6
:1053600008291AF0400F04D005EB49134022C3F876
:1053700008291AF0020F40D11AF0800F5BD109F111
:1053800001094FEA5808B8F1000F3FF4D4AE18F005
:10539000010FF4D05FFA89FB5946206803F031F918
:1053A000824610F0010FCCD009F00F02012101FA62
:1053B00002F27B6B23EA02037B6305EB4913C3F81C
:1053C000081923698B42B8D109EBC90304EB8303A5
:1053D000DA6C996C0A44DA64B9F1000FADD109EBCB
:1053E000C90304EB83035B6D002BA6D104F2C44216
:1053F0000121206803F05CF99FE74946284602F046
:1054000027FC09EBC90304EB830393F83F30012B1E
:1054100005D005EB49130222C3F80829ACE709EBD4
:10542000C90304EB8303002283F83F20594620463A
:1054300004F05CFEEDE749462046FFF7D7FA9EE709
:105440007B6823F001037B6094F8F434012B08D0CF
:10545000204604F03FFE2268536903F00043536185
:105460006FE6002184F8F414204600F059F9F2E7C1
:10547000204604F017FE6FE6204604F013FE8CE68B
:105480007B6823F001037B601021206802F0E0FBC1
:105490001AE005EB46134FF67F31C3F80819D3F82D
:1054A000002922F40012C3F80029C3F8081BD3F81E
:1054B000002B22F40012C3F8002BD3F8002B42F08B
:1054C0000062C3F8002B01366368B342E1D8FB6980
:1054D00043F00113FB61236BDBB1D7F8843043F059
:1054E0000B03C7F884307B6C43F00B037B64D5F867
:1054F000003823F4FE63C5F8003804F2C442217C6E
:10550000206803F0D5F82268536903F4805353618F
:105510004AE67A6942F22B0313437B613B6943F00D
:105520000B033B61E3E7206803F0B2F8206802F068
:10553000B7FCE060266800F057FC0146227B30464D
:1055400002F008FB204604F097FD2268536903F43B
:10555000005353612FE6204604F088FD226853690A
:1055600003F0080353612DE601366368B3420CD99A
:1055700006EBC60304EB830393F87F32012BF3D1D0
:10558000F1B22046FFF770FDEEE7206803F01CF84B
:1055900010F4801F27D1206803F016F810F4001FC4
:1055A0005BD0012328E001366368B3421DD905EBC7
:1055B0004613D3F8002906EBC60304EB830393F8E4
:1055C0004030012BEFD1002AEDDA06EBC60304EBE5
:1055D0008303012283F83F2066F07F01C9B2204691
:1055E000FFF742FDDFE70126DEE72268536903F497
:1055F00080135361CFE7013362689A4228D905EBE3
:105600004312D2F8001B03EBC30204EB820292F8B0
:105610008022012AEFD10029EDDA01F48031D4F89B
:10562000FC2402F001029142E5D103EBC30204EB3A
:105630008202012182F87F12AA6942F08002AA61E7
:105640006A6912F0800FD6D17B6843F400737B60E7
:105650002268536903F400135361206802F0B4FF19
:1056600010F0804F10D1206802F0AEFF10F0040F50
:105670003FF41DAD23685D6815F0040F0DD122685D
:1056800053682B43536012E5204604F035FD226831
:10569000536903F080435361E5E7204604F032FD8F
:1056A000EDE710B40468606A31B940EA0240A062D4
:1056B00000205DF8044B70478C46A36A00EB134052
:1056C000002308E003F1400104EB8101496800EB8D
:1056D00011400133DBB20CF1FF318B42F2D340EACF
:1056E00002400CF13F0104EB81046060E0E70368D5
:1056F0005962002070470000034602680121C0F88B
:105700000015002083F8F404936943F0006393616B
:10571000516D024B0B435365704700BF03000010EF
:105720007047000010B582B01B4B1A6C42F08052DB
:105730001A641B6C03F080530193019B174A136892
:1057400043F480331360FDF7DDFB0446134B5B68C5
:1057500013F4803F08D1FDF7D5FB001BB0F57A7F2D
:10576000F4D9032002B010BD0C4A136843F400338F
:105770001360FDF7C7FB0446084B5B6813F4003F5A
:1057800007D1FDF7BFFB001BB0F57A7FF4D90320EA
:10579000E8E70020E6E700BF003802400070004064
:1057A000002800F0FF8170B582B00446036813F052
:1057B000010F29D0954B9B6803F00C03042B1AD0E2
:1057C000924B9B6803F00C03082B0FD06368B3F572
:1057D000803F40D0002B54D18C4B1A6822F4803289
:1057E0001A601A6822F480221A6039E0874B5B68DD
:1057F00013F4800FEAD0854B1B6813F4003F03D0ED
:105800006368002B00F0D081236813F0020F74D07E
:105810007E4B9B6813F00C0F5ED07C4B9B6803F0B3
:105820000C03082B53D0E368002B00F08980774AE3
:10583000136843F001031360FDF764FB0546734BE7
:105840001B6813F0020F72D1FDF75CFB401B0228AE
:10585000F5D90320ADE16D4A136843F4803313603A
:1058600063682BB3FDF74EFB0546684B1B6813F4CA
:10587000003FC9D1FDF746FB401B6428F5D9032042
:1058800097E1B3F5A02F09D0604B1A6822F480325B
:105890001A601A6822F480221A60E1E75B4B1A68EA
:1058A00042F480221A601A6842F480321A60D7E704
:1058B000FDF728FB0546554B1B6813F4003FA3D0AA
:1058C000FDF720FB401B6428F5D9032071E14F4B05
:1058D0005B6813F4800FA6D14C4B1B6813F0020FCA
:1058E00003D0E368012B40F06181484A136823F03C
:1058F000F803216943EAC1031360236813F0080F1A
:1059000046D0636983B3414A536F43F00103536741
:10591000FDF7F8FA05463D4B5B6F13F0020F37D1E8
:10592000FDF7F0FA401B0228F5D9032041E1374A80
:10593000136823F0F803216943EAC1031360DCE72D
:10594000324A136823F001031360FDF7DBFA0546C2
:105950002E4B1B6813F0020FCFD0FDF7D3FA401B7C
:105960000228F5D9032024E1284A536F23F00103CC
:105970005367FDF7C7FA0546244B5B6F13F0020F20
:1059800006D0FDF7BFFA401B0228F5D9032010E12D
:10599000236813F0040F7DD01C4B1B6C13F0805F49
:1059A0001ED11A4B1A6C42F080521A641B6C03F021
:1059B00080530193019B0125154B1B6813F4807FD5
:1059C00010D0A368012B25D0002B3BD10F4B1A6FB1
:1059D00022F001021A671A6F22F004021A671EE011
:1059E0000025E9E70A4A136843F480731360FDF762
:1059F00089FA0646064B1B6813F4807FE1D1FDF758
:105A000081FA801B6428F5D90320D2E000380240D7
:105A1000007000406E4A136F43F001031367A368E0
:105A200033B3FDF76FFA0646694B1B6F13F0020F95
:105A30002FD1FDF767FA801B41F288339842F3D9E2
:105A40000320B6E0052B09D0614B1A6F22F001024A
:105A50001A671A6F22F004021A67E0E75C4B1A6FAC
:105A600042F004021A671A6F42F001021A67D6E781
:105A7000FDF748FA0646564B1B6F13F0020F08D08D
:105A8000FDF740FA801B41F288339842F3D9032096
:105A90008FE0FDB9A369002B00F08A804C4A926820
:105AA00002F00C02082A58D0022B19D0484A136879
:105AB00023F080731360FDF725FA0446444B1B68FE
:105AC00013F0007F47D0FDF71DFA001B0228F5D91F
:105AD00003206EE03E4A136C23F080531364D9E731
