:020000040800F2
:1000000000000420396A0008191500081B150008B3
:100010001D1500081F15000821150008000000002C
:100020000000000000000000000000002315000890
:1000300025150008000000002715000829150008F4
:10004000896A0008896A0008896A0008896A0008C4
:10005000896A0008896A0008896A0008896A0008B4
:10006000896A0008896A0008896A0008896A0008A4
:10007000896A0008896A0008896A0008896A000894
:10008000896A0008896A0008896A0008896A000884
:10009000896A0008896A0008896A0008896A000874
:1000A000896A000831150008896A000841150008AE
:1000B000896A0008896A0008896A0008896A000854
:1000C000896A0008896A0008896A0008896A000844
:1000D000896A0008896A0008896A0008896A000834
:1000E000896A0008896A0008896A0008896A000824
:1000F000896A0008896A0008896A0008896A000814
:10010000896A0008896A0008896A0008896A000803
:10011000896A0008896A0008511500087D150008E1
:10012000896A0008896A0008896A0008896A0008E3
:10013000896A0008000000000000000000000000C4
:10014000000000000000000000000000896A0008B4
:10015000896A0008896A0008896A0008896A0008B3
:10016000896A0008896A0008896A0008896A0008A3
:10017000896A00088D1500080000000000000000DA
:10018000896A0008896A0008896A0008896A000883
:10019000896A0008896A000800000000896A00086E
:1001A000000000000000000000000000896A000854
:1001B000896A0008896A0008000000000000000049
:1001C000000000000000000000000000000000002F
:1001D000000000000000000000000000896A000824
:1001E00010B5054C237833B9044B13B10448AFF371
:1001F00000800123237010BD880300200000000050
:100200002C91000808B5034B1BB103490348AFF319
:10021000008008BD000000008C0300202C91000825
:1002200001F0FF01102A2BDB10F0070F08D010F8A7
:10023000013B013A8B422DD010F0070F42B3F6D1AB
:10024000F0B441EA012141EA014122F007047FF0C4
:1002500000070023F0E80256083C85EA010586EA1B
:10026000010685FA47F5A3FA87F586FA47F6A5FA57
:1002700087F68EB9EED1F0BC01F0FF0102F0070263
:1002800032B110F8013B013A83EA010313B1F8D10E
:100290000020704701387047002D06BF35460338EF
:1002A000073815F0010F07D1013015F4807F02BF28
:1002B000013015F4C03F0130F0BC0138704700BF79
:1002C00081F0004102E000BF83F0004330B54FEA07
:1002D00041044FEA430594EA050F08BF90EA020F74
:1002E0001FBF54EA000C55EA020C7FEA645C7FEA07
:1002F000655C00F0E2804FEA5454D4EB5555B8BF2A
:100300006D420CDD2C4480EA020281EA030382EA9A
:10031000000083EA010180EA020281EA0303362D2C
:1003200088BF30BD11F0004F4FEA01314FF4801CFF
:100330004CEA113102D0404261EB410113F0004F11
:100340004FEA03334CEA133302D0524263EB4303C8
:1003500094EA050F00F0A780A4F10104D5F1200E66
:100360000DDB02FA0EFC22FA05F2801841F10001C1
:1003700003FA0EF2801843FA05F359410EE0A5F195
:1003800020050EF1200E012A03FA0EFC28BF4CF0C6
:10039000020C43FA05F3C01851EBE37101F000457C
:1003A00007D54FF0000EDCF1000C7EEB00006EEB89
:1003B0000101B1F5801F1BD3B1F5001F0CD3490813
:1003C0005FEA30004FEA3C0C04F101044FEA44526A
:1003D00012F5800F80F09A80BCF1004F08BF5FEAF1
:1003E000500C50F1000041EB045141EA050130BDD1
:1003F0005FEA4C0C404141EB0101013C28BFB1F5E3
:10040000801FE9D291F0000F04BF01460020B1FA2D
:1004100081F308BF2033A3F10B03B3F120020CDA00
:100420000C3208DD02F1140CC2F10C0201FA0CF0DE
:1004300021FA02F10CE002F11402D8BFC2F1200C43
:1004400001FA02F120FA0CFCDCBF41EA0C019040F9
:10045000E41AA2BF01EB0451294330BD6FEA040442
:100460001F3C1CDA0C340EDC04F11404C4F120022D
:1004700020FA04F001FA02F340EA030021FA04F33F
:1004800045EA030130BDC4F10C04C4F1200220FA96
:1004900002F001FA04F340EA0300294630BD21FAD4
:1004A00004F0294630BD94F0000F83F4801306BF9A
:1004B00081F480110134013D4EE77FEA645C18BF8E
:1004C0007FEA655C29D094EA050F08BF90EA020F25
:1004D00005D054EA000C04BF1946104630BD91EA1D
:1004E000030F1EBF0021002030BD5FEA545C05D120
:1004F0004000494128BF41F0004130BD14F580045F
:100500003CBF01F5801130BD01F0004545F0FE41D2
:1005100041F470014FF0000030BD7FEA645C1ABF07
:10052000194610467FEA655C1CBF0B46024650EA3E
:10053000013406BF52EA033591EA030F41F400216A
:1005400030BD00BF90F0000F04BF0021704730B5F0
:100550004FF4806404F132044FF000054FF00001C5
:1005600050E700BF90F0000F04BF0021704730B586
:100570004FF4806404F1320410F0004548BF40425B
:100580004FF000013EE700BF42004FEAE2014FEAB0
:1005900031014FEA02701FBF12F07F4393F07F4F8B
:1005A00081F06051704732F07F4208BF704793F08E
:1005B0007F4F04BF41F40021704730B54FF46074A1
:1005C00001F0004521F000411CE700BF50EA0102A4
:1005D00008BF704730B54FF000050AE050EA01024D
:1005E00008BF704730B511F0004502D5404261EBBD
:1005F00041014FF4806404F132045FEA915C3FF4FE
:10060000D8AE4FF003025FEADC0C18BF03325FEA9A
:10061000DC0C18BF033202EBDC02C2F1200300FA4B
:1006200003FC20FA02F001FA03FE40EA0E0021FA70
:1006300002F11444BDE600BF70B54FF0FF0C4CF45E
:10064000E06C1CEA11541DBF1CEA135594EA0C0F10
:1006500095EA0C0F00F0DEF82C4481EA030621EA4B
:100660004C5123EA4C5350EA013518BF52EA033586
:1006700041F4801143F4801338D0A0FB02CE4FF038
:100680000005E1FB02E506F00042E0FB03E54FF068
:100690000006E1FB03569CF0000F18BF4EF0010E60
:1006A000A4F1FF04B6F5007F64F5407404D25FEA5C
:1006B0004E0E6D4146EB060642EAC62141EA55510F
:1006C0004FEAC52040EA5E504FEACE2EB4F1FD0C51
:1006D00088BFBCF5E06F1ED8BEF1004F08BF5FEACF
:1006E000500E50F1000041EB045170BD06F0004681
:1006F00046EA010140EA020081EA0301B4EB5C042E
:10070000C2BFD4EB0C0541EA045170BD41F4801125
:100710004FF0000E013C00F3AB8014F1360FDEBF4A
:10072000002001F0004170BDC4F10004203C35DA26
:100730000C341BDC04F11404C4F1200500FA05F3A9
:1007400020FA04F001FA05F240EA020001F000424A
:1007500021F0004110EBD37021FA04F642EB0601C0
:100760005EEA430E08BF20EAD37070BDC4F10C04EA
:10077000C4F1200500FA04F320FA05F001FA04F2AE
:1007800040EA020001F0004110EBD37041F100019A
:100790005EEA430E08BF20EAD37070BDC4F12005A5
:1007A00000FA05F24EEA020E20FA04F301FA05F20D
:1007B00043EA020321FA04F001F0004121FA04F2B5
:1007C00020EA020000EBD3705EEA430E08BF20EA85
:1007D000D37070BD94F0000F0FD101F000464000BF
:1007E00041EB010111F4801F08BF013CF7D041EA41
:1007F000060195F0000F18BF704703F00046520045
:1008000043EB030313F4801F08BF013DF7D043EA15
:100810000603704794EA0C0F0CEA135518BF95EACB
:100820000C0F0CD050EA410618BF52EA4306D1D152
:1008300081EA030101F000414FF0000070BD50EA71
:10084000410606BF1046194652EA430619D094EAFB
:100850000C0F02D150EA013613D195EA0C0F05D1E5
:1008600052EA03361CBF104619460AD181EA030139
:1008700001F0004141F0FE4141F470014FF00000F1
:1008800070BD41F0FE4141F4780170BD70B54FF08C
:10089000FF0C4CF4E06C1CEA11541DBF1CEA13550C
:1008A00094EA0C0F95EA0C0F00F0A7F8A4EB0504EE
:1008B00081EA030E52EA03354FEA013100F08880E5
:1008C0004FEA03334FF0805545EA131343EA1263AE
:1008D0004FEA022245EA111545EA10654FEA002663
:1008E0000EF000419D4208BF964244F1FD0404F51C
:1008F000407402D25B084FEA3202B61A65EB030578
:100900005B084FEA32024FF480104FF4002CB6EB34
:10091000020E75EB030E22BFB61A754640EA0C00B4
:100920005B084FEA3202B6EB020E75EB030E22BFF4
:10093000B61A754640EA5C005B084FEA3202B6EB35
:10094000020E75EB030E22BFB61A754640EA9C00F4
:100950005B084FEA3202B6EB020E75EB030E22BFC4
:10096000B61A754640EADC0055EA060E18D04FEA82
:10097000051545EA16754FEA06164FEAC30343EA22
:1009800052734FEAC2025FEA1C1CC0D111F4801FEF
:100990000BD141EA00014FF000004FF0004CB6E7E8
:1009A00011F4801F04BF01430020B4F1FD0C88BF87
:1009B000BCF5E06F3FF6AFAEB5EB030C04BFB6EB92
:1009C000020C5FEA500C50F1000041EB045170BD85
:1009D0000EF0004E4EEA113114EB5C04C2BFD4EBB2
:1009E0000C0541EA045170BD41F480114FF0000E36
:1009F000013C90E645EA060E8DE60CEA135594EAB2
:100A00000C0F08BF95EA0C0F3FF43BAF94EA0C0FB4
:100A10000AD150EA01347FF434AF95EA0C0F7FF429
:100A200025AF104619462CE795EA0C0F06D152EA7D
:100A300003353FF4FDAE1046194622E750EA410661
:100A400018BF52EA43067FF4C5AE50EA41047FF472
:100A50000DAF52EA43057FF4EBAE12E74FF0FF3CD7
:100A600006E000BF4FF0010C02E000BF4FF0010CA8
:100A70004DF804CD4FEA410C7FEA6C5C4FEA430C21
:100A800018BF7FEA6C5C1BD001B050EA410C0CBF70
:100A900052EA430C91EA030F02BF90EA020F0020D2
:100AA000704710F1000F91EA030F58BF994208BF39
:100AB00090422CBFD8176FEAE37040F001007047F6
:100AC0004FEA410C7FEA6C5C02D150EA013C07D14D
:100AD0004FEA430C7FEA6C5CD6D152EA033CD3D098
:100AE0005DF8040B704700BF8446104662468C4692
:100AF0001946634600E000BF01B5FFF7B7FF0028C5
:100B000048BF10F1000F01BD4DF808EDFFF7F4FFED
:100B10000CBF012000205DF808FB00BF4DF808ED78
:100B2000FFF7EAFF34BF012000205DF808FB00BF9B
:100B30004DF808EDFFF7E0FF94BF012000205DF8BD
:100B400008FB00BF4DF808EDFFF7CEFF94BF012072
:100B500000205DF808FB00BF4DF808EDFFF7C4FF6B
:100B600034BF012000205DF808FB00BF4FEA410CB4
:100B70007FEA6C5C02D150EA013C0AD14FEA430C97
:100B80007FEA6C5C02D152EA033C02D14FF00000D4
:100B900070474FF0010070474A0011D212F5001261
:100BA00011D20DD56FF47873B3EB62520ED44FEAC5
:100BB000C12343F0004343EA505323FA02F0704745
:100BC0004FF00000704750EA013002D14FF0FF3083
:100BD00070474FF0000070474FEA4102B2F1E04326
:100BE00024BFB3F5001CDCF1FE5C0DD901F0004C14
:100BF0004FEAC0024CEA5070B2F1004F40EB830064
:100C000008BF20F00100704711F0804F21D113F18F
:100C10003872BCBF01F00040704741F480114FEAC8
:100C20005252C2F11802C2F1200C10FA0CF320FA51
:100C300002F018BF40F001004FEAC1234FEAD3236E
:100C400003FA0CFC40EA0C0023FA02F34FEA4303D8
:100C5000CCE77FEA625307D150EA01331EBF4FF061
:100C6000FE4040F44000704701F0004040F0FE407C
:100C700040F40000704700BF53B94AB9002908BFCB
:100C800000281CBF4FF0FF314FF0FF3000F074B967
:100C9000ADF1080C6DE904CE00F006F8DDF804E0D3
:100CA000DDE9022304B070472DE9F047089D0446B2
:100CB0008E46002B4DD18A42944669D9B2FA82F20F
:100CC00052B101FA02F3C2F1200120FA01F10CFA4B
:100CD00002FC41EA030E94404FEA1C48210CBEFB83
:100CE000F8F61FFA8CF708FB16E341EA034306FB0C
:100CF00007F199420AD91CEB030306F1FF3080F09B
:100D00001F81994240F21C81023E63445B1AA4B2E7
:100D1000B3FBF8F008FB103344EA034400FB07F789
:100D2000A7420AD91CEB040400F1FF3380F00A81CA
:100D3000A74240F207816444023840EA0640E41BBF
:100D400000261DB1D4400023C5E900433146BDE86B
:100D5000F0878B4209D9002D00F0EF800026C5E90D
:100D6000000130463146BDE8F087B3FA83F6002E25
:100D70004AD18B4202D3824200F2F980841A61EB9D
:100D8000030301209E46002DE0D0C5E9004EDDE7BB
:100D900002B9FFDEB2FA82F2002A40F09280A1EBA3
:100DA0000C014FEA1C471FFA8CFE0126200CB1FBF8
:100DB000F7F307FB131140EA01410EFB03F08842F1
:100DC00008D91CEB010103F1FF3802D2884200F27E
:100DD000CB804346091AA4B2B1FBF7F007FB101110
:100DE00044EA01440EFB00FEA64508D91CEB0404AE
:100DF00000F1FF3102D2A64500F2BB800846A4EB09
:100E00000E0440EA03409CE7C6F12007B34022FAF3
:100E100007FC4CEA030C20FA07F401FA06F31C4322
:100E2000F9404FEA1C4900FA06F3B1FBF9F8200C2F
:100E30001FFA8CFE09FB181140EA014108FB0EF075
:100E4000884202FA06F20BD91CEB010108F1FF3AC5
:100E500080F08880884240F28580A8F102086144D1
:100E6000091AA4B2B1FBF9F009FB101144EA0141DF
:100E700000FB0EFE8E4508D91CEB010100F1FF348A
:100E80006CD28E456AD90238614440EA0840A0FB22
:100E90000294A1EB0E01A142C846A64656D353D0F8
:100EA0005DB1B3EB080261EB0E0101FA07F722FA1C
:100EB00006F3F1401F43C5E9007100263146BDE845
:100EC000F087C2F12003D8400CFA02FC21FA03F3A8
:100ED000914001434FEA1C471FFA8CFEB3FBF7F029
:100EE00007FB10360B0C43EA064300FB0EF69E424E
:100EF00004FA02F408D91CEB030300F1FF382FD2E7
:100F00009E422DD9023863449B1B89B2B3FBF7F68E
:100F100007FB163341EA034106FB0EF38B4208D967
:100F20001CEB010106F1FF3816D28B4214D9023EA8
:100F30006144C91A46EA004638E72E46284605E7C6
:100F40000646E3E61846F8E64B45A9D2B9EB020897
:100F500064EB0C0E0138A3E74646EAE7204694E727
:100F60004046D1E7D0467BE7023B614432E730465A
:100F700009E76444023842E7704700BF08B50268D9
:100F8000044B9A4200D008BD01221146024801F0EC
:100F9000A7F9F8E700000140000C02400268094B85
:100FA0009A4200D0704710B504460022012106483D
:100FB00001F096F9054B93ED000B03F009FE236851
:100FC000586310BD00000140000C024030040020B6
:100FD00072B6FEE700B595B03022002108A805F0F2
:100FE00087FD002303930493059306930793234BF4
:100FF0001A6C42F080521A641B6C03F08053019308
:10100000019B1F4B1A6842F440421A601B6803F4AC
:1010100040430293029B012308934FF4A0230993BA
:1010200002230E934FF480020F92192210924FF474
:10103000D872119212930923139308A800F0C6FAEC
:10104000B0B901F053F9A8B90F2303930223049315
:10105000002305934FF4A05306934FF48053079356
:10106000072103A800F01EFD30B915B05DF804FBA0
:10107000FFF7AEFFFFF7ACFFFFF7AAFF0038024013
:101080000070004008B5184B00200021C3E90001A2
:1010900001F0FAF9154803F0CBFDFFF79BFF00F0D4
:1010A0002DF800F0F5F800F02BF900F04FF900F002
:1010B00073F900F079F803F059FE03F02FFE03F006
:1010C000C9FD03F0DDFE0A4C204601F043FC09484F
:1010D00001F040FC084801F03DFC0021204601F0F1
:1010E000BDFE04F02BFFFEE730040020A403002027
:1010F000CC050020640600201806002010B58CB036
:1011000000220792089209920A920B92244B196BC3
:1011100041F010011963196B01F01001019101995F
:10112000196B41F080011963196B01F08001029184
:101130000299196B41F004011963196B01F0040164
:1011400003910399196B41F001011963196B01F0C7
:10115000010104910499196B41F002011963196BA3
:1011600001F0020105910599196B41F0080119631D
:101170001B6B03F008030693069B0A4C1F212046B5
:1011800001F0AEF81F23079301230893022309936C
:1011900003230A9307A9204600F0B2FF0CB010BD4C
:1011A00000380240000C024008B51448144B03609C
:1011B000A3F1FE53A3F6984343600023836001220A
:1011C000C260036143618361C361036201F094F90A
:1011D00050B90021094801F0EDF940B90021074854
:1011E00001F016FA30B908BDFFF7F2FEF1E7FFF79C
:1011F000EFFEF3E7FFF7ECFEF5E700BF3804002051
:101200000054004010B5A8B0044600212391249159
:10121000259126912791802203A805F069FC226878
:10122000184B9A4201D028B010BD4FF4804303936D
:1012300003A800F0F3FC08BB134C236B43F002033C
:101240002363236B03F002030193019BC0232393C9
:101250001223249300232593032326930423279307
:1012600023A90A4800F04CFF236C43F400132364C5
:10127000236C03F400130293029BD4E7FFF7A8FE4C
:10128000DAE700BF0054004000380240000402408A
:1012900008B50548054B036001F0E6F900B908BD43
:1012A000FFF796FEFBE700BF8C0400200008065005
:1012B00010B5A2B004468022002102A805F018FC57
:1012C00022680D4B9A4201D022B010BD4FF400139A
:1012D000029302A800F0A2FC50B9084B5A6B42F0EE
:1012E00040025A635B6B03F040030193019BEBE701
:1012F000FFF76EFEF1E700BF00080650003802401D
:1013000008B51048104B03604FF48273436000230C
:1013100083604FF4E062C260036143614FF4007286
:101320008261C3610362436283620722C262036314
:101330000823436301F0AFF900B908BDFFF748FE89
:10134000FBE700BF9C0400200030014008B51048B6
:10135000104B03604FF482734360002383604FF4AB
:101360004072C260036143614FF400728261C361E5
:101370000362436283620722C262036308234363FA
:1013800001F089F900B908BDFFF722FEFBE700BFB5
:10139000000500200038004008B51048104B0360DD
:1013A0004FF482734360002383604FF44072C26045
:1013B000036143614FF400728261C361036243625F
:1013C00083620722C26203630823436301F063F967
:1013D00000B908BDFFF7FCFDFBE700BF6405002076
:1013E0000034014070B58CB0002307930893099333
:1013F0000A930B930368404A934207D03F4A9342B3
:1014000024D03F4A934256D00CB070BD3D4B5A6C2D
:1014100042F480525A645A6C02F480520092009A4C
:101420001A6B42F001021A631B6B03F00103019374
:10143000019BE02307930223089303230A930523C8
:101440000B9307A9304800F05BFEDDE72D4B1A6CCB
:1014500042F480421A641A6C02F480420292029AA8
:101460001A6B42F004021A631A6B02F00402039230
:10147000039A1A6B42F002021A631B6B03F0020319
:101480000493049B062307930226089603250A95D6
:1014900005240B9407A91D4800F032FE4FF4806329
:1014A00007930896002309930A950B9407A91848F7
:1014B00000F026FEA8E7134B5A6C42F400525A641F
:1014C0005A6C02F400520592059A1A6B42F010020F
:1014D0001A631B6B03F010030693069B64230793A8
:1014E0000223089303230A9305230B9307A90948B2
:1014F00000F006FE88E700BF0030014000380040E1
:101500000034014000380240000002400008024060
:101510000004024000100240FEE7FEE7FEE7FEE79F
:10152000FEE770477047704708B500F0BFFF08BD81
:1015300008B5024801F059FA08BD00BFCC050020EB
:1015400008B5024801F051FA08BD00BFCC050020E3
:1015500010B5074801F049FA064C074BD3E90023C0
:10156000D4E90001FEF7B2FEC4E9000110BD00BFDE
:1015700018060020300400205891000808B50248E1
:1015800001F033FA08BD00BF6406002008B5024828
:1015900002F02EF908BD00BFB006002082B00A4B51
:1015A0001A6C42F080521A641A6C02F08052009257
:1015B000009A5A6C42F480425A645B6C03F4804394
:1015C0000193019B02B0704700380240002800F0F0
:1015D000FF8170B582B00446036813F0010F29D073
:1015E000954B9B6803F00C03042B1AD0924B9B681D
:1015F00003F00C03082B0FD06368B3F5803F40D095
:10160000002B54D18C4B1A6822F480321A601A686D
:1016100022F480221A6039E0874B5B6813F4800F54
:10162000EAD0854B1B6813F4003F03D06368002B9E
:1016300000F0D081236813F0020F74D07E4B9B68BA
:1016400013F00C0F5ED07C4B9B6803F00C03082B4F
:1016500053D0E368002B00F08980774A136843F089
:101660000103136000F02EFF0546734B1B6813F057
:10167000020F72D100F026FF401B0228F5D903208B
:10168000ADE16D4A136843F48033136063682BB394
:1016900000F018FF0546684B1B6813F4003FC9D1E2
:1016A00000F010FF401B6428F5D9032097E1B3F543
:1016B000A02F09D0604B1A6822F480321A601A6891
:1016C00022F480221A60E1E75B4B1A6842F4802220
:1016D0001A601A6842F480321A60D7E700F0F2FE0E
:1016E0000546554B1B6813F4003FA3D000F0EAFEFB
:1016F000401B6428F5D9032071E14F4B5B6813F45C
:10170000800FA6D14C4B1B6813F0020F03D0E36887
:10171000012B40F06181484A136823F0F8032169E6
:1017200043EAC1031360236813F0080F46D06369CE
:1017300083B3414A536F43F00103536700F0C2FE85
:1017400005463D4B5B6F13F0020F37D100F0BAFE38
:10175000401B0228F5D9032041E1374A136823F0E2
:10176000F803216943EAC1031360DCE7324A1368D6
:1017700023F00103136000F0A5FE05462E4B1B6805
:1017800013F0020FCFD000F09DFE401B0228F5D9C8
:10179000032024E1284A536F23F00103536700F02C
:1017A00091FE0546244B5B6F13F0020F06D000F04C
:1017B00089FE401B0228F5D9032010E1236813F0AD
:1017C000040F7DD01C4B1B6C13F0805F1ED11A4B95
:1017D0001A6C42F080521A641B6C03F08053019320
:1017E000019B0125154B1B6813F4807F10D0A36863
:1017F000012B25D0002B3BD10F4B1A6F22F0010299
:101800001A671A6F22F004021A671EE00025E9E742
:101810000A4A136843F48073136000F053FE0646CF
:10182000064B1B6813F4807FE1D100F04BFE801B58
:101830006428F5D90320D2E000380240007000404F
:101840006E4A136F43F001031367A36833B300F0CC
:1018500039FE0646694B1B6F13F0020F2FD100F0C3
:1018600031FE801B41F288339842F3D90320B6E061
:10187000052B09D0614B1A6F22F001021A671A6F0B
:1018800022F004021A67E0E75C4B1A6F42F0040290
:101890001A671A6F42F001021A67D6E700F012FECB
:1018A0000646564B1B6F13F0020F08D000F00AFEDD
:1018B000801B41F288339842F3D903208FE0FDB9B1
:1018C000A369002B00F08A804C4A926802F00C0257
:1018D000082A58D0022B19D0484A136823F0807385
:1018E000136000F0EFFD0446444B1B6813F0007FCB
:1018F00047D000F0E7FD001B0228F5D903206EE079
:101900003E4A136C23F080531364D9E73B4A1368B3
:1019100023F08073136000F0D5FD0546374B1B683C
:1019200013F0007F06D000F0CDFD401B0228F5D952
:10193000032054E0E369226A1343626A43EA821394
:10194000A26A5208013A43EA0243E26A43EA0263A6
:1019500043F00053294A5360136843F080731360C7
:1019600000F0B0FD0446254B1B6813F0007F06D144
:1019700000F0A8FD001B0228F5D903202FE000206D
:101980002DE000202BE01D4A5268012B29D002F4E3
:101990008003E1698B4226D102F03F03216A8B422A
:1019A00023D1616A47F6C0731340B3EB811F1ED188
:1019B00002F44031A36A5B08013BB1EB034F18D13D
:1019C00002F07062E36AB2EB036F14D1002006E00C
:1019D00001207047012002E0012000E0002002B059
:1019E00070BD0120FBE70120F9E70120F7E70120A6
:1019F000F5E70120F3E70120F1E700BF00380240DE
:101A000008B5254B9B6803F00C03042B3FD0082B33
:101A10003FD1214B5A6802F03F025B6813F4800FFC
:101A200012D01D4B5968C1F388111C480023A1FB3B
:101A30000001FFF721F9184B5B68C3F30143013341
:101A40005B00B0FBF3F025E0134B5968C1F3881C31
:101A50004FEA4C11B1EB0C006EEB0E0E4FEA8E13F9
:101A600043EA90638101091A63EB0E03DB0043EA4A
:101A70005173C90011EB0C0C43F1000399020023D0
:101A80004FEA8C2041EA9C51FFF7F6F8D3E7034870
:101A900000E0034808BD00BF0038024040787D01E7
:101AA0000024F400002800F0A08070B50D46044624
:101AB000524B1B6803F00F038B420BD24F4A136843
:101AC00023F00F030B431360136803F00F038B42E3
:101AD00040F08D80236813F0020F17D013F0040F2D
:101AE00004D0474A936843F4E0539360236813F0AB
:101AF000080F04D0424A936843F460439360404A1D
:101B0000936823F0F003A1680B439360236813F0FC
:101B1000010F31D06368012B20D0022B25D0384A29
:101B2000126812F0020F64D035498A6822F003026D
:101B300013438B6000F0C6FC0646314B9B6803F0F4
:101B40000C036268B3EB820F16D000F0BBFC801B65
:101B500041F288339842F0D9032045E0284A1268C0
:101B600012F4003FE0D101203EE0254A126812F055
:101B7000007FD9D1012037E0204B1B6803F00F0311
:101B8000AB420AD91D4A136823F00F032B4313609D
:101B9000136803F00F03AB422DD1236813F0040F39
:101BA00006D0174A936823F4E053E1680B4393602F
:101BB000236813F0080F07D0114A936823F4604399
:101BC000216943EAC1039360FFF71AFF0C4B9B683E
:101BD000C3F303130B4AD35CD8400B4B18600B4B79
:101BE000186800F02BFC002070BD01207047012018
:101BF000FAE70120F8E70120F6E700BF003C0240C9
:101C0000003802404891000808000020040000202D
:101C1000014B1868704700BF08000020F0B583B082
:101C20000446066816F001060DD0AB4B9A6822F404
:101C300000029A609A68C16A0A439A60C36A002BDC
:101C400000F023810026256815F4002511D0A24A52
:101C5000D2F88C3023F44013616B0B43C2F88C3004
:101C6000636BB3F5801F00F01281002B00F011812F
:101C70000025236813F4801F0FD0974AD2F88C30C8
:101C800023F44003A16B0B43C2F88C30A36BB3F574
:101C9000800F00F0008103B90125236813F0200FA5
:101CA00040F0FB80236813F0100F0CD08A4BD3F860
:101CB0008C2022F08072C3F88C20D3F88C20216B0A
:101CC0000A43C3F88C20236813F4804F08D0824A5B
:101CD000D2F8903023F44033E16D0B43C2F89030DA
:101CE000236813F4004F08D07B4AD2F8903023F4D5
:101CF0004023216E0B43C2F89030236813F4803FD9
:101D000008D0754AD2F8903023F44013616E0B432B
:101D1000C2F89030236813F0400F08D06E4AD2F812
:101D2000903023F00303E16B0B43C2F8903023683B
:101D300013F0800F08D0684AD2F8903023F00C03DB
:101D4000216C0B43C2F89030236813F4807F08D0D5
:101D5000614AD2F8903023F03003616C0B43C2F833
:101D60009030236813F4007F08D05B4AD2F890309B
:101D700023F0C003A16C0B43C2F89030236813F426
:101D8000806F08D0544AD2F8903023F44073E16C4D
:101D90000B43C2F89030236813F4006F08D04E4A0A
:101DA000D2F8903023F44063216D0B43C2F8903099
:101DB000236813F4805F08D0474AD2F8903023F4A8
:101DC0004053616D0B43C2F89030236813F4005FF9
:101DD00008D0414AD2F8903023F44043A16D0B4320
:101DE000C2F89030236813F4001F0DD03A4AD2F89D
:101DF000903023F00063616F0B43C2F89030636F43
:101E0000B3F1006F00F0B480236813F4802F08D082
:101E1000314AD2F8903023F04073E16E0B43C2F8A0
:101E20009030236813F4000F08D02B4AD2F890307A
:101E300023F08053A16F0B43C2F89030236813F056
:101E4000806F08D0244AD2F8903023F00053E16F1D
:101E50000B43C2F8903026B9236813F0007F00F0DE
:101E6000E4801D4A136823F08063136000F02AFBAE
:101E70000646194B1B6813F0006F7BD000F022FB65
:101E8000801B6428F5D90320D2E00126DBE6012679
:101E9000EBE60125EDE60126FDE60F4B1A6C42F05C
:101EA00080521A641B6C03F080530193019B0B4A10
:101EB000136843F48073136000F004FB0746074B7C
:101EC0001B6813F4807F0BD100F0FCFAC01B642860
:101ED000F5D90320ACE000BF00380240007000409C
:101EE000854B1B6F13F4407315D0A26A02F4407245
:101EF0009A4210D0804B1A6F22F44072196F41F44D
:101F000080311967196F21F4803119671A671B6FC7
:101F100013F0010F12D1A36A03F44072B2F5407FAF
:101F20001DD0754A936823F4F813936072490B6FC0
:101F3000A26AC2F30B0213430B67B3E600F0C2FAC6
:101F400007466D4B1B6F13F0020FE4D100F0BAFA95
:101F5000C01B41F288339842F3D9032068E06648F9
:101F6000826822F4F812654919400A438260DDE76D
:101F7000012549E7236813F0010F0ED0E36A63B926
:101F80005D4AD2F88430616803F0706343EA8113DC
:101F9000A16843EA0173C2F88430236813F4002F68
:101FA00003D0626BB2F5801F06D013F4801F19D0E6
:101FB000A36BB3F5800F15D14F4AD2F88410606837
:101FC000E3681B0643EA801301F0E0410B43C2F8CB
:101FD0008430D2F88C3023F01F03E16901390B43C0
:101FE000C2F88C30236813F0007F0AD06268E3687F
:101FF0001B0643EA8213A26843EA02733E4AC2F810
:1020000084303D4A136843F08063136000F05AFA4D
:102010000646394B1B6813F0006F06D100F052FAE8
:10202000801B6428F5D9032002E0012D02D0002096
:1020300003B0F0BD304A136823F08053136000F002
:1020400041FA05462C4B1B6813F0005F06D000F0E8
:1020500039FA401B6428F5D90320E9E7236813F413
:10206000002F01D0626B22B113F4801F18D0A36B34
:10207000B3B9214AD2F88830216903F4403343EAE6
:102080008113616943EA0163C2F88830D2F88C3069
:1020900023F4F853216A013943EA0123C2F88C3052
:1020A000236813F4001F03D0636FB3F1006F13D0E4
:1020B000114A136843F08053136000F003FA04469A
:1020C0000D4B1B6813F0005F14D100F0FBF9001BEF
:1020D0006428F5D90320ABE70749D1F888202069A7
:1020E000A3691B0443EA801302F070621343C1F832
:1020F0008830DDE700209BE700380240FFFCFF0F3F
:1021000000230F2B00F2E28070B582B060E085689A
:102110005E000324B44025EA0405CC68B4402C4397
:102120008460456825EA02054C68C4F300129A40B1
:102130002A4342605AE0DC08083450F8246003F077
:10214000070295000F22AA4026EA020E0A69AA4059
:1021500042EA0E0240F824205CE0072200E0002260
:1021600002FA0EF22A430234594D45F82420594A06
:1021700094686FEA0C0224EA0C054E6816F4801F7E
:1021800001D04CEA0405534CA560E46802EA04055A
:102190004E6816F4001F01D04CEA04054D4CE56072
:1021A000646802EA04054E6816F4003F01D04CEA68
:1021B0000405484C6560246822404D6815F4803F52
:1021C00001D04CEA0402434C226001330F2B7BD830
:1021D00001229A400C6804EA020C32EA0404F4D1A9
:1021E0004C6804F00304013C012C90D94A6802F0C9
:1021F0000302032A09D0C4685D000322AA4024EA2E
:1022000002048A68AA402243C2604A6802F00302BC
:10221000022A90D004684FEA430E032202FA0EF21B
:1022200024EA02044A6802F0030202FA0EF2224390
:1022300002604A6812F4403FC7D0274A546C44F405
:1022400080445464526C02F480420192019A9C08CA
:10225000A51C1F4A52F8255003F003024FEA820ED4
:102260000F2202FA0EF225EA02051C4A90423FF4C0
:1022700076AF02F5806290421AD002F580629042F9
:1022800018D002F58062904216D002F5806290422A
:1022900014D002F58062904212D002F58062904222
:1022A00010D002F5806290423FF457AF082257E702
:1022B000012255E7022253E7032251E704224FE7A8
:1022C00005224DE706224BE702B070BD704700BF04
:1022D00000380140003C014000380240000002404C
:1022E0000AB18161704709048161704710B582B0FD
:1022F0001B4B1A6C42F080521A641B6C03F0805323
:102300000193019B174A136843F48033136000F074
:10231000D9F80446134B5B6813F4803F08D100F0F2
:10232000D1F8001BB0F57A7FF4D9032002B010BDBC
:102330000C4A136843F40033136000F0C3F80446FA
:10234000084B5B6813F4003F07D100F0BBF8001B9B
:10235000B0F57A7FF4D90320E8E70020E6E700BF74
:1023600000380240007000400649CB6823F4E06367
:102370001B041B0C000200F4E0600343024A1A43F2
:10238000CA60704700ED00E00000FA0500B5174B89
:10239000DB68C3F30223C3F1070CBCF1040F28BFB1
:1023A0004FF0040C03F1040EBEF1060F14D9033BE9
:1023B0004FF0FF3E0EFA0CFC21EA0C0199400EFA98
:1023C00003F322EA03031943002807DB0901C9B21A
:1023D000074B19545DF804FB0023E9E700F00F00F8
:1023E0000901C9B2034B1954F4E700BF00ED00E046
:1023F00000E400E014ED00E0002807DB00F01F021D
:10240000400901239340024A42F82030704700BF40
:1024100000E100E00138B0F1807F0BD24FF0E02303
:102420005861054AF02182F82310002098610722A4
:102430001A6170470120704700ED00E010B50446B6
:102440000E4B18784FF47A73B3FBF0F30C4A106814
:10245000B0FBF3F0FFF7DEFF68B90F2C01D90120C4
:102460000AE0002221464FF0FF30FFF78FFF054BB7
:102470001C60002000E0012010BD00BF0000002013
:10248000080000200400002008B5074A136843F440
:10249000807313600320FFF767FF0F20FFF7CEFF65
:1024A000FFF77CF8002008BD003C0240034A116899
:1024B000034B1B780B441360704700BFC805002016
:1024C00000000020014B1868704700BFC8050020BD
:1024D00038B50446FFF7F6FF0546B4F1FF3F02D0DA
:1024E000044B1B781C44FFF7EDFF401BA042FAD3BE
:1024F00038BD00BF00000020002857D010B50446AA
:1025000090F84130002B41D0242384F841302268D8
:10251000136823F0010313606368226823F070637B
:1025200013612268936823F400439360E368012BEE
:1025300031D0A368226843F404439360E368022B1C
:102540002FD0226851681A4B0B4353602268D3681E
:1025500023F40043D360236962691343A1692268AD
:1025600043EA0123D360E369216A22680B431360C5
:102570002268136843F00103136000206064202385
:1025800084F84130206384F8420010BD80F8403068
:10259000FEF738FEB8E7A368226843F4004393606F
:1025A000CCE723684FF400625A60CAE70120704705
:1025B0000080000290F84130DBB2202B24D190F84B
:1025C0004030012B22D0012380F84030242380F8B2
:1025D00041300268136823F0010313600268136836
:1025E00023F4805313600268136819431160026872
:1025F000136843F001031360202380F84130002367
:1026000080F840301846704702207047022070471B
:1026100090F84130DBB2202B22D190F84030012BD2
:1026200020D0012380F84030242380F84130026814
:10263000136823F0010313600268136823F47063C6
:1026400043EA012111600268136843F0010313603B
:10265000202380F84130002380F84030184670472E
:10266000022070470220704798B110B504464379A4
:102670005BB1022363712268136843F004031360A3
:10268000012363710020A06010BD0371FEF710FEEE
:10269000EFE70120704700286FD010B50446436A69
:1026A00033B94368B3F5827F05D00023C36102E0EC
:1026B0000023036143610023A36294F85D30002B83
:1026C00052D0022384F85D302268136823F040035F
:1026D0001360E368B3F5E06F4CD90022B3F5706F77
:1026E00018BFB3F5E06F01D00023A362636803F461
:1026F0008273A16801F404410B43216901F00201D6
:102700000B43616901F001010B43A16901F4007100
:102710000B43E16901F038010B43216A01F08001AC
:102720000B43A16A01F4005120680B430360638BE3
:1027300003F00403616A01F010010B43616B01F0C7
:1027400008010B43E16801F470610B4321681343F6
:102750004B602268D36923F40063D36100202066B4
:10276000012384F85D3010BD84F85C302046FEF70C
:1027700039FEA6E74FF48052B0E701207047000011
:1027800070B4036A23F001030362036A4268856937
:10279000124C2C400D68254323F002048B68234320
:1027A0000F4C104EB04218BFA0420CBF01240024B1
:1027B00005D123F00803CE68334323F004032CB182
:1027C00022F440724C6914438A6922434260856155
:1027D0004A684263036270BC704700BF8CFFFEFF13
:1027E000000001400004014070B4036A23F48073C8
:1027F0000362036A4268C569144C2C400E68264384
:1028000023F400738C6843EA0423114C114DA84251
:1028100018BFA0420CBF0124002406D123F400639A
:10282000CD6843EA052323F480633CB122F440528F
:102830004C6942EA04128C6942EA04124260C661A1
:102840004A68C263036270BC704700BF8CFFFEFF22
:10285000000001400004014070B4036A23F4805377
:102860000362036A4468C5690D4A2A400D6842EA5A
:10287000052223F400538D6843EA0533094E0A4DBF
:10288000A84218BFB04204D124F480444D6944EA00
:1028900085144460C2614A680264036270BC704778
:1028A000FF8CFFFE000001400004014070B4036A89
:1028B00023F480330362036A4468426D0D4D154072
:1028C0000A682A4323F400338D6843EA05430A4E1D
:1028D0000A4DA84218BFB04204D124F480344D6997
:1028E00044EA0524446042654A688265036270BC1C
:1028F000704700BF8FFFFEFF000001400004014051
:1029000070B4036A23F480130362036A4468456D5C
:102910000D4A2A400D6842EA052223F400138D680F
:1029200043EA0553094E0A4DA84218BFB04204D1EC
:1029300024F480244D6944EA8524446042654A6851
:10294000C265036270BC7047FF8FFFFE000001404C
:102950000004014090F83D30DBB2012B3AD1022354
:1029600080F83D300268D36843F00103D360036808
:102970001A4AB3F1804F18BF93421DD0A2F57C4292
:10298000934219D002F58062934215D002F580621D
:10299000934211D002F5784293420DD002F5705265
:1029A000934209D0A2F59432934205D01A6842F0BE
:1029B00001021A60002070479968094A0A40062AF5
:1029C00018BFB2F5803F07D01A6842F001021A60C2
:1029D0000020704701207047002070470000014030
:1029E0000700010070477047704710B50446036840
:1029F0001A6912F0020F11D0DA6812F0020F0DD02E
:102A00006FF002021A610123037703689B6913F0D8
:102A1000030F79D0FFF7E6FF0023237723681A69B5
:102A200012F0040F12D0DA6812F0040F0ED06FF01B
:102A300004021A610223237723689B6913F4407F01
:102A400068D02046FFF7CEFF0023237723681A695A
:102A500012F0080F12D0DA6812F0080F0ED06FF0E3
:102A600008021A61042323772368DB6913F0030F3C
:102A700057D02046FFF7B6FF0023237723681A6953
:102A800012F0100F12D0DA6812F0100F0ED06FF0A3
:102A900010021A61082323772368DB6913F4407F4F
:102AA00046D02046FFF79EFF0023237723681A694C
:102AB00012F0010F03D0DA6812F0010F3FD1236842
:102AC0001A6912F0800F03D0DA6812F0800F3DD13E
:102AD00023681A6912F4807F03D0DA6812F0800F3D
:102AE0003BD123681A6912F0400F03D0DA6812F064
:102AF000400F39D123681A6912F0200F03D0DA6829
:102B000012F0200F37D110BDFEF748FA2046FFF72C
:102B10006AFF81E72046FEF741FA2046FFF763FF90
:102B200092E72046FEF73AFA2046FFF75CFFA3E75C
:102B30002046FEF733FA2046FFF755FFB4E76FF063
:102B400001021A612046FEF719FAB8E76FF0800219
:102B50001A61204600F0E7FABAE76FF480721A6152
:102B6000204600F0E1FABCE76FF040021A6120460F
:102B7000FFF73AFFBEE76FF020021A61204600F02F
:102B8000D1FAC0E730B503683B4A904214BF4FF01A
:102B9000000E4FF0010EB0F1804F14BF72464EF0A0
:102BA0000102AAB9354CA04214BF00240124344DBF
:102BB000A8420DD064B904F1804404F58234A042E7
:102BC00014BF0024012405F50065A84200D01CB103
:102BD00023F070034C682343002A33D1274A9042E4
:102BE00014BF00220122264CA0422BD052BB02F17E
:102BF000804202F58232904214BF0022012204F585
:102C00000064A0421ED0EAB91E4A904214BF0022BE
:102C1000012204F59A34A04214D09AB91A4A90427B
:102C200014BF0022012204F50064A0420AD04AB970
:102C3000164A904214BF00220122A4F59634A04205
:102C400000D022B123F4407CCB6843EA0C0323F08C
:102C500080034A69134303608A68C2620A68826219
:102C60000B4A904214BF73464EF001030BB10B693F
:102C700003630123436130BD0000014000080040B0
:102C800000040040004401400018004000200040C3
:102C90000004014060B310B5044690F83D3013B312
:102CA000022384F83D30214651F8040BFFF76AFFF8
:102CB000012384F8483084F83E3084F83F3084F8AB
:102CC000403084F8413084F8423084F8433084F84E
:102CD000443084F8453084F8463084F8473084F82E
:102CE0003D30002010BD80F83C3002F091F8D7E76D
:102CF0000120704760B310B5044690F83D3013B31F
:102D0000022384F83D30214651F8040BFFF73AFFC7
:102D1000012384F8483084F83E3084F83F3084F84A
:102D2000403084F8413084F8423084F8433084F8ED
:102D3000443084F8453084F8463084F8473084F8CD
:102D40003D30002010BD80F83C3002F039F8D7E764
:102D50000120704770B4036A23F010030362036A12
:102D600042688569144C2C400D6844EA052523F01F
:102D700020038C6843EA0413104C114EB04218BF74
:102D8000A0420CBF0124002406D123F08003CE68AA
:102D900043EA061323F040033CB122F440624C693D
:102DA00042EA84028C6942EA8402426085614A6890
:102DB0008263036270BC7047FF8CFFFE000001401D
:102DC0000004014090F83C30012B36D010B5044689
:102DD000012380F83C30142A2AD8DFE802F00B29BE
:102DE000292910292929152929291A2929291F2999
:102DF000292924000068FFF7C3FC002019E00068BF
:102E0000FFF7A8FF002014E00068FFF7EDFC0020AA
:102E10000FE00068FFF720FD00200AE00068FFF7E0
:102E200045FD002005E00068FFF76AFD002000E096
:102E30000120002384F83C3010BD0220704701F0CF
:102E40001F01012303FA01FC036A23EA0C03036256
:102E5000036A02FA01F10B430362704710B504469E
:102E60000846C9B994F83E30DBB2013B18BF0123D4
:102E7000002B40F0B280002839D1022384F83E3084
:102E80000C2800F2AC80DFE800F04EAAAAAA88AABB
:102E9000AAAA8EAAAAAA940004290CD0082911D0A3
:102EA0000C2916D010291BD094F84330DBB2013B1B
:102EB00018BF0123DCE794F83F30DBB2013B18BFB9
:102EC0000123D5E794F84030DBB2013B18BF012362
:102ED000CEE794F84130DBB2013B18BF0123C7E7CE
:102EE00094F84230DBB2013B18BF0123C0E704284D
:102EF00009D008280BD00C280DD010280FD00223A1
:102F000084F84330BCE7022384F83F30B8E702235B
:102F100084F84030B4E7022384F84130B0E702235C
:102F200084F84230ACE72268D36843F00203D360F0
:102F3000012201462068FFF782FF23682A492B4AB5
:102F4000934218BF8B4203D15A6C42F400425A6438
:102F50002368254AB3F1804F18BF93422FD0A2F5C2
:102F60007C4293422BD002F58062934227D002F537
:102F70008062934223D002F5784293421FD002F53B
:102F8000705293421BD0A2F59432934217D01A6824
:102F900042F001021A60002022E02268D36843F068
:102FA0000403D360C4E72268D36843F00803D36006
:102FB000BEE72268D36843F01003D360B8E799688E
:102FC0000B4A0A40062A18BFB2F5803F09D01A689A
:102FD00042F001021A60002002E0012000E001201E
:102FE00010BD0020FCE700BF0000014000040140CC
:102FF0000700010090F83C30012B45D070B401234C
:1030000080F83C30022380F83D3003685A689C68A1
:103010001E4E1F4DAB4218BFB34203D122F47002C3
:103020004D682A4322F070020D682A435A600368F3
:10303000164AB3F1804F18BF934217D0A2F57C42D5
:10304000934213D002F5806293420FD002F5806262
:1030500093420BD002F57842934207D002F57052AA
:10306000934203D0A2F59432934204D124F0800419
:103070008A6814439C60012380F83D30002380F867
:103080003C30184670BC7047022070470000014079
:103090000004014090F83C30012B3CD030B40123B7
:1030A00080F83C30CB6823F440738A68134323F4E0
:1030B00080634A68134323F400630A68134323F4CC
:1030C00080530A69134323F400534A69134323F4DA
:1030D00080438A6A134323F470238A6943EA0243D4
:1030E00002680E4D0E4CA24218BFAA420CD123F426
:1030F00070034C6A43EA045323F08073CC69234382
:1031000023F00073096A0B435364002380F83C30BA
:10311000184630BC70470220704700BF00000140D5
:10312000000401407047704770470000034AD2F81E
:10313000883043F47003C2F88830704700ED00E037
:103140002DE9F04383B0D0F8008001EBC10300EB20
:103150008303DA6D5B6D9A4254D807460C469B1A7E
:1031600001EBC10200EB8202926C9A4200D31A4634
:1031700002F103094FEA990915E006F103094FEA44
:10318000990904EBC40507EB8505E96C3B7C0093CA
:10319000B3B2E2B2404601F092FAEB6C3344EB6416
:1031A000EB6D3344EB6508EB441303F510639B6947
:1031B0009BB24B4512D304EBC40207EB8202D16DE4
:1031C000536D99420AD24BB15B1A04EBC40207EB70
:1031D0008202966C9E42D0D31E46CEE704EBC4001A
:1031E00007EB80077A6DFB6D9A420FD804F00F044D
:1031F0000123A340D8F8344824EA0304C8F834482B
:10320000002000E0012003B0BDE8F0830020FAE7D1
:1032100070B58AB0002800F097800546046890F8E1
:10322000BD343BB3032385F8BD34E36B13F4807FD7
:1032300001D100232B61286800F056FF2C4654F87A
:10324000106BEC460FCCACE80F000FCCACE80F00D5
:1032500094E803008CE803002B1D0ECB304600F0F1
:1032600061FE044658B1022385F8BD34012420468E
:103270000AB070BD80F8BC3401F01EFED2E7002118
:10328000286801F031FC234616E003EBC30205EB8E
:103290008202012182F83D1082F83C30A2F84430CD
:1032A000002182F840109164D16403EBC30205EB66
:1032B000820251650133DBB269688B42E5D316E0C7
:1032C00004EBC40305EB8303002283F87D2283F81B
:1032D0007C4283F88022C3F88822C3F88C2204EB56
:1032E000C40305EB8303C3F894220134E4B2A14282
:1032F000E6D82C4654F8106BEC460FCCACE80F0027
:103300000FCCACE80F0094E803008CE803002B1D01
:103310000ECB304600F044FF044660B9002385F828
:103320003830012385F8BD346B6A012B08D028683A
:1033300001F097FB9BE7022385F8BD34012496E753
:10334000284600F083FDF2E7012490E790F8BC34B2
:10335000012B0ED010B50446012380F8BC34006860
:1033600000F0BCFE206801F06EFB002084F8BC0475
:1033700010BD02207047000070B504460D4600687D
:10338000066C00EB411303F530639A68216901294B
:1033900011D038498E4256D03DB905EBC50304EB38
:1033A0008303D3F89432002B5ED0E9B2204602F0BA
:1033B0009DFE002070BD12F0080F09D02E498E42EC
:1033C000F7D912F4004FF4D04FF400429A60F0E7BE
:1033D00012F0200F02D020229A60EAE712F0280FA4
:1033E000E7D125498E4206D912F4004F03D04FF49D
:1033F00000429A60DDE705EBC50204EB8202D2F8D9
:1034000098121B69C3F31203CB1AC2F89C327DB920
:1034100005EBC50204EB8202D2F894226AB105EBF7
:10342000C50204EB8202D2F88C120B44C2F88C3233
:10343000E9B2204602F05AFEBBE704F2C442012181
:1034400001F094FBF4E712F4004F03D04FF4004274
:103450009A60AEE712F0200F01D020229A60E9B204
:10346000204602F043FEA4E704F2C442002101F02A
:103470007DFB9AE70A31544F0A30544F38B5044661
:1034800003681D6C03EB4113D3F8081B0E4A9542E9
:1034900007D903F5306311F4004F02D04FF4004216
:1034A0009A60204602F01AFE074B9D4202D923691A
:1034B000012B01D0002038BD04F2C4420121206854
:1034C00001F054FBF6E700BF0A30544F90F8BC34CB
:1034D000012B0DD010B50446012380F8BC3480F8D0
:1034E0003810006801F09FFA002084F8BC0410BD79
:1034F0000220704738B505468C4611F0800F29D15F
:1035000001F00F0E0EEBCE04A40004F51E7404446B
:10351000211D0EEBCE0E00EB8E0E00208EF87D02EC
:103520000CF00F0C81F800C0CA600B714A780AB128
:10353000A1F808C0022B1DD095F8BC34012B1CD07B
:10354000012385F8BC34286800F00CFF002085F8C2
:10355000BC0438BD01F00F0000EBC0018900383118
:103560002944043100EBC00005EB8000012480F801
:103570003D40D5E700234B71DEE70220E9E710B5B7
:1035800004460A4611F0800F20D101F00F0000EB35
:10359000C0039B0003F51E732344191D00EBC000FC
:1035A00004EB8000002380F87D3202F00F020A70E5
:1035B00094F8BC34012B19D0012384F8BC34206862
:1035C00000F01EFF002084F8BC0410BD01F00F00C5
:1035D00000EBC0039B0038332344191D00EBC000EF
:1035E00004EB8000012380F83D30DEE70220ECE7A9
:1035F00010B501F00F0404EBC401890001F51E7140
:103600000144043104EBC40C00EB8C0CCCF88C228C
:10361000CCF894320023CCF89C328CF87D328CF8B4
:103620007C420369012B06D064B9DAB2006800F06D
:1036300057FF002010BD04EBC40C00EB8C0CCCF841
:103640009022F1E7DAB2006801F050F8F1E701F0FA
:103650000F0101EBC10100EB8101D1F89C02704721
:1036600010B501F00F0404EBC401890038310144A6
:10367000043104EBC40C00EB8C0CCCF84C20CCF8DF
:1036800054300023CCF85C3001238CF83D308CF8AA
:103690003C400369012B06D064B9DAB2006800F03F
:1036A0001FFF002010BD04EBC40C00EB8C0CCCF809
:1036B0005020F1E7DAB2006801F018F8F1E738B508
:1036C00001F00F054268954239D804460B4611F0C7
:1036D000800F1FD101EBC101890001F51E7101446A
:1036E000043103EBC30300EB8303002283F87D2244
:1036F00001238B700D7094F8BC34012B21D0012371
:1037000084F8BC34206801F033F98DB1002084F8CE
:10371000BC0438BD05EBC5018900383101440431D2
:1037200005EBC50300EB8303012283F83D20DFE7AF
:1037300004F2C442217C206801F018FAE6E7012077
:10374000E7E70220E5E701F00F034268934231D832
:1037500010B5044611F0800F1ED103EBC3018900A0
:1037600001F51E710144043103EBC30200EB820238
:10377000002082F87D0200228A700B7094F8BC341D
:10378000012B19D0012384F8BC34206801F01DF905
:10379000002084F8BC0410BD03EBC301890038315C
:1037A0000144043103EBC30200EB8202012082F8E2
:1037B0003D00E0E7012070470220ECE708B511F07A
:1037C000800F0CD101F00F0101EBC101890001F55F
:1037D0001E7101440431006800F012FF08BD01F0C1
:1037E0000F0101EBC1018900383101440431F2E7D6
:1037F0002DE9F04F83B004460568284601F070F9C2
:1038000010B103B0BDE8F08F0646206801F037F92B
:103810000028F6D005F50067BB68C3F30D23C4F894
:10382000FC34206801F02BF910F0020F04D022685C
:10383000536903F002035361206801F020F910F08E
:10384000100F14D02268936923F010039361D5F808
:10385000208008F00F09C8F34343022B69D0062BE0
:1038600000F08D802268936943F010039361206813
:1038700001F005F910F4002F40F09380206801F06A
:10388000FEF810F4802F40F0FC80206801F0F7F87B
:103890000028C0F27F81206801F0F1F810F4006F79
:1038A00009D0BB6813F0010F40F08C812268536986
:1038B00003F400635361206801F0E1F810F0006F39
:1038C00015D02268536903F00063536194F8F4340F
:1038D000002B40F07B81012184F8F41423685B6D98
:1038E000C3F38303C4F8F834204600F0C3FA206819
:1038F00001F0C5F810F4805F40F06C81206801F0A1
:10390000BEF810F4005F40F0B881206801F0B7F80D
:1039100010F0080F40F0C981206801F0B0F810F0F5
:10392000800F00F0DC81AB6923F08003AB610126DE
:10393000C5E147F6F07318EA030F93D04FEA181B5E
:103940004FEAC903019309EBC90A04EB8A0AC8F3D9
:103950000A12DAF88C12284600F0E0FFCBF30A0BCB
:10396000DAF88C325B44CAF88C32019B4B4404EB8E
:103970008303D3F89C325B44CAF89C3272E7082276
:1039800004F2C441284600F0C9FFC8F30A1809EB45
:10399000C90204EB8202D2F89C324344C2F89C3242
:1039A00060E7206801F06FF88046B14635E005EB2E
:1039B00049130122C3F8082B49462046FFF7DCFCD7
:1039C0003CE005EB49130822C3F8082B4946204682
:1039D000FFF754FD35E009EBC90304EB830393F8CB
:1039E0007F32012B41D005EB49130222C3F8082B8B
:1039F0001AF0200F04D005EB49132022C3F8082B3E
:103A00001AF4005F05D005EB49134FF40052C3F8D8
:103A1000082B09F101094FEA5808B8F1000F3FF4EB
:103A20002DAF18F0010FF4D05FFA89FB59462068DA
:103A300001F039F8824610F0010FB8D11AF0080FE2
:103A4000BFD11AF0100F04D005EB49131022C3F8B0
:103A5000082B1AF0020FCBD06B6913F0800FBAD08D
:103A60007B6843F480637B60B5E709EBC90304EB33
:103A70008303002283F87F225946204602F088FB08
:103A8000B1E7206801F007F88046B14625E05946C5
:103A9000204602F037FB1AF0080F04D005EB49135B
:103AA0000822C3F808291AF0100F04D005EB4913B7
:103AB0001022C3F808291AF0400F04D005EB49136F
:103AC0004022C3F808291AF0020F40D11AF0800FE3
:103AD0005BD109F101094FEA5808B8F1000F3FF432
:103AE000D4AE18F0010FF4D05FFA89FB5946206874
:103AF00000F0E2FF824610F0010FCCD009F00F0376
:103B0000012101FA03F27B6B23EA02037B6305EBDD
:103B10004913C3F8081923698B42B8D109EBC903CB
:103B200004EB8303996CDA6C0A44DA64B9F1000F90
:103B3000ADD109EBC90304EB83035B6D002BA6D168
:103B400004F2C4420121206801F010F89FE74946C1
:103B5000284600F0CFFA09EBC90304EB830393F87E
:103B60003F30012B05D005EB49130222C3F8082989
:103B7000ACE709EBC90304EB8303002283F83F2081
:103B80005946204602F00AFBEDE749462046FFF77A
:103B9000D7FA9EE77B6823F001037B6094F8F43446
:103BA000012B08D0204602F0EDFA2268536903F099
:103BB000004353616FE6002184F8F414204600F0BE
:103BC00059F9F2E7204602F0C5FA6FE6204602F006
:103BD000C1FA8CE67B6823F001037B60102120682A
:103BE00000F088FA1AE005EB46134FF67F31C3F870
:103BF0000819D3F8002922F40012C3F80029C3F8E9
:103C0000081BD3F8002B22F40012C3F8002BD3F8C2
:103C1000002B42F00062C3F8002B01366368B34208
:103C2000E1D8FB6943F00113FB61236BDBB1D7F8EB
:103C3000843043F00B03C7F884307B6C43F00B03F4
:103C40007B64D5F8003823F4FE63C5F8003804F22D
:103C5000C442217C206800F089FF2268536903F484
:103C6000805353614AE67A6942F22B0313437B6126
:103C70003B6943F00B033B61E3E7206800F066FF1C
:103C8000206800F05FFBE0602668FDF7C1FF014699
:103C9000227B304600F0B0F9204602F044FA226858
:103CA000536903F4005353612FE6204602F035FABE
:103CB0002268536903F0080353612DE601366368F7
:103CC000B3420CD906EBC60304EB830393F87F32AF
:103CD000012BF3D1F1B22046FFF770FDEEE720682B
:103CE00000F0CDFE10F4801F27D1206800F0C7FE41
:103CF00010F4001F5BD0012328E001366368B34253
:103D00001DD905EB4613D3F8002906EBC60304EBD7
:103D1000830393F84030012BEFD1002AEDDA06EB54
:103D2000C60304EB8303012283F83F2066F07F0182
:103D3000C9B22046FFF742FDDFE70126DEE7226831
:103D4000536903F480135361CFE7013362689A42E9
:103D500028D905EB4312D2F8001B03EBC30204EB96
:103D6000820292F88022012AEFD10029EDDA01F4D3
:103D70008031D4F8FC2402F001029142E5D103EB3A
:103D8000C30204EB8202012182F87F12AA6942F089
:103D90008002AA616A6912F0800FD6D17B6843F471
:103DA00000737B602268536903F400135361206839
:103DB00000F065FE10F0804F10D1206800F05FFE2B
:103DC00010F0040F3FF41DAD23685D6815F0040F7B
:103DD0000DD1226853682B43536012E5204602F050
:103DE000E3F92268536903F080435361E5E7204615
:103DF00002F0E0F9EDE710B40468606A31B940EA16
:103E00000240A06200205DF8044B70478C46A36A14
:103E100000EB1340002308E003F1400104EB8101B3
:103E2000496800EB11400133DBB20CF1FF318B42EA
:103E3000F2D340EA02400CF13F0104EB81014860FB
:103E4000E0E70368596200207047000003460268FB
:103E50000121C0F80015002083F8F404936943F0B1
:103E600000639361516D024B0B435365704700BF74
:103E7000030000107047000082B000230193019BF3
:103E800001330193019A0F4B9A4215D80369002B15
:103E9000F5DA00230193036943F001030361019BF9
:103EA00001330193019A074B9A4208D8036913F032
:103EB000010FF4D1002000E0032002B0704703207E
:103EC000FBE700BF400D030000B583B00023019362
:103ED000124A936943F004039361104B9B6913F0FA
:103EE000020F08D1019B01330193019A0C4B9A42B6
:103EF000F3D903200FE0094B0A221A60D96840F673
:103F000013720A43DA601A6842F001021A60022052
:103F1000FEF7DEFA002003B05DF804FB007C0140F0
:103F2000400D030084B010B5044603A880E80E00DD
:103F3000089B012B13D0032B2DD0E36843F04003E3
:103F4000E3602046FFF798FFA36B43F48033A3633D
:103F5000069B012B43D0BDE8104004B07047A36B13
:103F600023F48033A363E268224B1340E360E368E9
:103F700043F01003E360E36823F44013E3600F9B16
:103F8000012B03D02046FFF777FFE1E7E36843F416
:103F90008013E360F6E7A36B23F48033A363E26846
:103FA000144B1340E360E36823F44013E360E368D9
:103FB00023F01003E360A36B43F40003A3632046E4
:103FC000FFF782FFA0B90F9B012B03D02046FFF71C
:103FD00053FFBDE7E36843F48013E360F6E7A368AB
:103FE00043F00603A360A36843F02003A360B2E795
:103FF0000120B0E7BFFFBDFF022A0AD00921C26835
:1040000022F47052C260C36843EA8123C360002077
:104010007047204B0B44204A934229D91F4B0B4435
:104020001F4A934226D91F4B0B441F4A934223D960
:104030001E4B0B441E4A934220D31E4B0B441E4A78
:1040400093421DD91D4B0B441D4A93421AD31D4B5D
:104050000B441D4A934217D31C4B0B441C4A9342FA
:1040600014D31C4B0B441C4A934211D20721C6E7C0
:104070000F21C4E70E21C2E70D21C0E70C21BEE7E6
:104080000B21BCE70A21BAE70921B8E70821B6E706
:104090000621B4E7405327FFFF340C00401E1BFFEE
:1040A0003F420F0000DC0BFF7F4F1200808CF9FEB7
:1040B00020D6130060B6E5FE5FE3160000D3CEFE07
:1040C00040771B00C05BB3FEC091210000CA91FE87
:1040D00020753800E05459FEE09C4100836843F0AD
:1040E0000103836000207047836823F0010383602D
:1040F0000020704782B000230193019B013301939C
:10410000019A0F4B9A4215D80369002BF5DA002368
:104110000193890141F020010161019B0133019369
:10412000019A074B9A4208D8036913F0200FF4D183
:10413000002000E0032002B070470320FBE700BF2F
:10414000400D030082B000230193019B01330193D2
:10415000019A0E4B9A4213D80369002BF5DA00231B
:10416000019310230361019B01330193019A074BD3
:104170009A4208D8036913F0100FF4D1002000E030
:10418000032002B070470320FBE700BF400D03008F
:10419000D0F800381943C0F800180020704700001C
:1041A00084B02DE9F041044607A880E80E00002302
:1041B00006E003F1400204EB82020021516001336A
:1041C0000E2BF6D9119F37BBD4F8043843F0020305
:1041D000C4F80438A36B23F40013A363236843F0EB
:1041E00040032360236843F0800323600023C4F866
:1041F000003E04F50065D4F80038C4F800380C9B84
:10420000012B0DD0032B1CD1099BABB900212046FB
:10421000FFF7BEFF19E0A36B43F40013A363E5E7C8
:10422000099B23B900212046FFF7B2FF0DE00121D1
:104230002046FFF7ADFF08E001212046FFF7A8FF69
:1042400003E003212046FFF7A3FF10212046FFF7DC
:1042500051FF804608B14FF001082046FFF772FF7A
:1042600008B14FF0010800232B616B61EB610AE09C
:10427000C3B94FF00060C2F8000900220A614FF68E
:104280007F328A6001330799994210D904EB4312B7
:1042900002F51061D2F800090028E9DB0020C2F81D
:1042A0000009EAE74FF09040C2F80009E5E7002373
:1042B0000AE0C3B14FF0904CC2F800CB002202617B
:1042C0004FF67F3282600133994211D904EB4312D9
:1042D00002F53060D2F8006B002EEADB4FF0000CE4
:1042E000C2F800CBEAE74FF0006CC2F800CBE5E77C
:1042F0002B6923F480732B610023A3616FF080434B
:1043000063610A9B1BB9A36943F01003A361A2690F
:104310000A4B1343A3610D9B1BB1A36943F0080330
:10432000A361012F04D04046BDE8F04104B07047BE
:10433000A269034B1343A361F5E700BF00383C803B
:1043400004000040D0F8083813F0060305D0062B0F
:1043500018BF022B03D102207047002070470F20A6
:104360007047000010B591F800C04B78012B21D0A8
:1043700000F5006ED0F81C380CF00F040122A240AA
:1043800043EA0243C0F81C3800EB4C10D0F8003B65
:1043900013F4004F0CD1D0F8002BCB68C3F30A0301
:1043A000097943EA81431343144A1A43C0F8002BA6
:1043B000002010BDD0F81C280CF00F0E03FA0EF3ED
:1043C0009BB21343C0F81C3800EB4C10D0F80039F6
:1043D00013F4004FECD1D0F80029CB68C3F30A03E3
:1043E000097943EA814343EA8C5C42EA0C0C034BB3
:1043F0004CEA0303C0F80039DAE700BF0080001080
:1044000030B40B784A78012A26D000EB4313D3F856
:10441000002B002A52DBD0F83C480A7802F00F0249
:104420004FF0010C0CFA02F224EA0242C0F83C28D8
:10443000D0F81C28097801F00F010CFA01FC22EADF
:104440000C42C0F81C28D3F8001B234A0A40C3F8CA
:10445000002B002030BC704700EB4313D3F8002939
:10446000002A1EDBD0F83C580A7802F00F02012423
:1044700004FA02F292B225EA0202C0F83C28D0F80F
:104480001C28097801F00F018C40A4B222EA040430
:10449000C0F81C48D3F80019104A0A40C3F8002994
:1044A000D7E7D3F8002942F00062C3F80029D3F817
:1044B000002942F08042C3F80029D3E7D3F8002B4B
:1044C00042F00062C3F8002BD3F8002B42F0804288
:1044D000C3F8002B9FE700BF0078F3EF007833ECC0
:1044E00070B40B784C78012C27D000EB431000F50A
:1044F00030631D69404C2C401C611D693F4C2C40B1
:104500001C618C690CB1CC688C61CC68CC611C6975
:1045100044F400241C611C69CD69C5F3120C44EA03
:104520000C041C61012A62D0D0F8003B43F0044324
:10453000C0F8003B002070BC70478C695CBB00EB8E
:104540004314D4F810692D4D3540C4F81059D4F8EF
:10455000105945F40025C4F81059D4F81069264DB7
:104560003540C4F81059012A32D000EB4313D3F878
:10457000002942F00442C3F800298B69002BD9D0EE
:10458000D0F834380A7802F00F0101228A40134330
:10459000C0F83438CEE700EB431404F51064266904
:1045A000154D354025612669144D35402561CD688E
:1045B0008E69AE4200D98D61256945F400252561DB
:1045C00025698E69C6F3120C45EA0C052561CAE718
:1045D0004A691AB100EB4311C1F8142900EB4310EA
:1045E000D0F8002942F00442C0F80029A2E70A6985
:1045F000002A99D05A6197E70000F8FFFFFF07E013
:1046000010B483B0024600230193487801280BD0F0
:104610000B7802EB4313D3F8000B00282DDB0020AE
:1046200003B05DF8044B70470B7802EB4313D3F8EB
:104630000049002C01DB0020F2E7D3F8004944F0E8
:104640000064C3F800490B7802EB4313D3F8004928
:1046500044F08044C3F80049019B01330193019C5D
:1046600042F210739C42DBD80B7802EB4313D3F871
:104670000039002BF0DB0020D2E7D3F8000B40F02C
:104680000060C3F8000B0B7802EB4313D3F8000B68
:1046900040F08040C3F8000B019B01330193019867
:1046A00042F21073984208D80B7802EB4313D3F808
:1046B000003B002BF0DB0020B2E70120B0E710B593
:1046C0009DF8084084B903334FEA930E4FF0000C75
:1046D00008E000EB023303F5805351F8044B1C60F3
:1046E0000CF1010CF445F4D3002010BDF0B583B0FB
:1046F0000B784C78012C31D000EB431303F5306C70
:10470000DCF81050824C2C40CCF81040DCF81050F3
:10471000804C2C40CCF810408C69002C40F0C380B9
:10472000DCF81040CD68C5F312052C43CCF81040DE
:10473000DCF8104044F40024CCF81040012A00F0CA
:10474000CC800A79012A00F0CF80D3F8002B42F008
:104750000442C3F8002B002003B0F0BD8C6974BB89
:1047600000EB4314D4F810696A4D3540C4F8105971
:10477000D4F8105945F40025C4F81059D4F810693C
:10478000634D3540C4F81059012A4AD000EB431359
:10479000D3F8004944F00444C3F800490C79012CD3
:1047A00068D08B69002BD6D0D0F834380A7802F064
:1047B0000F0101228A401343C0F83438CBE700EBE5
:1047C0004314D4F81069524D3540C4F81059D4F848
:1047D0001069504D3540C4F81059D4F810698D69EE
:1047E000CF683D44013DB5FBF7F54B4F07EAC545A2
:1047F0003543C4F81059D4F810598E69C6F312061F
:104800003543C4F8105904F510640D79012DBBD15E
:10481000256925F0C0452561256945F000552561CC
:10482000B2E74A691AB100EB4314C4F814290A79B3
:10483000012A08D000EB4313D3F8002942F00442C8
:10484000C3F8002987E7D0F8082812F4807F08D140
:1048500000EB4311D1F8002942F00052C1F80029C1
:10486000E8E700EB4311D1F8002942F08052C1F88B
:104870000029DFE7D0F8084814F4807F0CD1D3F882
:10488000004944F00054C3F8004900920B8B0A78A9
:104890000969FFF714FF5EE7D3F8004944F080543C
:1048A000C3F80049F1E7CD682C44013CB4FBF5F4B2
:1048B000A4B204FB05F5CD61DCF81050164E06EAF3
:1048C000C4442C43CCF81040DCF81040CD69C5F34B
:1048D00012052C43CCF8104030E70A69002A3FF457
:1048E00030AFCCF814202CE7D0F8082812F4807FE1
:1048F00006D1D3F8002B42F00052C3F8002B24E776
:10490000D3F8002B42F08052C3F8002B1DE700BF04
:104910000000F8FFFFFF07E00000F81F00B583B0BC
:10492000844608464FEA920E02F00302002305E097
:104930000CF58051096840F8041B01337345F7D327
:104940009AB10CF5805CDCF8003001934FF0000C5C
:104950005FFA8CF3D900019BCB4000F8013B0CF1CE
:10496000010C013A92B2002AF2D103B05DF804FBC7
:104970000B784A78012A14D000EB4310D0F8002BB2
:10498000002A06DB2BB1D0F8003B23F08043C0F8AF
:10499000003BD0F8003B43F40013C0F8003B00207C
:1049A000704700EB4310D0F80029002A06DB2BB13A
:1049B000D0F8003923F08043C0F80039D0F800392E
:1049C00043F40013C0F80039E9E70B784A78012A6C
:1049D0000ED000EB4310D0F8003B23F40013C0F8D6
:1049E000003B0B79023BDBB2012B15D9002070474D
:1049F00000EB4310D0F8003923F40013C0F800395D
:104A00000B79023BDBB2012BF0D8D0F8003943F030
:104A10008053C0F80039E9E7D0F8003B43F08053F9
:104A2000C0F8003BE2E7D0F8003823F4FE63C0F89A
:104A30000038D0F80038090101F4FE611943C0F8CC
:104A4000001800207047D0F8003E23F00303C0F8A0
:104A5000003ED0F8043823F00203C0F804380020E8
:104A60007047D0F8003E23F00303C0F8003ED0F8B2
:104A7000043843F00203C0F804380020704742694C
:104A8000806910407047D0F8183800F50060C069A0
:104A90001840000C7047D0F8183800F50060C06965
:104AA000184080B2704700EB4111D1F8082B00F597
:104AB000006040691040704710B4D0F81048D0F83A
:104AC000343801F00F02D340DB01DBB2234300EBAB
:104AD000411000F51060806818405DF8044B704785
:104AE000406900F00100704738B50546C36823F0FF
:104AF000C043C360012913D019BBC36843F080438E
:104B0000C36000240120FDF7E3FC01342846FFF7D1
:104B1000E7FF08B1312CF5D9322C14D0002038BD74
:104B2000C36843F00053C36000240120FDF7D0FCAC
:104B300001342846FFF7D4FF0128EDD0312CF4D9F9
:104B4000EAE70120EBE70120E9E70000D0F80029BF
:104B5000054B1340C0F80039D0F8043843F4807393
:104B6000C0F804380020704700F8FFFF10B4046C50
:104B7000154B9C4203D9D0F8003B002B16DB0024D8
:104B8000C0F8104BD0F8104B44F40024C0F8104B80
:104B9000D0F8104B44F01804C0F8104BD0F8104B6C
:104BA00044F0C044C0F8104B012903D000205DF848
:104BB000044B7047C0F8142BD0F8003B43F080231F
:104BC000C0F8003BF2E700BF0A30544F000000007D
:104BD00008B551EC100BFBF7FFFF00EE100A02F0D6
:104BE00087FC10EE100AFBF7CFFC9FED0D1B41EC8C
:104BF000100B02F0B5FC51EC100B00220A4BFBF736
:104C00001BFD0022094BFBF761FB41EC100B02F08E
:104C1000EBFB51EC100BFBF7BFFFC0B208BD00BFB0
:104C20000000000000000040000049400000144067
:104C300010B50124047044700A2380F889300021E3
:104C400080F8821080F888108022023001F050FF36
:104C5000204610BD10B596B00024139414941594FA
:104C60000C940D940E940F941094119412942C2281
:104C7000214601A801F03CFF2648274B03604FF472
:104C8000A073436084604FF48073C3604FF400737B
:104C90000361446180238361FEF72CF800282CD146
:104CA000002313931493159313A91A48FEF7A2F93E
:104CB00030BB00220C920D920E920F921092119224
:104CC00012920CA91348FEF77DF8E0B90023019376
:104CD00002930393049305934FF4005206920793B3
:104CE00008934FF0007209920A930B9301A90948A7
:104CF000FEF7D0F950B916B010BDFCF769F9CFE74F
:104D0000FCF766F9D5E7FCF763F9DFE7FCF760F934
:104D1000F1E700BFCC0500200000014000B585B0E0
:104D200000230193029303930E480F4A026044F25A
:104D30004402426083602522C2608361FDF7AAFFBE
:104D400050B900230193039301A90648FEF752F9D5
:104D500028B905B05DF804FBFCF73AF9F1E7FCF778
:104D600037F9F6E7180600200010004000B585B0BE
:104D700000230193029303930F48104A02604FF4FB
:104D8000EB524260836042F69232C2608361FDF76B
:104D900081FF50B900230193039301A90648FEF750
:104DA00029F928B905B05DF804FBFCF711F9F1E722
:104DB000FCF70EF9F6E700BF64060020001400407F
:104DC0000268124B9A4200D0704700B583B003F5D9
:104DD0009C335A6C42F001025A645B6C03F001038D
:104DE0000193019B002211461920FDF7CFFA1920EB
:104DF000FDF702FB002211461B20FDF7C7FA1B201E
:104E0000FDF7FAFA03B05DF804FB00BF00000140B3
:104E100000B583B00368174A934205D0164A9342FF
:104E200015D003B05DF804FB144B1A6C42F010026D
:104E30001A641B6C03F010030093009B00221146C0
:104E40003620FDF7A3FA3620FDF7D6FAE9E70B4B3B
:104E50001A6C42F020021A641B6C03F020030193C9
:104E6000019B002211463720FDF790FA3720FDF70D
:104E7000C3FAD6E70010004000140040003802409A
:104E800008B50B480B4B0360092343600023036103
:104E9000032282610122C26103624362C36203632F
:104EA0004363FEF7B5F900B908BDFCF791F8FBE7DD
:104EB000B00600200000044030B5ABB0044600212D
:104EC00025912691279128912991802205A801F00A
:104ED0000FFE2268264B9A4201D02BB030BD4FF412
:104EE0000013059305A8FCF799FE00283CD1214C3E
:104EF000236B43F002032363236B03F0020301934C
:104F0000019B4FF4404325930223269300252795C8
:104F1000032328930C23299325A91748FDF7F0F8BC
:104F2000636C43F000436364636C03F000430293DB
:104F3000029B236B43F000532363236B03F0005366
:104F40000393039B236B43F080432363236B03F0A2
:104F500080430493049B2A4629464D20FDF716FA08
:104F60004D20FDF749FAB8E7FCF732F8BFE700BF7C
:104F700000000440003802400004024038B50446F6
:104F80000D46054B1B689847044B1B682946204675
:104F90009847002038BD00BFFC0100201C01002004
:104FA00038B504460D46054B5B689847044B5B6873
:104FB000294620469847002038BD00BFFC0100204C
:104FC0001C01002010B5002333B10A790D4B1B786A
:104FD0009A4212D0032010BD0A790B4C14F803C07A
:104FE000624506D0094CE45CA24202D00133DBB238
:104FF000EAE7074B9B689847EDE7064B9B689847A5
:10500000E9E700BFC00C0020181400201C14002089
:10501000FC0100201C01002008B500233BB10F4B10
:105020001B7803F07F038B4214D0032008BD0C4A89
:10503000D25C02F07F02914208D00A4AD25C02F0B0
:105040007F02914202D00133DBB2E7E7064B5B6996
:105050009847EBE7054B5B699847E7E7530000206B
:105060002014002014140020FC0100201C0100204A
:1050700008B5024B1B699847002008BDFC010020C1
:1050800000207047002070470020704700207047C4
:1050900008B500230BB1032008BD054AD25C8A4243
:1050A00002D00133DBB2F5E7024B9B699847F3E787
:1050B00024140020FC010020642303800048704772
:1050C0001C0C00206423038000487047B80B0020AC
:1050D0006423038000487047B80B00200A23038034
:1050E0000048704748000020184B1B788B422AD399
:1050F00070B584B00D4616460024009401940294C5
:10510000039405E0124B1B5DAB420AD00134E4B2BC
:10511000002CF7D00F4B1B78AB420ED00E4804B0DA
:1051200070BD23460D4A1021684601F0E9FC324665
:105130000949684600F0A2FEE8E7324606490848F9
:1051400000F09CFEEAE70020704700BF52000020FC
:1051500028140020C10C0020800C00206091000861
:10516000709100082DE9F04F87B00027ADF8167058
:10517000DFF82481D8F82C300DF116009847054649
:10518000424E33788122394600F088F9BDF8162066
:105190003F4C093A05F1090104F1090001F09AFCBC
:1051A000D8F828300DF116009847804633788122D0
:1051B000394600F073F9BDF81620364D093A08F16A
:1051C000090105F1090001F085FC337801333370E2
:1051D000DFF8C8B0DBF82C300DF116009847814697
:1051E000337802934FF00108CDF804804FF0830A22
:1051F000CDF800A082230222414601F04BFBBDF80E
:105200001620093A09F1090104F1220001F062FCBB
:10521000DBF828300DF11600984781463378029369
:10522000CDF80480CDF800A082230222414601F08F
:1052300031FBBDF81620093A09F1090105F12200F8
:1052400001F048FC3378434433704FF0090C85F883
:1052500000C002266E706420A870EF7003212971CF
:1052600085F80580AF71C022EA7132232B7284F871
:1052700000C06670A070E770217184F80580A77186
:10528000E271237207B0BDE8F08F00BF520000202A
:10529000B80B00201C0C00201C010020FC01002089
:1052A00022230380004870475801002022230380F6
:1052B000004870477C01002022230380004870478B
:1052C00058010020D0F8D432002018737047000035
:1052D0000A230380004870471001002070B582B097
:1052E000D0F8D4520023ADF80630002D00F08280B3
:1052F0000C7814F0600425D0202C75D14B78023B3B
:10530000092B1BD8DFE803F014091A1A1A1A1A1A03
:105310000F058B782B60002469E00122294600F0FC
:10532000CAFD002463E04B881B0A6B6000245EE02A
:105330000122291D00F0BFFD002458E000F087FA8B
:10534000032454E04E780B2E4AD8DFE806F00650CE
:1053500049494949164949492E3D90F89C32DBB2EA
:10536000032B03D000F073FA032440E002220DF176
:10537000060100F0A0FD344639E04B881B0A222BC1
:1053800009D0212B0DD1CA88092A28BF09221A4920
:1053900000F091FD2BE0CA88BB2A28BFBB22174929
:1053A000F6E700F054FA032421E090F89C32DBB2D7
:1053B000032B03D000F04BFA032418E0012205F17F
:1053C000080100F078FD12E090F89C32DBB2032B6C
:1053D00002D18B78AB600AE000F039FA032406E0D2
:1053E00000F035FA032402E000F031FA03242046ED
:1053F00002B070BD0324FAE7A00100205400002091
:1054000038B504460A4D297800F056FF2B7803F092
:105410000F0303EB830204EB820200219184D18409
:10542000D4F8D4320BB1C4F8D412002038BD00BF78
:105430005300002038B50446164BC0F8D432037C24
:10544000EBB9154B1B7803F00F0303EB830300EB61
:1054500083030722DA84104D08230322297820468B
:1054600000F01FFF287800F00F0000EB800004EB35
:1054700080040123A3840020064B187338BD064B1B
:105480001B7803F00F0303EB830300EB83030A2273
:10549000DA84E0E7C40C002053000020C17243749A
:1054A000427703480270034A1170034A1370704731
:1054B00053000020C00C0020C10C002088B108B5AA
:1054C00003460020C3F8B802C3F8180309B1C3F8B3
:1054D000B412012183F89C121A70184600F070FE75
:1054E00008BD0320704730B583B00023ADF8063007
:1054F000B9B10446C0F8B812057C4DB98B6A23B126
:105500000DF106009847C4F81803284603B030BDD3
:10551000CB6A43B10DF106009847C4F81803002583
:10552000F3E70325F1E70025EFE708B500F0B1FE4A
:1055300008BD08B5D0F8B83213B11B68984708BD4C
:105540000320FCE708B5D0F8B8320BB15B68984788
:10555000002008BD38B5044600F2AA25284600F010
:1055600062F90123C4F89432B4F8B032C4F8983226
:1055700094F8AA1201F01F03012B0DD0022B10D0BA
:105580002BB101F08001204600F09EFE03E0294689
:10559000204600F00EFB38BD2946204600F041FBB6
:1055A000F9E72946204600F070FBF4E738B50446D9
:1055B0000D4641BB1346D0F89422032A01D0084679
:1055C00038BDD0F85C11D0F86021914209D890F82C
:1055D0009C32DBB2032B0FD0204600F098FC28460B
:1055E000EEE7891AC0F85C118A4228BF0A461946BC
:1055F00000F085FC2846E3E7D0F8B8321B69002BA1
:10560000EAD09847E8E790F89C32DBB2032B01D050
:105610000020D5E7D0F8B8329B690BB19847CFE7A7
:105620000020CDE738B504460D4600294AD113467F
:10563000D0F89422022A05D094F8A032012B3CD055
:10564000284638BDC269016A8A420ED88A4218D0FB
:1056500094F89C32DBB2032B27D08021204600F047
:1056600033FE204600F05EFCE6E7521AC26119469E
:1056700000F02EFC00231A461946204600F044FE96
:10568000DAE783699942E3D8D0F898229342DFD2CF
:105690000022114600F01CFC0021C4F898120B46B1
:1056A0000A46204600F030FEC6E7D4F8B832DB6880
:1056B000002BD2D020469847CFE7002384F8A032B1
:1056C0002846BEE790F89C32DBB2032B01D00020C5
:1056D000B7E7D0F8B8325B690BB19847B1E7002063
:1056E000AFE7012380F89C320023C0F89432436076
:1056F000C0F8A432D0F8B832DBB170B504465B68AC
:105700000BB100219847402300221146204600F0AB
:10571000C8FD0126A4F864614025C4F860512B46F9
:1057200000228021204600F0BCFDA68425620020D6
:1057300070BD0320704701740020704790F89C32C0
:10574000DBB280F89D32042380F89C320020704741
:1057500090F89C32DBB2042B01D00020704790F807
:105760009D32DBB280F89C32F7E7D0F8B82262B104
:1057700008B590F89C32DBB2032B01D0002008BDA5
:10578000D36923B198470020F9E703207047002030
:10579000F5E7D0F8B82262B108B590F89C32DBB2D8
:1057A000032B01D0002008BD136A23B198470020C5
:1057B000F9E7032070470020F5E7D0F8B82262B17E
:1057C00008B590F89C32DBB2032B01D0002008BD55
:1057D000536A23B198470020F9E70320704700205F
:1057E000F5E70020704708B5012380F89C32D0F817
:1057F000B83213B15B6801799847002008BD0346B1
:10580000002002E00130C0B201331A78002AF9D139
:10581000704708B54B88012B00D008BDC0F8A432F2
:1058200000F075FBF9E70B7803704B7843708B78C9
:10583000CA7843EA022343800B794A7943EA022378
:1058400083808B79CA7943EA0223C380704710B5FD
:105850000446802100F038FD0021204600F034FD90
:1058600010BD30B583B004460D460023ADF80630B8
:1058700049880B0A013B062B00F2B380DFE803F0F6
:10588000041F33B1B195A200D0F8B4321B680DF1FA
:105890000601007C9847EA88002A00F0AB80BDF83A
:1058A0000630002B00F0A1809A4228BF1A46ADF8BE
:1058B00006200146204600F0FEFA03B030BD037C0E
:1058C00043B9D0F8B8329B6A0DF10600984702231D
:1058D0004370E0E7D0F8B832DB6A0DF10600984774
:1058E00002234370D7E7C9B2052952D8DFE801F097
:1058F00003101D2A3744D0F8B4325B6823B10DF190
:105900000601007C9847C6E72946FFF7A0FFD4E7C9
:10591000D0F8B4329B6823B10DF10601007C9847A2
:10592000B9E72946FFF793FFC7E7D0F8B432DB6841
:1059300023B10DF10601007C9847ACE72946FFF73B
:1059400086FFBAE7D0F8B4321B6923B10DF1060126
:10595000007C98479FE72946FFF779FFADE7D0F82D
:10596000B4325B6923B10DF10601007C984792E7E0
:105970002946FFF76CFFA0E7D0F8B4329B6923B14A
:105980000DF10601007C984785E72946FFF75FFF88
:1059900093E7D0F8B8329B6B1BB10DF10602984724
:1059A00079E72946FFF753FF87E7037C33B9D0F83F
:1059B000B8325B6B0DF1060098476CE72946FFF79C
:1059C00046FF7AE7037C43B9D0F8B8321B6B0DF180
:1059D00006009847072343705DE72946FFF737FF26
:1059E0006BE72946FFF733FF67E729462046FFF7B5
:1059F0002EFF62E7204600F08AFA5EE738B50446DB
:105A00008B88FBB9CB88EBB94B887F2B1AD803F076
:105A10007F0590F89C32DBB2032B0CD080F89E52AD
:105A2000294600F061FC204600F071FA35B10223EE
:105A300084F89C3209E0FFF70AFF06E0012384F8AE
:105A40009C3202E02046FFF702FF38BD70B50446E5
:105A50000E468D782E4B1D70012D10D890F89C327B
:105A6000DBB2022B0FD0032B23D0FFF7F0FE284B25
:105A700019782046FFF766FD0325284670BDFFF71D
:105A8000E6FE0325F9E78DB145602946FFF751FD94
:105A9000054620B131462046FFF7D9FEEDE7204606
:105AA00000F035FA032384F89C32E6E700F02FFA81
:105AB000E3E7CDB141688D4225D0C9B2FFF742FD81
:105AC000134B197861602046FFF733FD0546B0B1EE
:105AD00031462046FFF7BBFE21792046FFF732FD15
